:020000040800F2
:100000002004002001010008050100080701000884
:10001000090100080B0100080D01000800000000A4
:100020000000000000000000000000000F010008B8
:10003000110100080000000013010008150100086C
:100040001701000817010008170100081701000830
:100050001701000817010008590100089B0100085A
:10006000DD0100081701000817010008170100084A
:100070001701000817010008170100081701000800
:1000800017010008170100081701000817010008F0
:100090001701000817010008170100081F020008D7
:1000A00017010008170100081701000817010008D0
:1000B00017010008170100081701000817010008C0
:1000C00017010008170100081701000817010008B0
:1000D00017010008170100081701000817010008A0
:1000E000670200081701000817010008DFF80CD0AC
:1000F00000F000F900480047AF020008200400208B
:1001000005480047FEE7FEE7FEE7FEE7FEE7FEE7FD
:10011000FEE7FEE7FEE7FEE7ED0000087048006836
:1001200040F004006E4908600846006840F0020094
:1001300008606C48006840F004006A49086000BF2D
:1001400000BF30BF704701B502E00098401E00902C
:1001500000980028F9D108BD00B5002100BF16E0C5
:100160006148006840F400505F4A106042F210702D
:10017000FFF7E9FF5C48001D006840F400505A4A50
:10018000121D106042F21070FFF7DDFF491C642958
:10019000E6DB0120554A106000BD00B5002100BF1C
:1001A00016E05148006840F480404F4A106042F227
:1001B0001070FFF7C8FF4C48001D006840F48040F5
:1001C000494A121D106042F21070FFF7BCFF491C33
:1001D0006429E6DB0220454A106000BD00B500211D
:1001E00000BF16E04048001D006840F400403E4A51
:1001F000121D106042F21070FFF7A5FF3A48006828
:1002000040F40040384A106042F21070FFF79BFF44
:10021000491C6429E6DB0420344A106000BD3348E1
:10022000006800F04000E8B13148006880F001004B
:100230002F49086040B92C48001F006820F040009A
:100240002949091F086007E02748001F006840F09F
:1002500040002549091F08602448006840F040001C
:100260002249086070472148006800F40050E8B156
:100270001F48006880F001001D49086040B91A4815
:10028000001F006820F040001749091F086007E0C0
:100290001548001F006840F040001349091F08601E
:1002A0001248006840F4005010490860704700BFD1
:1002B0000D48006840F480500B49086042F210700D
:1002C000FFF741FF0848001D006840F480500649D0
:1002D000091D086042F21070FFF735FFE8E70000E3
:1002E0000070004010ED00E0100C014014040140CB
:1002F00000000020064C074D06E0E06840F00103D6
:1003000094E8070098471034AC42F6D3FFF7F2FEAA
:10031000380300085803000802E008C8121F08C18B
:10032000002AFAD170477047002001E001C1121F76
:10033000002AFBD17047000058030008000000208D
:1003400020000000180300087803000820000020A7
:100350000004000028030008000000000000000066
:10036000000000000000000000000000000000008D
:08037000C4030100DC050000DC
:04000005080000ED02
:00000001FF
