:020000040800F2
:1000000080040020450100084D0100084F01000850
:1000100051010008530100085501000800000000CC
:100020000000000000000000000000005701000870
:1000300059010008000000005B010008510700089A
:100040005F0100085F0100085F0100085F01000810
:100050005F0100085F0100085F0100085F01000800
:100060005F0100085F0100085F0100085F010008F0
:100070005F0100085F0100085F0100085F010008E0
:100080005F0100085F0100085F0100085F010008D0
:100090005F0100085F0100085F0100085F010008C0
:1000A0005F0100085F0100085F0100085F010008B0
:1000B0005F0100085F0100085F0100085F010008A0
:1000C0005F0100085F0100085F0100085F01000890
:1000D0005F0100085F0100085F0100085F01000880
:1000E0005F0100085F0100085F0100085F01000870
:1000F0005F0100085F0100085F0100085F01000860
:100100005F0100085F0100085F0100085F0100084F
:100110005F0100085F0100085F0100085F0100083F
:100120005F0100085F0100085F0100085F0100082F
:10013000DFF80CD000F018F800480047CD0900089F
:10014000800400200648804706480047FEE7FEE797
:10015000FEE7FEE7FEE7FEE7FEE7FEE7FEE7FEE777
:10016000CD07000831010008064C074D06E0E068A5
:1001700040F0010394E8070098471034AC42F6D3EE
:10018000FFF7DAFF140A0008340A000838B500F057
:10019000EDFA0121202000F0EDF90121402000F0CE
:1001A000E9F90121802000F0E5F918208DF803001D
:1001B00003208DF8020000240CE01E4830F81400E3
:1001C000ADF800001C4951F82400694600F037F9E9
:1001D000601CC4B2082CF0DB18480088ADF80000A1
:1001E00069461748006800F02AF916480088ADF8FB
:1001F000000069461448006800F021F9134800889F
:10020000ADF8000069461248006800F018F900F0E7
:1002100021F8012000F070F8382000F064F80C207C
:1002200000F061F8062000F05EF8802000F05BF836
:1002300038BD0000300000201000002044000020E5
:10024000400000204C000020480000205400002006
:100250005000002000B597B00121080200F07AF9A3
:100260000020019002900A20039000200490059045
:10027000069007900890099008200A9000200B90A3
:100280000C900E900F9010904FF480501190002021
:10029000129013900D90149001A81590169008A834
:1002A00000F05AF80121002000F03CF817B000BD22
:1002B0002DE9F04105460E461746012D01D1802457
:1002C00000E0C024701E2043C4B2802000F00BF870
:1002D0000A2000F011F84FF0C04047700A2000F0EB
:1002E0000BF8BDE8F08110B504464FF0C040047033
:1002F0000A2000F001F810BD00214FF0E0229161CA
:100300000121064A11600649086000BF04490968D6
:100310000029FBD1014A1160704700000400002051
:100320000000002051B18200A2F1C042126842F0E8
:1003300001038200A2F1C042136009E08200A2F131
:10034000C0421268034B1A408300A3F1C0431A60F5
:1003500070470000FEFF0F00D0E901121143C26890
:100360001143026911434269114382691143C26911
:100370001143026A1143426A1143826A1143C26AFD
:100380001143026B114302689200A2F1C042116056
:10039000816808290BD101688900A1F1C041096871
:1003A00041F0400201688900A1F1C0410A60416B3F
:1003B0000968426B526841EA0211426B926841EA55
:1003C0000221426B928941EA0241426B128A41EA60
:1003D0000251426B127D41EA0261426B9269114304
:1003E0000268521C9200A2F1C0421160C16AB1F5CC
:1003F000804F1BD1816B0968826B526841EA021100
:10040000826B926841EA0221826B128A41EA0251B0
:10041000826B127D41EA0261826B9269114302682C
:100420009200A2F1C042C2F8041107E06FF07042DE
:1004300001688900A1F1C041C1F8042170472DE98C
:10044000F04102460025002600200023002400275A
:1004500091F803C00CF00F0591F803C00CF0100CDC
:10046000BCF1000F03D091F802C04CEA050591F8E9
:1004700000C0BCF1000F31D0146800202BE04FF019
:10048000010C0CFA00F3B1F800C00CEA03069E421E
:1004900020D183004FF00F0C0CFA03F7BC4305FA90
:1004A00003FC4CEA040491F803C0BCF1280F06D108
:1004B0004FF0010C0CFA00FCC2F814C00AE091F8ED
:1004C00003C0BCF1480F05D14FF0010C0CFA00FC41
:1004D000C2F810C0401C0828D1D31460B1F800C085
:1004E000BCF1FF0F34DD546800202EE000F1080C51
:1004F0004FF0010808FA0CF3B1F800C00CEA03064B
:100500009E4221D183004FF00F0C0CFA03F7BC433D
:1005100005FA03FC4CEA040491F803C0BCF1280F6F
:1005200005D100F1080C08FA0CF8C2F8148091F813
:1005300003C0BCF1480F07D100F1080C4FF00108CF
:1005400008FA0CF8C2F81080401C0828CED354607A
:10055000BDE8F08129B1064A52690243044B5A6151
:1005600004E0034A52698243014B5A61704700001C
:100570000010024029B1064A92690243044B9A6175
:1005800004E0034A92698243014B9A61704700007C
:100590000010024030B500210022002400232D4D20
:1005A0006D6805F00C0121B1042905D0082923D17B
:1005B00005E0294D056022E0274D05601FE0254D2F
:1005C0006D6805F47012234D6D6805F480340225C2
:1005D00005EB92421CB9214D554305600BE01D4DC2
:1005E0006D6805F400351DB11C4D5543056002E0F2
:1005F000194D5543056002E0174D056000BF00BF6F
:10060000144D6D6805F0F0010909154D6B5C056826
:10061000DD4045600F4D6D6805F4E061090A104D3D
:100620006B5C4568DD4085600A4D6D6805F460517E
:10063000C90A0B4D6B5C4568DD40C560054D6D68B2
:1006400005F44041890B074D6B5CC568B5FBF3F5BC
:10065000056130BD0010024000127A0000093D0023
:100660006C0000207C00002010B500F001F810BDE7
:100670000CB50020019000903348006840F48030B1
:100680003149086000BF3048006800F40030009035
:100690000198401C0190009818B90198B0F5A06F1E
:1006A000F1D12948006800F4003010B10120009019
:1006B00001E0002000900098012843D12348006801
:1006C00040F01000214908600846006820F003004F
:1006D00008600846006840F0020008601A48406858
:1006E000194948600846406848600846406840F438
:1006F000806048600846406820F47C1048600846E6
:10070000406840F4881048600846006840F08070F7
:10071000086000BF0C48006800F000700028F9D0A5
:100720000948406820F003000749486008464068CF
:1007300040F00200486000BF0348406800F00C0031
:100740000828F9D10CBD0000001002400020024032
:1007500004480068012804D103480068401E02498B
:1007600008607047040000200000002030B51448E5
:1007700000684FF47A72B0FBF2F1481EB0F1807F4E
:1007800000D31BE0481E4FF0E022506150170F22AB
:10079000002807DA13071D0E0A4B00F00F04241F70
:1007A0001D5503E013071C0E074B1C5400BF00200F
:1007B0004FF0E02290610720106100BF30BD0000C3
:1007C0005800002018ED00E000E400E010B51348E8
:1007D000006840F00100114908600846406810496F
:1007E00008400E494860084600680E4908400B4919
:1007F00008600846006820F48020086008464068C9
:1008000020F4FE0048604FF41F008860FFF72CFFC3
:100810004FF000600449086010BD00000010024065
:100820000000FFF8FFFFF6FE08ED00E02DE9F047BD
:1008300086B004460D4616461F46DDE90F9ADDF8E0
:10084000388004208DF81700194830F81400ADF8EE
:100850001400184951F8240005A9FFF7F0FD1820ED
:100860008DF8130003208DF81200134830F814009F
:10087000ADF810000F4951F8240004A9FFF7DFFD7F
:1008800000960020ADF80C00ADF80890ADF806A079
:10089000ADF80470ADF80A806946284600F01AF8F1
:1008A0000121284600F00AF806B0BDE8F0870000F4
:1008B0000E000020080000200C00002021B18289D9
:1008C00042F40052828104E082894DF6FF731A409F
:1008D000828170472DE9F04786B005460E46002418
:1008E000A24600BFA1460027B08900B100BF2F4635
:1008F0002C8A4CF6FF700440F08804432C82AC89AB
:100900004EF6F3100440B0883189084371890843DA
:100910000443AC81AC8A4FF6FF400440B0890443E5
:10092000AC8201A8FFF736FE1F48874202D1DDF8EE
:1009300010A001E0DDF80CA0A88900F4004040B14F
:100940000AEBCA0000EB0A1031684900B0FBF1F86D
:1009500007E00AEBCA0000EB0A1031688900B0FB1F
:10096000F1F86420B8FBF0F004012009642101FBD8
:100970001089A88900F4004040B1322000EBC90082
:10098000B0FBF1F000F00700044308E0322000EB78
:1009900009106421B0FBF1F000F00F0004432C813A
:1009A00006B0BDE8F08700000038014002E008C84A
:1009B000121F08C1002AFAD170477047002001E0D9
:1009C00001C1121F002AFBD1704700000EB50121A2
:1009D0008803FFF7CFFDFFF7C9FE00200C22CDE909
:1009E000002003464FF4165209490290FFF71EFFFC
:1009F000FFF7CCFB0120FFF77FFC422201210846D4
:100A0000FFF756FC0A20FFF777FC00BFFEE7000067
:100A100000380140340A0008000000208000000077
:100A2000AC090008B40A000880000020000400009F
:100A3000BC090008000000000000000000080140A0
:100A400000020004001401400014014000140140A1
:100A50000014014000180140001801400018014036
:100A600000180140004000800100020080000001E9
:100A70000002000400140140800000000014014046
:100A800020000000001C01400100000000A24A04F8
:100A9000000000000000000001020304060708092E
:100AA0000000000001020304010203040607080914
:040AB000020406082E
:0400000508000131BD
:00000001FF
