:020000040800F2
:1000000070020020AD040008B1040008B304000829
:10001000B5040008B7040008B90400080000000097
:10002000000000000000000000000000BB04000809
:10003000BD04000800000000BF040008C10400085F
:10004000C3040008C3040008C3040008C304000874
:10005000C3040008C304000883060008A3060008C0
:10006000C3040008C3040008C3040008C304000854
:10007000C3040008C3040008C3040008C304000844
:10008000C3040008C3040008C3040008C304000834
:10009000C3040008C3040008C3040008C304000824
:1000A000C3040008C3040008C3040008C304000814
:1000B000C3040008C3040008C3040008C304000804
:1000C000C3040008C3040008C3040008C3040008F4
:1000D000C30400082B06000857060008C3040008E4
:1000E000C3040008C3040008C304000800F002F8B9
:1000F00000F04AF80AA090E8000C82448344AAF178
:100100000107DA4501D100F03FF8AFF2090EBAE875
:100110000F0013F0010F18BFFB1A43F0010318473B
:10012000241F0000441F0000103A24BF78C878C183
:10013000FAD8520724BF30C830C144BF04680C60ED
:10014000704700000023002400250026103A28BF35
:1001500078C1FBD8520728BF30C148BF0B60704739
:10016000662901F01987632900F052860020704744
:100170001FB500F06BFE04000020002101F0E4FB3D
:10018000E0601FBD10B510BD00F078FF1146FFF70D
:10019000EFFF00F021FA00F096FF03B4FFF7F2FF43
:1001A00003BC00F0E0FA00001220AE49086070477E
:1001B000AD48AE494860AE48086000BFAB48006833
:1001C00000F400300028F9D000BFA848006800F013
:1001D00000700028F9D000BFA448406800F00C006F
:1001E0000828F9D17047704745F25550A149086079
:1001F0000220486040F69F7088604AF6AA20086096
:100200004CF6CC400860704770479848C06940F091
:1002100080509649C8619848006840F480709649BB
:1002200008609248006A40F001009049086200BFEF
:100230008E48006A00F002000028F9D08B48006A5E
:1002400040F40140894908628C48008840F0100061
:100250008A4908800020091D088047F6FF70091DA3
:1002600008800020854914310880091D0880091D77
:1002700008803C20091D088001208049091F088052
:100280007F48006840F008004FF0E021C1F800010D
:100290007A48008820F010007849088000BF77482D
:1002A000008800F020000028F9D07348006820F48E
:1002B00080707149086070476C48C06940F0010067
:1002C0006A49C86100208904088542F62F20888584
:1002D000002008808880088548208885002088863E
:1002E000088705208887002066490880090608835A
:1002F00060208883881508840020088104200880F5
:10030000002088800846008840F00100088070477F
:100310005648806940F004005449886140F6043032
:10032000594908600020091D08605048806940F064
:1003300008004E4988615548554908605548091DCF
:1003400008604A48806940F01000484988610020F0
:10035000514908604FF48000486070474F4840683A
:1003600020F004004D4948604048806940F0040096
:100370003E4988614448001D006820F47F6042497E
:10038000091D08600846006840F0B0000860084693
:10039000006840F4806008603448806940F4804020
:1003A0003249886141F64C503D4908800020091DC2
:1003B0000880091D0880081F0088091F0880002088
:1003C00037490C3108803648001D008840F00C0089
:1003D0003349091D08800846008840F40050088011
:1003E0007047704770472148C06940F000601F495E
:1003F000C8610846C06940F08050C8611E48006866
:1004000040F480701C490860002026490880091DBE
:1004100008800846008840F00300088016480068FD
:1004200020F48070144908601E48001D008800F008
:10043000040038B11248006840F004004FF0E02199
:10044000C1F80001704700B5FFF7AEFEFFF7B0FE40
:10045000FFF732FFFFF75CFFFFF780FF00BD124898
:10046000704700000020024002841D00001002407E
:10047000820001010030004000700040042800406C
:1004800000E100E04000004000080140000030FFB3
:10049000000C0140004044440010014000000140B5
:1004A00008380140306C004080F9370308480047A5
:1004B000FEE7FEE7FEE7FEE7FEE7FEE7FEE7FEE714
:1004C000FEE7FEE703480449024A044B7047000078
:1004D000ED00000870000020700200207000002075
:1004E00000BF7949098801F080010029F9D0C0F3E3
:1004F0000801754A121D1180704700BF72480088BC
:1005000000F020000028F9D06F48001D0088C0F3DB
:10051000080070476D48406940F001006B49486130
:100520006B486C4948616C4808610320C86042F21E
:10053000A05088600846806840F0010088606348E9
:10054000806940F40070614988614FF4001062498D
:100550002039086040F641405F491839086040F68C
:1005600068305D493C39086088155B494839086046
:100570005A48091D08600846006840F4A000086059
:10058000704701B502E00098401E009000980028D6
:10059000F9D108BD01204D49486102204D49C8608C
:1005A0004FF0202008614E484861202088600846AE
:1005B000806840F0400088600846806840F0800015
:1005C00088600846806840F48040886008468068FB
:1005D00040F00100886070471CB5FFF734FFFFF75B
:1005E000D9FF00BFFF204FF020210860384908885C
:1005F00001F04AFB80464FF066323A4B01F058FB5F
:1006000006460022384B01F0E7F9044601F0B2F942
:10061000824601F04BFC02460B46CDE9000133A0B7
:1006200000F0E2F8DEE700BFFEE738B526480088B4
:100630000090009800F0200060B12348008820F06E
:10064000200021490880081D0088C4B221462AA044
:1006500000F0CAF838BD38B52A48008800900098E4
:1006600000F0200060B12748008820F020002549D4
:100670000880081D0088C4B2214623A000F0B4F809
:1006800038BD10B52348006800F0010040B122A039
:1006900000F0AAF81F48006840F001001D490860FA
:1006A00010BD10B51B48006800F0020050B11AA040
:1006B00000F09AF801F018F91648006840F00200BE
:1006C0001449086010BD00000038014000100240CD
:1006D00000000020000002404C24014003010E00F5
:1006E0001F20002066660A4000FEAF402520342E01
:1006F000326656200D0A0000756172742031203A6E
:1007000020256300004400407561727432203A2055
:100710002563000014040140696E20657874693017
:10072000206972712068616E646C65722E2E2E0DC8
:100730000A00000070B504460D462046FFF7D0FEC3
:1007400070BD70B50546FFF7D8FE0446FFF7C8FE3A
:1007500070BD10B504462046FFF7C2FE10BD01462D
:100760004FF0FF30704700BFFEE7000030BF70471A
:1007700020BF704740BF7047BFF36F8F7047BFF314
:100780004F8F7047BFF35F8F704701DF7047EFF304
:100790001480704780F31488BFF36F8F7047EFF3B6
:1007A0000980704780F309887047EFF3088070472D
:1007B00080F30888704762B6704772B67047EFF3EF
:1007C0001080704771B6704761B67047EFF31380C1
:1007D000704780F311887047EFF31280704740BA7A
:1007E000704700BA704770470FB4044910B503AAA8
:1007F000029800F019FB10BC5DF814FB0800002003
:1008000070B5044685690068C10601D5302600E050
:100810002026C00707D070BDD4E90121304690479B
:10082000206A401C20626D1EF6D570BD70B504466E
:1008300085690078C00707D170BDD4E90121202067
:100840009047206A401C20626D1EF6D570BD70B5C1
:100850000C460546012A05D02878800600D5EA69AD
:10086000002302E0012305E05B1C934202D2E05C1E
:100870000028F9D1A869E618C01AA861286A1844A6
:1008800028622846FFF7BCFF04E0D5E9012114F8EF
:10089000010B9047B442F8D32846FFF7C7FF70BD5D
:1008A0002DE9F05F894604464FF0000ADFF824B1D5
:1008B000FB44C0F820A02046E168884700287DD08E
:1008C000252806D0D4E901219047206A401C2062E7
:1008D000F1E700255F462046E16888472028064664
:1008E00007DB312E05D2B81910F8200C08B10543EA
:1008F000F1E7A80701D525F00405C4F81CA00027DE
:10090000C4F818A02A2E09D0304601F015F838B3E3
:1009100004EB8708303EC8F8186019E059F8041B4A
:10092000204604EB87029161E1688847012F064663
:1009300018D1E069002820DA25F020051DE0D8F85C
:10094000180000EB800006EB40003038C8F81800B3
:100950002046E1688847064600F0EEFF0028EED109
:10096000012F0AD02E2E08D12046E16888477F1C2F
:100970000646022F45F02005C4DBA069002803DAF3
:10098000404245F00105A061E80701D025F01005BF
:10099000A6B1A6F14100192802D8203645F4006519
:1009A0004A463146204625604D46FFF7D9FB60B1E7
:1009B000012807D0ED1D25F0070000E007E000F159
:1009C000080978E705F1040975E730467AE7206AF7
:1009D000BDE8F09FE8160000704770477047704709
:1009E0002DE9FF4F0C461E464FF0FF378BB0D2E982
:1009F0000001DDF860800A908A46C1F30A5505B906
:100A00003D46002108464FF00000BAF1000F00F407
:100A1000400005DA00EB80004FF4400101EA50008D
:100A20004FEA9059B9F1010F00DDB9460A9850EA32
:100A30004A000ED044F61050A5F2FF3545432F145E
:100A4000B8F1000F1ED07542291E1EDDC9F100024B
:100A50001CE0B8F1010F4FF0000001D0302103E09D
:100A6000F24305E02154401CB042FBDB304600223B
:100A7000002121540B99C1F80880C1E900200FB072
:100A8000BDE8F08FBD1B6D1CDEE74A4600DA694207
:100A900006A800F07DFA06AB93E8070003AB83E8F5
:100AA000070050460A9900F057FB8DE80700A0F5B3
:100AB00000501F3800900398002D0ADD42F21F01FC
:100AC0004A460844002303A90390684600F0C0FD8D
:100AD00009E0A0F500504A461F38002303A90390FF
:100AE000684600F0CAFD8DE807000004000C03D042
:100AF0004FF0FF30410800E01046B8F1000F03D07E
:100B00000022009215461EE0751E05D400F0A2F9E1
:100B1000303262556D1EF9D5B3460122084302D02A
:100B200000227F1C04E02078302801D100227F1EA3
:100B3000002A099784D01DE0112D07DA00F08AF908
:100B4000303262556D1C50EA0102F5D1084302D0E3
:100B50000098C8B10EE00021681E05E0235C625CCD
:100B600063542254401E491C8142F7DBAB46A81B4C
:100B7000401E0990002004F80B000B98099AC0F859
:100B80000880C0E9002B7AE711264FF0000857E7EC
:100B90002DE9F04F88460446D21D22F0070191B09E
:100BA000D1E90001CDE90A0100F0B2FE02460B983E
:100BB000C00F01D02D2007E02068810701D52B2030
:100BC00002E0202101EAC000032A099001D0072A8F
:100BD00005DB03464146204600F09AF90BE12078F8
:100BE000800601D5E06900E00620B8F1650F814676
:100BF00006D0B8F1660F18D0B8F1670F70D131E0A8
:100C00000020B9F1110F009001DB112301E009F17F
:100C100001030AAA01A90CA8FFF7E2FEDDE90C70A6
:100C2000002609F10105834647E001204B4600906C
:100C30004FF000470AAA01A90CA8FFF7D1FEDDE991
:100C40000DB00C995D46002610B909F101000D1890
:100C5000B9EB050003D4C0F1FF3609F10105A5EB9E
:100C600009002BE0B9F1010F01DA4FF00109002072
:100C7000B9F1110F0090484601DD112300E0034651
:100C80000AAA01A90CA8FFF7ABFEDDE90C704D46DE
:100C900000268346207800070AD4AB4500DA5D467B
:100CA00001A8012D04DD411911F8011C302907D0DC
:100CB0004F4502DA17F1040F04DA012082460FE0F3
:100CC0006D1EEEE7002F02DCED1B3E4403E0781CB6
:100CD000A84200DD7D1CB81B00F1010A4FF000475F
:100CE0002078000703D4AA4501DB4FF0FF3A00212A
:100CF000B7F1004F0DF143088DF8431024D00220C6
:100D00002B23002F01DA7F422D230A21021EA0F19E
:100D1000010000DC5FB197FBF1FC97FBF1F201FBF6
:100D20001C7C17460CF1300C08F801CDEEE7A8F159
:100D3000010003702188090501D5452100E06521E6
:100D4000A0F1010800F8011C09980FA9A1EB080700
:100D5000FF1D00B10120411901EBEA70A16938447F
:100D6000081A401EA0612078C00602D42046FFF772
:100D700047FD099828B1D4E901219047206A401C19
:100D800020622078C00622D52046FFF739FD1EE0FC
:100D9000002E04DBB34502DD01A8805D00E03020B9
:100DA000D4E901219047206A401C2062761CAAF1F8
:100DB00001005FEA000A0AD100F048F8C068016843
:100DC000405CD4E901219047206A401C2062281E23
:100DD000A5F10105DCDC07E0D4E9012118F8010BDD
:100DE0009047206A401C2062381EA7F10107F3DCFF
:100DF0002046FFF71BFD032011B041E610B5436903
:100E000013B1AFF3008001E0FFF721FD012010BD19
:100E1000127800F124010A7000224A700122EDE7E5
:100E200011684FF0FF32E9E7074B70B50D467B4480
:100E300000F05BF804462846FFF791FC10B14FF034
:100E4000FF3070BD204670BD03F9FFFF00487047BA
:100E50003000002030B5B0F10A024FEA900E71F177
:100E600000034EEA817EB0EB0E0061EB91014FEA88
:100E7000101E4EEA017E10EB0E0041EB11114FEAFD
:100E8000102E4EEA016E10EB0E0041EB11214FEADD
:100E9000104E4EEA014E10EB0E0041EB114140188E
:100EA00041F100014FEAD00040EA41704FEAD10120
:100EB00010EB80054FEA810444EA907444EB01048E
:100EC0006D1944EB0404521BA3414FF0000348BFCB
:100ED0000A3200D530BD401C41F1000130BD000098
:100EE00001694A1C02610878704700B58FB0CDE9EE
:100EF00001310021059105497944CDE903101146DE
:100F00006846FFF7CDFC0FB000BD0000E5FFFFFF16
:100F10002DE9F0411F46044603260168072A01F423
:100F2000006004DB08B116A505E016A503E008B1D2
:100F300015A500E015A521F010002060A069C01ED5
:100F4000A0610FB1401EA0612046FFF759FC4FB1D0
:100F5000D4E9012138469047206A401C2062C01C19
:100F6000206206E0206AFAE7D4E9012115F8010BB6
:100F70009047761EF8D22046FFF758FCBDE8F08176
:100F80004E414E006E616E00494E4600696E66002D
:100F90002DE9F047814616468AB0354878440DC899
:100FA0008DE80D0032487844801C03AC0DC884E8FD
:100FB0000D0041F69B300844372190FBF1F290FB85
:100FC000F1F5A5F1800501FB12041B3C02D564423A
:100FD000012000E00020DFF898A080460027FA44B6
:100FE000AAF1BE0A0EE0E0070AD03246684607EBD7
:100FF000470101230AEB810100F03FFB8DE8070068
:1010000064107F1C002CEED1194F7F44AE3F19E0D5
:10101000E80715D007EB04100DF1180A90E80E0050
:101020008AE80E00C068F04201D198190890324653
:10103000012306A903A800F020FB03AB83E8070007
:101040006D10641C002DE3D14FF001033246694658
:10105000B8F1000F03A802D000F0FAFA01E000F0A6
:101060000CFBC9E90001C9F808200AB0BDE8F08707
:101070008C10000000487047100000207546FFF7F4
:10108000F9FFAE4605006946534620F00700854645
:1010900018B020B5FFF716FABDE820404FF0000663
:1010A0004FF000074FF000084FF0000B21F0070150
:1010B000AC46ACE8C009ACE8C009ACE8C009ACE893
:1010C000C0098D46704710B50446AFF30080204636
:1010D000BDE81040FFF761B84FF0013C50F8042B19
:1010E00051F8043B9A4221D1A2EB0C03934313EA3B
:1010F000CC1317D150F8042B51F8043B9A4215D168
:10110000A2EB0C03934313EACC130BD150F8042B3E
:1011100051F8043B9A4209D1A2EB0C03934313EA22
:10112000CC13DBD04FF00000704700BFD01A01BADB
:10113000B1FA81F101F0180122FA01F0CB40C1F1BE
:101140002001DBB2C0B2C01A2CFA01F3D11A9143CC
:1011500011EAC311E6D170475FEA400C08BF91F075
:10116000000F4FEA8C234FEAC12243EA51514FEA64
:101170001C5018BF00F5F0404FEA300018BF41F096
:1011800000415FEA6C5C00F02980BCF1FF3F08BFC2
:1011900040F080407047130C06BF12044FF0100C53
:1011A0004FF0000C130E04BF12020CF1080C130FC9
:1011B00004BF12010CF1040C930F04BF92000CF158
:1011C000020CD30F04BF52000CF1010C11464FF07A
:1011D0000002A0F11F00A0EB0C00704711F0004FBF
:1011E00008BF704731F000413FF4D5AF0B0C06BF8C
:1011F00009044FF0100C4FF0000C0B0E04BF090255
:101200000CF1080C0B0F04BF09010CF1040C8B0F3F
:1012100004BF89000CF1020CCB0F04BF49000CF194
:10122000010CCCF12003A0EB0C0022FA03F302FA2C
:101230000CF241EA030100F10100704720F07F4CFD
:1012400080EA030023F07F47ACEB070303F57C53F0
:1012500000F0004003F1FF032DE980494FEA154BF0
:1012600009B44FEA144325EA0B4E24EA03480FF26F
:10127000042606EB132749083E785FEA320203FB97
:101280000667C7F5000707FB06F64FEA54374FEA33
:10129000D64606F1020607FB066CCCF1005C4FEA6D
:1012A0001C472CEA074C07FB06F40CFB06F504EB85
:1012B00015464FEA961634BF00204FF000404FEA23
:1012C000D13706FB07FC4FEA1C4C0CFB0BF7D21B7B
:1012D00003FB0CF761EB07010CFB0EF7B0EB0740CB
:1012E00072EB17420CFB08F734BFA2EB0742B2EBDC
:1012F000074261EB17414FEA0C444FEA910706FBA6
:1013000007FC4FEA1C4C0CFB0BF7B0EBC74072EB31
:10131000573203FB0CF734BFA2EBC742B2EBC74214
:1013200061EB57310CFB0EF7B0EBC70072EB577255
:101330000CFB08F734BFA2EBC702B2EBC70261EBAC
:101340005771039F4FEA816141EA921104EBCC048B
:101350004FEAD1374FEA826206FB07FC42EA90125D
:101360004FEA80604FEA1C4C0CFB0BF7D21B03FBCF
:101370000CF761EB07010CFB0EF7B0EB074072EBCB
:1013800017420CFB08F734BFA2EB0742B2EB07424F
:1013900061EB17414FEA8C554FEA910704EB9C240F
:1013A00006FB07FC4FEA1C4C0CFB0BF7B0EBC740ED
:1013B00072EB573203FB0CF734BFA2EBC742B2EB20
:1013C000C74261EB57310CFB0EF7B0EBC70072EB75
:1013D00057720CFB08F734BFA2EBC702B2EBC7028F
:1013E00061EB577115EB4C254FEA816141EA92118F
:1013F0004FEA82624FEAD13742EA901206FB07FCBD
:1014000044F100044FEA80604FEA1C4C0CFB0BF7E0
:10141000D21B03FB0CF761EB07010CFB0EF7B0EBE3
:10142000074072EB17420CFB08F734BFA2EB0742F0
:10143000B2EB074261EB174115EB1C154FEA813106
:1014400041EA92414FEA823242EA90424FEA8030CA
:101450004FEA0C7644F1000448EA03434EEA0B4895
:101460004FF0000EB2EB080C71EB030724BF62468D
:1014700039464EEB0E0E4FF0000B00185241494119
:101480004BEB0B0BB2EB080C71EB03077BF1000B82
:1014900024BF624639464EEB0E0E4FF0000B00188B
:1014A000524149414BEB0B0BB2EB080C71EB0307BC
:1014B0007BF1000B24BF624639464EEB0E0E51EA1B
:1014C000020718BF46F0010616EB0E7655F1000232
:1014D00054F1000103D5BDE88901BDE80088BDE8ED
:1014E0008901BDE80048B619524141EB0101A3F161
:1014F0000103704780807F7E7D7C7B7A7978777668
:1015000076757473727171706F6E6E6D6C6C6B6AE0
:101510006A6968686766666564646363626161607E
:10152000605F5F5E5E5D5D5C5C5B5B5A5A595958FB
:101530005857575656555555545453535252525165
:10154000515050504F4F4F4E4E4D4D4D4C4C4C4BBB
:101550004B4B4A4A4A494949484848474747474602
:10156000464645454544444444434343434242423E
:1015700042414141002B9C4630D477002BD01CB512
:101580004FEA370703B44FF010004FF01001BAF1E3
:10159000000F06D0BCF1000FDCBF40F0080040F0A7
:1015A00008014FF000000FBCBDE810400BF1010B2B
:1015B000BBF1010F08BF5FEA170722BF12F101025A
:1015C00011F101014FF0004143F1000300F0004030
:1015D00043EA00007047F9D35708D0E746EA0646C9
:1015E00013F1400F4FEA16461FDD13F1200FDFBF46
:1015F00016430A46002120335B42BED0C3F12007C8
:1016000046EA064602FA07F74FEA164646EA070692
:10161000C3F1200722FA03F201FA07F721FA03F1D6
:101620004FF0000342EA0702A7E746EA020646EA4D
:1016300006464FEA164646EA0106BCBF46EA06469B
:10164000360C4FF000034FF000024FF0000194E71A
:101650002DE9804C9A46934670B491E8380007C84B
:1016600031EA400C48BF34EA430C03D5FFF7E6FDEE
:10167000FFF780FFF0BCBDE8008C2DE9804C9A4656
:10168000934670B491E8380007C810F0804F08BF47
:1016900013F0804F03D100F005F8FFF76BFFF0BCAB
:1016A000BDE8008C20F07F4780EA030023F07F4CE8
:1016B00007EB0C03A3F57C5300F00040A3F1FE03FD
:1016C00092F0000F00F0B38095F0000F00F07780EB
:1016D0002DE901494FEA11404FEA144621EA00483A
:1016E00000FB06FC24EA064708FB06F607FB08F8A1
:1016F00000FB07F718EB06484CEB164C4FEA124B71
:1017000018EB07484FEA15464CEB174022EA0B4E00
:101710000BFB06FC25EA06470EFB06F607FB0EFE52
:101720000BFB07F71EEB064E4CEB164C4FF000067A
:101730001EEB074E4CEB174B18EB0B0840F100006B
:1017400018EB0E0B58EB000840F100008F1A4FF019
:1017500000013CBFC943661B14BFB5EB040C00215C
:101760003CBFC943F61B4FEA17444EEA8E0E27EAE8
:1017700004454FEA1C4704FB07622CEA074C05FBB3
:1017800007F70CFB05F604FB0CFC16EB074642EBD7
:10179000174216EB0C4642EB1C421BEB060658EBBD
:1017A0000202414146EA9E0601D5BDE80189B6190B
:1017B000524141EB0101A3F10103BDE801894FEA68
:1017C00014454FEA114724EA054621EA074C05FB78
:1017D00007F406FB07F70CFB06F105FB0CFC11EB0D
:1017E000074144EB17444FEA124711EB0C4144EB1D
:1017F0001C4422EA074C05FB07F206FB07F70CFB2B
:1018000006F605FB0CFC16EB074642EB174216EBFF
:101810000C4642EB1C456A1854F1000148BF704762
:10182000B619524141EB0101A3F10103704795F054
:10183000000F37D04FEA11424FEA144721EA02461F
:1018400024EA074C02FB07F106FB07F70CFB06F442
:1018500002FB0CFC14EB074441EB17414FEA154720
:1018600014EB0C4441EB1C4125EA074C02FB07F545
:1018700006FB07F70CFB06F602FB0CFC16EB074613
:1018800045EB174516EB0C4645EB1C42121951F17E
:10189000000148BF7047B619524141EB0101A3F165
:1018A000010370474FEA14454FEA114724EA054601
:1018B00021EA074C05FB07F106FB07F70CFB06F2D4
:1018C0004FF0000605FB0CFC12EB074241EB174101
:1018D00012EB0C4251EB1C4148BF7047921841EB90
:1018E0000101A3F1010370470748016841F00401B9
:1018F0000160016841F0020101600448016841F0A3
:1019000004010160FEF732BF0070004010ED00E0FE
:10191000490050EAC12018BF04204A0D18BF40F00A
:10192000010040F2FF72B2EB515F08BF40F00200CD
:10193000012808BF0520704730380A2801D201204D
:10194000704700207047000010B500290AD00878C1
:10195000002807D005487844FFF7BEFB002801D0D7
:10196000002010BD0248784410BD00000E070000A2
:101970000607000021F00042A2F16052B2F5801F7C
:1019800001F0004328BFD2F17F6C0BD95FEA001C45
:1019900043EAC20242EB507018BF704728BF20F0E4
:1019A00001007047B2F5801FBCBF184670474FEA70
:1019B000410C1CF5001F02D2084600F0E8BA70B5D1
:1019C00000F020FA00000089FFF7F6BF4FF000405A
:1019D000A0F58000704700002DE9C04130B4DFF869
:1019E000A0C23CEA111418BF3CEA131400F0EC80CA
:1019F00081EA03051CEA111444EAD57418BF1CEAF5
:101A0000131500F0C780A4EB05044FF0004545EA2C
:101A1000C12145EAC32341EA505143EA525304F13C
:101A20007F74994204F500344FEAC0204FEAC22285
:101A300008BF904200F09C804FEA13650FF24016F9
:101A4000765D4FEA134506FB05F7C7F1807706FB85
:101A500007F74FEAD737A7FB03687642C8F5803807
:101A6000A7FB06CE38BFA8F1010807FB08E64FF038
:101A7000000EA6FB028CE6FB03CEDCF1000CCEF1DF
:101A8000004E38BFAEF1010EA6FB0C584FF0000718
:101A90004FF00005E6FB0E87A1FB08C6A0FB07CEB2
:101AA00016EB0E0645F10005E1FB076515F1E04E6A
:101AB0007EBFA4F580345FEA46066D4116F18007CB
:101AC00045F100054FEA17274FEA066647EA056722
:101AD000A6F1DE46B6F1805F4FEA15251FD93846DC
:101AE00024F0010C05EBC471BCF1FE6F01EB0C118D
:101AF00002D8F0BCBDE8008124425CBF01F5801E25
:101B00009EEAC47F02D4F0BCBDE80081244238D4F0
:101B1000F0BCA1F1C041BDE8004100F0C1B94FEAFD
:101B2000D22242EA43524FEAD323A7FB02864FEA6E
:101B3000D02040EA415007FB03661EEA0E0F4FEA31
:101B4000D12105FB026658BFA6EB0056B6EB005646
:101B50004FEA520E4EEAC37E18EB0E0E56EB530EB2
:101B6000BDD518EB02085E417F1C55F10005B6E7B4
:101B70004FF480154FF000074FF000064FF00008BB
:101B8000ADE7F0BC4FF0000001F1C04101F00041B1
:101B9000BDE8008111EA0C1F0CEA131500D00CE01F
:101BA00013EA0C1F00F025804FF00000F0BC81EA22
:101BB000030101F00041BDE80081F0BCBDE8004137
:101BC00081EA030100F06CB9F0BCBDE8004170B5DA
:101BD00000F018F9097EFC3E00F007B881EA030125
:101BE0004FF0000001F00041704781EA030100F06E
:101BF00057B9F0BCBDE800414FF0000021497047E3
:101C0000FFFDFBF9F7F5F4F2F0EEEDEBE9E8E6E4C1
:101C1000E3E1E0DEDDDBDAD8D7D5D4D3D1D0CFCD48
:101C2000CCCBCAC8C7C6C5C4C2C1C0BFBEBDBCBB81
:101C3000BAB9B8B7B6B5B4B3B2B1B0AFAEADACAB7C
:101C4000AAA9A8A8A7A6A5A4A3A3A2A1A09F9F9E56
:101C50009D9C9C9B9A999998979796959594939308
:101C6000929191908F8F8E8E8D8C8C8B8B8A89899F
:101C70008888878786858584848383828281818022
:101C80000000FF070000F87FB0FA80F310FA03F1BC
:101C90000AD0C3F11D0303F580634FEA41504FEAB8
:101CA000035202EBD12170474FF000007047000053
:101CB000DFF848C170B51CEA111E1EBF1CEA1315DF
:101CC0009EEA0C0F95EA0C0F00F06F8081EA030486
:101CD00023EA4C134EEAD47E21EA4C1141F48011E0
:101CE00043F48013AE44A1FB024CA0FB0365AEF1AC
:101CF0007F7E361955EB0C05A1FB034C4CF100031C
:101D0000A0FB021C16EB0C06654153F100030942CF
:101D100018BF46F0010613F4007F0BD14FEA0331E0
:101D20004FEA0530340341EA155140EA16506FF08E
:101D300003020AE04FEAC3214FEAC520F40241EA58
:101D4000555140EA56506FF0020202EB2E4201EB71
:101D5000025585EACE710AD05FEA440C18BF24F020
:101D6000004450F1000041F1000120EAD47040F23B
:101D7000FE7C624500D270BDA84214BF4FF0804483
:101D80004FF04044002E08BF0024BEF1806FA8BF72
:101D9000A1F1C041BDE8704080F282804FF00000A8
:101DA00001F1C04101F0004170479EEA0C0F0CEABE
:101DB000131518BF95EA0C0F06D04FF0000081EA0A
:101DC000030E0EF0004170BD00F01CF88900013ECA
:101DD00000F007B800F009B84FEA430C5FEA5C5C1A
:101DE00008D081EA030100F05BB84FEA410C5FEADA
:101DF0005C5CF6D14FF00000014970470000FF071E
:101E00000000F87F0EF1020E2EF0030E5EF8046B58
:101E1000364205D4012A43EB030515F5001F12D8FD
:101E2000012841EB010C1CF5001F0CD80ED14FEA24
:101E3000D17C15F5001F0CEB4C0C0CF1020C08BF0B
:101E40004CEBD37C04E04FF0080C01E04FEAD37C6C
:101E50000CEB4C0526FA05F606F00706B6F1040C65
:101E600006D20EEB860CBDE870404CF0010C6047CA
:101E7000DFE80CF0090B02024FF000414FF00000C8
:101E8000A1F5002170BD19461046012851EB01044F
:101E900018BFD4F5001484BF002001F0004170BDCC
:101EA0000808A0F500114FEA3101704743004FEADE
:101EB000D30C4FEA3C0C43401FBF40070CF160516C
:101EC00013F0FE4F70471CF0006F03D100200CF0A0
:101ED000004170470CF0004343EA507010B540EAEF
:101EE000CC0000F00EF800BF000000924FEA0001A5
:101EF000FFF7D6BF4FF000414FF00000A1F50021E1
:101F000070470EF1020E2EF0030E5EF8044B2442D1
:101F100004D44FEA4102B2F17F4F11D84FEA400397
:101F2000B3F17F4F0CD80ED14FEAD07CB2F17F4F86
:101F30000CEB4C0C0CF1020C08BF4CEBD17C04E018
:101F40004FF0080C01E04FEAD17C0CEB4C0324FA73
:101F500003F404F00704B4F1040C06D20EEB840C75
:101F6000BDE810404CF0010C6047DFE80CF00708BA
:101F700002024FF00040A0F5800010BD084642006C
:101F800018BFD2F1807288BF00F0004010BDFF2161
:101F900041EAD050C0057047FEF7FABD04000008C2
:101FA000000000000000000200010000100000001E
:101FB00002400000000000A00000000005400000FA
:101FC000000000C8000000000C4000000000409C21
:101FD00000000000194000000020BCBE000000000E
:101FE00034400000BFC91B8E00000004B540000053
:101FF000504BCFD06607E2CF010000006C410000DB
:102000003E8251AADFEEA73401000000D942000051
:10201000DCB5A0E23A301F97FFFFFFFFB445000098
:10202000FD25A0C8E9A3C14FFFFFFFFFFF3F000050
:102030000000008000000000FF3F00000000008062
:1020400000000000802000080000002010000000B8
:102050002801000890200008100000206002000005
:10206000440100081C00000043000000F8FFFFFFCF
:102070000C0000000E0000000F0000002E00000009
:102080000000000000000000000000000000000050
:04000005080000ED02
:00000001FF
