:020000040800F2
:1000000098040020450100084D0100084F01000838
:1000100051010008530100085501000800000000CC
:100020000000000000000000000000005701000870
:1000300059010008000000005B010008A509000844
:100040005F0100085F0100085F0100085F01000810
:100050005F0100085F0100085F0100085F01000800
:100060005F0100085F0100085F0100085F010008F0
:100070005F0100085F0100085F0100085F010008E0
:100080005F0100085F0100085F0100085F010008D0
:100090005F0100085F0100085F0100085F010008C0
:1000A0005F0100085F0100085F0100085F010008B0
:1000B0005F0100085F0100085F0100085F010008A0
:1000C0005F0100085F0100085F0100085F01000890
:1000D0005F0100085F0100085F0100085F01000880
:1000E0005F0100085F0100085F0100085F01000870
:1000F0005F0100085F0100085F0100085F01000860
:100100005F0100085F0100085F0100085F0100084F
:100110005F0100085F0100085F0100085F0100083F
:100120005F0100085F0100085F0100085F0100082F
:10013000DFF80CD000F09AF800480047410A0008A8
:10014000980400200648804706480047FEE7FEE77F
:10015000FEE7FEE7FEE7FEE7FEE7FEE7FEE7FEE777
:10016000C10900083101000880EA010210B502F05F
:100170000043400022D04A001FD0010E01EB126163
:10018000C0F35600C2F3560240F4000042F40002ED
:10019000A0FB022000047F39140400D0401C50EA68
:1001A000124001D44000491EC2B20C0604EBD0102C
:1001B000401C4008802A02D003E0002010BD20F03F
:1001C0000100002900DA0020184310BD9623002208
:1001D000114600F01DB820F00040C10DC0F316001C
:1001E00040F400007F2901DA00207047962903DCE3
:1001F000C1F19601C8407047963988407047002980
:10020000A8BF7047401C490008BF20F0010070479C
:1002100010B4B0FA80FC00FA0CF050EA010404BFFC
:1002200010BC704749B1CCF1200421FA04F411FA52
:100230000CF118BF012121430843A3EB0C01CB1D96
:100240004FEA00614FEA102042BF002010BC704707
:1002500000EBC35010440029A4BF10BC7047401CE1
:10026000490008BF20F0010010BC7047064C074D44
:1002700006E0E06840F0010394E807009847103476
:10028000AC42F6D3FFF758FFAC620208CC6202081A
:100290002DE9F0410246002500260020002300241D
:1002A000002791F803C00CF00F0591F803C00CF083
:1002B000100CBCF1000F03D091F802C04CEA050508
:1002C00091F800C0BCF1000F31D0146800202BE081
:1002D0004FF0010C0CFA00F3B1F800C00CEA030671
:1002E0009E4220D183004FF00F0C0CFA03F7BC4361
:1002F00005FA03FC4CEA040491F803C0BCF1280F92
:1003000006D14FF0010C0CFA00FCC2F814C00AE050
:1003100091F803C0BCF1480F05D14FF0010C0CFA65
:1003200000FCC2F810C0401C0828D1D31460B1F8FA
:1003300000C0BCF1FF0F34DD546800202EE000F156
:10034000080C4FF0010808FA0CF3B1F800C00CEAF1
:1003500003069E4221D183004FF00F0C0CFA03F7E5
:10036000BC4305FA03FC4CEA040491F803C0BCF159
:10037000280F05D100F1080C08FA0CF8C2F8148017
:1003800091F803C0BCF1480F07D100F1080C4FF001
:10039000010808FA0CF8C2F81080401C0828CED3D7
:1003A0005460BDE8F081416170470161704770B5EC
:1003B00004460D46A1B2202000F0F8F9A9B2212090
:1003C00000F0F4F970BD000010B50121042000F028
:1003D00065FA0121202000F061FA0121402000F09F
:1003E0005DFA0121802000F059FA0121080200F095
:1003F00055FA1020A049C87003208870002413E02B
:100400009E4830F814009C4908809D4951F824000A
:100410009949FFF73DFF994A32F81410984A52F86B
:100420002400FFF7C0FF641C102CE9DB954800880E
:100430009149088094480068FFF72AFF9148018895
:1004400091480068FFF7B1FF904800888A4908800A
:100450008F480068FFF71CFF8C4801888C480068B3
:10046000FFF7A3FF8B480088834908808A4800680B
:10047000FFF70EFF8748018887480068FFF795FF60
:10048000864800887C49088085480068FFF700FF9F
:100490008248018882480068FFF787FF814800880A
:1004A0007549088080480068FFF7F2FE7D480188A2
:1004B0007D480068FFF779FF0121002000F076F900
:1004C0004FF48071012000F071F94FF4E0610220D7
:1004D00000F06CF941F23001032000F067F90021CF
:1004E000042000F063F940F20221082000F05EF9D8
:1004F0000021092000F05AF900210A2000F056F9E5
:1005000000210C2000F052F900210D2000F04EF9DE
:1005100000210F2000F04AF90021102000F046F9D8
:100520000021112000F042F90021122000F03EF9D4
:100530000021132000F03AF941F2B071102000F0D0
:1005400035F93721112000F031F94FF49C71122058
:1005500000F02CF94FF4B851132000F027F90D21C9
:10056000292000F023F90021202000F01FF90021AC
:10057000212000F01BF90121302000F017F940F292
:100580000661312000F012F94FF44171322000F081
:100590000DF940F20221332000F008F940F2022167
:1005A000342000F003F940F20311352000F0FEF88A
:1005B00040F21D11362000F0F9F840F204413720D6
:1005C00000F0F4F840F20441382000F0EFF840F277
:1005D0000441392000F0EAF84FF4E0613C2000F0DB
:1005E000E5F840F61F213D2000F0E0F80021502002
:1005F00000F0DCF8EF21512000F0D8F80021522063
:1006000000F0D4F840F23F11532000F0CFF84FF43F
:100610001C51602000F0CAF80121612000F0C6F8EA
:1006200000216A2000F0C2F81021902000F0BEF8EE
:100630000021922000F0BAF80321932000F0B6F8D0
:1006400040F20111952000F0B1F80021972000F050
:10065000ADF80021982000F0A9F82121072000F032
:10066000A5F83121072000F0A1F840F2731107200E
:1006700000F09CF810BD0000080000204C00002095
:100680000C000020700000206C000020780000208A
:1006900074000020800000207C00002088000020E2
:1006A00084000020900000208C0000202DE9FF5FD6
:1006B00005460026B146287F029095F80A800298E8
:1006C000182845D100243FE008EB0400285C039083
:1006D00066B90398FFF77AFD33490090FFF744FDB0
:1006E0000190FFF778FD00F0FF0A1BE0012E0CD10E
:1006F0000398FFF76BFD2C490090FFF735FD019043
:10070000FFF769FD00F0FF0B0CE0022E0AD1039801
:10071000FFF75CFD24490090FFF726FD0190FFF7ED
:100720005AFDC7B2701CC6B2032E0CD1B94649EAB5
:100730008B1949EA0A301FFA80F94946222000F055
:1007400035F80026B146641CB4F5613FBCD329E0FE
:100750000298102826D1002421E008EB0400401C58
:10076000285C00F0F80A08EB0400285C410908EB5B
:100770000400401C285C00F0070041EAC00B08EBB5
:100780000400285C00F01F074FEA0A2949EA4B19C8
:1007900049EA07094946222000F008F8A41CB4F5EC
:1007A000163FDAD3BDE8FF9F0000EA4270B5054668
:1007B0000E463248018832480068FFF7F4FD3148A0
:1007C000018831480068FFF7EEFD30480188304865
:1007D0000068FFF7E8FD002415E00120A040284054
:1007E00040B12C4A32F814102B4A52F82400FFF77B
:1007F000DCFD07E0274A32F81410274A52F824009B
:10080000FFF7D1FD641C102CE7DB2048018820484D
:100810000068FFF7CAFD1B4801881B480068FFF706
:10082000C4FD1A4801881A480068FFF7BCFD00247F
:1008300015E00120A040304040B1164A32F81410B3
:10084000154A52F82400FFF7B0FD07E0114A32F8CC
:100850001410114A52F82400FFF7A5FD641C102C57
:10086000E7DB0A4801880A480068FFF79EFD034855
:10087000018803480068FFF798FD70BD70000020F4
:100880006C00002078000020740000208000002010
:100890007C0000204C0000200C00002029B1064AFA
:1008A00092690243044B9A6104E0034A92698243CD
:1008B000014B9A61704700000010024010B500F033
:1008C00001F810BD0CB5002001900090334800687D
:1008D00040F480303149086000BF3048006800F4BF
:1008E000003000900198401C0190009818B90198C0
:1008F000B0F5A06FF1D12948006800F4003010B1C4
:100900000120009001E0002000900098012843D1D0
:100910002348006840F0100021490860084600683C
:1009200020F0030008600846006840F002000860FC
:100930001A484068194948600846406848600846B7
:10094000406840F4806048600846406820F47C10AD
:1009500048600846406840F48810486008460068CF
:1009600040F08070086000BF0C48006800F0007024
:100970000028F9D00948406820F003000749486082
:100980000846406840F00200486000BF03484068E5
:1009900000F00C000828F9D10CBD00000010024046
:1009A0000020024004480068012804D10348006880
:1009B000401E02490860704704000020000000202B
:1009C00010B51348006840F001001149086008465E
:1009D0004068104908400E494860084600680E49C2
:1009E00008400B4908600846006820F48020086031
:1009F0000846406820F4FE0048604FF41F008860FD
:100A0000FFF75CFF4FF000600449086010BD000074
:100A1000001002400000FFF8FFFFF6FE08ED00E0C6
:100A200002E008C8121F08C1002AFAD170477047B7
:100A3000002001E001C1121F002AFBD17047000015
:100A4000FFF7C2FC41F238010320FFF7AFFE06E0DA
:100A500000210846FFF7ABFC0148FFF727FEF7E748
:100A6000640A0008424D465802000000000046009B
:100A70000000380000004001000010FFFFFF0100EF
:100A800010000300000000580200C40E0000C40E55
:100A90000000000000000000000000F80000E00777
:100AA00000001F000000000000002F8479CEBDF779
:100AB000BCEFDCEFBCEFBCEFBCEFBCF7BCF7BCF7A6
:100AC000BDF7DDF7DDF7BDF7BCF7BCF7BCF7BDF749
:100AD000BDF7BCF7BCF7BCF7BCF7BCF7BCF7BDF77C
:100AE000BCF7DDF7BDF7BDF7BCF7BCF79CEF9CEF9B
:100AF0009CEFBCF79CEF9CEF7BEF7BEF9CEF9CEFB8
:100B00007BEF3BE7FADED9D678CED5B553A5D19C9D
:100B1000708C0E7CAD734B630A5BA952684A4842E5
:100B2000473A073AE631E631C631C631C631C631F9
:100B3000E631E631C631A531A52964296421642155
:100B40004421642144214421642185298529852962
:100B50006429642164216421642164216421642165
:100B6000642164216421642164216421852185211B
:100B70008521852185216421642185218521852187
:100B80008521842164216419642144214421442164
:100B900044214421442144214421642164216421CD
:100BA00064214421442144214421442144214421FD
:100BB0004421432143212321442124212421242190
:100BC000242124214421442144214421442144213D
:100BD0004421442124212419241924190319031917
:100BE00003190319E318E318E318E318E318E310F3
:100BF000E310E318031903192419241924212419D3
:100C00000319031903190319031903190319E31825
:100C1000E318E318E318E318E318E318E318E31004
:100C20000311E318031903190319031923192319CD
:100C300003192319031903190319031903190319B4
:100C40000319231923192319031923192319231904
:100C5000432124212421242124212521242124214C
:100C600005210421042104212421252125210521F8
:100C7000252104210421042104210421042104212B
:100C80002421242124212421242124192419231955
:100C90000319031903190319031903190319031974
:100CA0002319442144214421442164214421442125
:100CB00064216421852985298529A529A529A529B6
:100CC000C531C531C531C631C531E631063A273A9D
:100CD0006842A94AEA522B5B8D6B2F84B194339DF5
:100CE00094AD36BE98CEF9D65ADF5ADF5AE77BE785
:100CF0009BE79BE79CE79BE79BE79BEF9CEFBCEFA9
:100D0000BCEF9BEF9BEF9BEF7BE77BE77BEF7BEF02
:100D10007BEF7BEF7BEF7BEF7BEF7BEF7BEF7BEF83
:100D20007AEF7AE77AE79BE7BBE7FFFFDDF7BCEFF7
:100D3000DCEFDCEFDCF7DCF7BCF79CEFBCF7BCF7D3
:100D4000BCF7BCF7BCF7BDF7BDF7BCF7BCF7BDF708
:100D5000BCF79CEFBCF7BCF7BCF7BCF7BCF7BCF723
:100D60009CEFBCF7BCF7BCF7BCF79CEF9CEF9CEF8B
:100D70009CEF9CEF9CEF7CEF7BEF7BEF5BE71ADF58
:100D8000FADE78CEF6BD94AD129D2F84AD732B6341
:100D9000C952884A684A48422742E639E631C63194
:100DA000A531C531A529A529A529A529C531C63152
:100DB000C631A529852985298529642164216421D5
:100DC000442164214421642164218529642964210A
:100DD000642964216421641944214419441944217B
:100DE00044214421441944194421442164216421AB
:100DF0006421852164216421852185218521852126
:100E00008521852164216421442144214421232119
:100E100044214421232144214421442144214421CB
:100E20004421442144214421232123192319231936
:100E300023192319231923212421241924192421B6
:100E40002421241924212421442144214421442102
:100E500044212421242124210319031903190319EE
:100E6000E310E318E310E310E3180319031903195F
:100E7000031903192419241924212421442144216C
:100E800044212421241924192421031903190319A5
:100E90000319E31803190319031903190319031993
:100EA000E318E31803190319031903192319231964
:100EB00023190319231923192319031903192319B2
:100EC0002319231923192319231924212421242127
:100ED0004421242124212419041903190419041973
:100EE000E318E318E318E318E31803190319E318E8
:100EF000E318E318E31803190319E3180319041995
:100F0000041924210421242124212419241923191A
:100F100023190319031903190319031903190319D1
:100F20000319242123192319442144212421242194
:100F30004421442164216421652185298529A4292E
:100F4000A5298429A529A529842985298529A529B3
:100F5000C631E639273A4842894A0B5B6C63EE7327
:100F6000908C53A5F6B577C6D9D63ADF5ADF9BE702
:100F70009BE79CE79BE79BE79BE77BE77BE77BE7C0
:100F80007BE77BE79BE79BEF9BEF7BE77BE77BEFD9
:100F90007BEF9BEF9BEF7BEF7BEF7BEF7BEF7BEFC1
:100FA0007AEF7AE79BEF9BEF9BEFBCEFBCEFBCEFD8
:100FB000BCEFBDEFDDEFDDF7DDF7DDF7BDF7BCF72B
:100FC000BCF7BCF7BCF7BCF7BDF7BCF7BCF7BCF788
:100FD000BCF79CEF9CEF9CEF9CEF9CEF9CEFBCF769
:100FE000BCF79CEF9CEF9CEF9CEF9CEF9CEF9CEF81
:100FF0009CEF9CEF9CEF9CEF7CEF5BE71ADF98CEB9
:1010000016BE74ADF19C4F84CD732B63C952884AD0
:10101000474227420742063AE639A5318529852904
:10102000A529A529A529A529A529A529A529A52950
:10103000A529A52985296429642164214421442105
:1010400044214421642164216429642164216421B0
:101050004421442144214421442144214419441978
:101060004421442144214421442144214421642138
:1010700085216421642164218521852185218521A3
:1010800085218521842164214319232123192319D2
:1010900023192321231923194421442144214421C4
:1010A0004421231923212321231923192319231927
:1010B00023192319232143214319242124212419ED
:1010C0002419242124192421442144214421442188
:1010D000442124212421241924190319E318E31895
:1010E000E310E310E310E31803190319241924197A
:1010F0002419031924192421442144214421442181
:101100004421442124212421242124212419241987
:10111000041904192419241924212421242124190F
:10112000231903190319031903192319231923195F
:10113000031923192319231903192319231903192F
:1011400003192319231923192319242123192421CD
:1011500044212321231923192319031903190319DE
:101160000311E310031103110311031903190319E8
:101170000319031103110319E3100319E3180319E9
:10118000231923192319241924214421441923192B
:10119000442124192321231923192421242123192B
:1011A000231923192319231923192319231923195F
:1011B0002319442144214421442164298429842978
:1011C000842984298429642164216421842985292E
:1011D000A529C631E631073A4842A94AEA526C636A
:1011E000EE73D19474AD16BE97C6F9D65ADF7BE77D
:1011F0007BE77BE77BE77BE79BE77BE77BE75BE7DF
:101200005AE75AE75AE77BE77BE77BE79BEF9BEFE1
:101210009BE79BE77AEF7BEF7BEF9BEF9BEF7BEF0F
:101220007AEF7AE79BEF9BEF9BEFBCEFBCEFBCEF55
:10123000BDEFDCEFDDF7DDF7BDF7BDF7BCF79CEFE9
:101240007BEF7BEF7CEF9CEFBCF7DDF7DDF7DDF7A5
:10125000DDF7BDF79CEF9CEFBCF7BCF7BCF7BCF724
:101260009CEF9CEF9CEF9CEF7BEF7BEF9CEF9CEF68
:101270007BEF7BEF3AE7FADEB9D657C6B4B5129DDD
:10128000708CAD734B63EA5AA9524742073AC63194
:10129000A531A531853185318531A531A531A531FE
:1012A000A529A529A529A529A631A531A529A529BD
:1012B000A529852985296429852964296421642132
:1012C000642164216421642164296421442144212E
:1012D00023192319231944192319231923194419EC
:1012E00044194421642164216421852185216421DC
:1012F00064216421642164216421642164216421C6
:101300006421642144212319231903190319231982
:10131000031923192319231923192319231923190D
:10132000031923192319031923190319231923193D
:101330002319232123212321241944214421442139
:10134000242144212421442144212421241924211D
:101350002421031903190319E318E318E318E31808
:10136000E3180319E318E318E318031924192419DF
:101370002419241924212421242124212421442135
:1013800044214421442144214421242124192419A5
:1013900024212419242144214421242144214421AD
:1013A000431923192319231923192319242124212B
:1013B0002421231903190319031903190319031904
:1013C00003190319031903190319231923192319DD
:1013D0002319241924192319231923192319231133
:1013E00003110311021102110311E210E310E310C3
:1013F0000311021102110311031123110211231110
:1014000023192319231923192319231924212421EA
:101410002421442144216421442164216421642144
:10142000442144214421242124212319031903198F
:10143000031923192319231944214421432143214A
:1014400043214321432143214321642164218429F1
:1014500085298529A529A631C631073A4842A94AD6
:101460000A5BAD6B4F84B194329DD4AD36BE77C666
:10147000D8CEF9D619D73ADF5ADF7BE77BE77BE78F
:101480007BE77AE77BE77BE79BE79BEF9BE79BEFBD
:101490009BEF7BEF9AE79AE79AEF7BEF7BEF7AEF90
:1014A0007AEF9BEF7AE77AE79AE71BDF1ADF1ADF1A
:1014B0001AD71ADF3ADF3ADF1ADFFADEF9DED9D6B9
:1014C000D9D6D9D6D9D61ADF3AE75BE77CEF9CEFBD
:1014D0009CEFBCF7BCF7BCF7BCF79CEF9CEF9CEF14
:1014E0009CEF9CEF9CEF7CEF7CEF7BEF7BEF5BE76F
:1014F0003BE7D9D698CE57C6D5B5129D908CEE7BDA
:101500004B63C952684A4742073AE639C631A531AA
:10151000A531A53185318529852985298531A631D2
:10152000C631C631C631C631A529853185298529FF
:101530008529852985298529852985296429642185
:1015400064216421642164216429642144212321CC
:101550002319031923192319231944194419441968
:1015600044216421642165218521852185218521EE
:101570006421642164216421442164216421642163
:10158000441923192319231903190319231923199A
:10159000231923192319231923192319231923196B
:1015A00023190319031923192319031903190319FB
:1015B00023192319231923192419442144214421CF
:1015C000242144214421442144212421242103199C
:1015D00003190319E318E310E318E310E310E31809
:1015E0000319E318E3180319E3180319031903197E
:1015F00024190319241924212421442124212421DC
:1016000044214421442144212421031903190319AD
:1016100003192319241924192421242124212421E4
:1016200024212421231923192321242124212319AE
:1016300023192319031903190319E210E3180319D5
:10164000E3180319031903190319031903190319DB
:101650002319231923194319441943192319231949
:10166000231923192319031123110319031103113A
:101670002319231923190319031123190311031122
:1016800023192319231123112311031903192319D2
:1016900023192421442164216421642164216421CB
:1016A000642144214421442144212319231923196D
:1016B000231903192319231923192421442144210F
:1016C0004421432144214421442164216529652981
:1016D0008529652985298529A531E631073A4842BA
:1016E000894A0A5B6C63AD6BEE73908C129D93A577
:1016F000F5AD56BE97C6B8CEF9D65ADF5ADF7BE7AE
:101700007BE77AE77AE77BE77BE77BE77BE77BE7CB
:101710007BE79BEF9BEF7BEF9BEF9BE79BEF9BEFC9
:101720007AE77AE77AE77AE77AE774A553A533A5EB
:10173000339D339D329D129D129DF29C129DF29C11
:10174000F19CF29C32A553A573ADF5BD77CEF9DEC1
:101750007CEFDDF7DDF7DDF7DDF7BCF7BCF7BCF7B5
:101760009CEF9CEF9CEF9CEF7BEF5BE73AE7F9DEA9
:10177000B8D636C6B4B533A59194EE7B6C6BEA5AF5
:10178000884A48420742E639E639C631C531C63192
:10179000C631C631C631A631C531A631C631C631D2
:1017A000A631A531A529C631C631A5298529A52986
:1017B000A529852985298529852985298529852999
:1017C0006429642164216429642944214421442139
:1017D00044212319231923192319231924214421CE
:1017E0006421442144216421642164216421642111
:1017F00044216421442144214421442144194419B1
:10180000231923192319231923192321442144219E
:1018100044214421442144214421442123212319EA
:101820002319231923192319031903190319031958
:10183000031903192319231923194421442144218D
:101840004421442144212421442124212419031921
:10185000E3180319E318031903190319E318E3182C
:10186000E310E310E318E318E310E310E310E318C8
:1018700003190319031924192419442124212421AB
:101880004421442144214421241903190319031933
:10189000031924190319241924192419241924219A
:1018A000242124212421442144212319031903192B
:1018B0000319031903190319031903190319E31869
:1018C000E318031903190319031903190319031959
:1018D0000319031923192319231943194319431908
:1018E00023112311231123112311431943194419DF
:1018F0006419441944194319231123112311231185
:10190000031123112311031903190319231923198F
:10191000242144214421442144216421642164215F
:1019200064214421442144214421242123192319E1
:1019300023192319231903192319231923192319E7
:101940004319242124214421442164216521652156
:101950006529652965298529A529A631E631073A32
:1019600048426842A94AE9522A5BCD732E7C6F84B3
:10197000F194529DD4AD36BE97C6F9D619D719D772
:1019800039DF5ADF5ADF7AE77BE75AE75AE77AE727
:101990007BE77AE79BE79BEF9BEFBBEF9BEF9BEF30
:1019A0009BEF7AE77AE79AE79AE70E7C0E7C0E7453
:1019B000ED73CD6BAC6BAC6BAC6BAD738C6B6B6B5D
:1019C0006B6B6B6B6C6B8C6BAD734F84D19473AD25
:1019D000F5BD57C698CEB8D6D9D6FADE1ADF1ADFCB
:1019E0003AE73BE73BE73AE71ADFD9D677CEF6BDD1
:1019F00074ADD1940F848C6B2B63884A4742063AAE
:101A0000C631A531A531C631C639C631C631C63158
:101A1000C631A631A631A631A631A531A531A531F1
:101A2000A53185298529852985298529852985291E
:101A300085298529852964296429852964296421C2
:101A4000442144214421442164216421442144212E
:101A5000442144212321242144214421442144219F
:101A6000442164216421642144216421642164218E
:101A70006421442144214421442123192321232189
:101A800023212319241924194421232144214421E9
:101A900044216421642164214421442144212321DF
:101AA00023192319031903192319031903192319D6
:101AB00023192319231923212421242144214421DA
:101AC000442144214421442144212421241924195E
:101AD0002421242124190319241924190319031971
:101AE00003190319E318E310E310E318E318E318EC
:101AF000E318E318031903190319241924212421D5
:101B0000241944214421442144212419241924194D
:101B100024190319031903190319031903190319C4
:101B20000319241923192319231903190319031954
:101B3000E318031903190319E318E3180319031928
:101B400003190319031903190319E318E3180319F7
:101B5000031903190319031103112311231123116D
:101B6000231103110311231123114419641964195A
:101B70006419641964194419441943194319231940
:101B800023114311231923192319031903190319C5
:101B9000231923194421442144214421442144216F
:101BA00044216421642164214421442144214421AD
:101BB00044212421231903190319031903190319B3
:101BC00003192319231944212421442144214421A8
:101BD0006521652145216521652965298529A5316D
:101BE000C631E631063A273A4742C952EA5A4B5BB8
:101BF000AC6B4E7CB0843195B3A515B656BEB8CE4D
:101C0000F9D639DF3ADF5ADF7ADF7BE77BE77BE71C
:101C10009BE79BE79BEFBBEFBBEF9BE79BEF9BE754
:101C20007AE79BE79BE79BEF9BEFED73ED73ED731B
:101C3000ED73CC6BAC6B8C6B8C634B634B634B6306
:101C40004B636B6B6B6B6B6B6B6B8C6BAD73ED7B0F
:101C50000E84908CD194129D53A594ADD5B516BE2B
:101C600057C678CE98CE78CE77CE36C6B5B513A502
:101C7000908CEE7B4C63EA5A894A2742073AE63950
:101C8000C531A531A531A5318531A531A531A531A4
:101C9000A5318529852985298529652985296429ED
:101CA0006429642165298529852964296429652990
:101CB00064216421642164218529642164216421D3
:101CC000442144214421442144216421642164218C
:101CD00044214421442144214421442144214421DC
:101CE00044214421442144214421442144214421CC
:101CF00044214421242124212421032103212319C7
:101D00002319242123212321232144214421442157
:101D100044216421442144214421442123192319CD
:101D200023192319231923192319231923192319D3
:101D300023214319432144214421242144214421C6
:101D4000242144214421442144214421442144218B
:101D50004421242124214421442124212421241903
:101D6000241903190319031903190319E318E318B4
:101D7000E318031903190319031924192419241941
:101D80004421242124212421242103190319031986
:101D900003190319031903190319E318E318E318C6
:101DA0000319E318E318E318E318E218E310E31843
:101DB0000319031903190319031903190319031943
:101DC0000319031903190319031903190319E31854
:101DD000E310E218E310E3100311031103110311E0
:101DE0000311031103110319231923194419441969
:101DF00044194421441944194419441944194319F4
:101E000024194419431943192319031903192319D0
:101E10002319231924212421441944214421242154
:101E200044214421442144214421442144212421AA
:101E30002319231923190319031903190319031962
:101E40000319231923192319241944212421452175
:101E50004521442145216529852985298529A529EB
:101E6000A631C631E631063A063A6742884AC95277
:101E70000A536B63CC6B2E7CD08C73A5F5AD56BE2C
:101E8000B8CE19D739DF5ADF5ADF7BE79BE79BE7EC
:101E90009BE79BE79BE79BE79BEF9BEF9BE79AE723
:101EA0007AE77AE79AE79BE79BE7ED73ED73ED73CB
:101EB000CC73AC6B8C6B8B636B634B632B634B632F
:101EC0004B634B634B636B6B6B6B8C6B8C6B8C6B77
:101ED0008C73AD73EE7B0E844F8CB094D194F19CD7
:101EE00032A553A553A532A5129DD1944F84CE732C
:101EF0004C6BEA5A894A48420742E639C631A53155
:101F000085298529852985298529A531A531A531E9
:101F1000A531A6318531852965296429652944299A
:101F20004421442144214421442164216421642129
:101F30006421642164216421642164216421642179
:101F40004421442144214421442164216421642109
:101F500064214421642164214421442144214421F9
:101F60004421242124214421442144214421442189
:101F70004421442124212321031903210321032186
:101F800003212421232123214421442144214421CC
:101F90006421442144214421442123192319031994
:101FA0000319031923192319231923194319442148
:101FB000442144214421442143192319442144212B
:101FC00024214419241924192421442124194421A9
:101FD0004421442124212419442144212419241971
:101FE00023190319231903190319031903190319D1
:101FF000E318E31803190319031903192419241901
:10200000241924212419241924210319031903193B
:102010000319E3180319031903190319E318E31843
:10202000031903190319E318E210E3100319031944
:10203000E310E21003190319031903190319031913
:102040000319031903190319E2180319E318E31814
:10205000E318E310E3100311E3100311031103115C
:10206000E3100311E3100311031124192419441977
:102070004419241944194419441944194419441998
:102080002419241924192319231903112319231995
:1020900003192319231923192319231923190319A0
:1020A000031923192421242123194421242123192C
:1020B00023192319231903190319031903190319E0
:1020C00003192319231923192419442144214521D3
:1020D000242124214421652144216521652165298C
:1020E0008529A529C531E631E631263A473A6742C6
:1020F000C94A4A538B63CD6B4E84119593A5F5B5B0
:1021000077C6D8CE19D739D75ADF7ADF7BE77BE796
:102110007BE79BE79BE79BE79BE79BE79BE79BE7CF
:102120007AE77AE77AEF7AE77AE78C6B8C6B8B6BDE
:102130008B6B8B6B6B634B634B638C6B6C6B6B6BE5
:102140006B634B634B634B634B636B6B6B6B4B6BA7
:102150004B634B634B6B6B6B8C6B8C6B8C6B8C6BBB
:102160006C6B6B6B4B6B4B632A63EA5AC952895297
:10217000484A2742073AE639C631C631A531852992
:102180008529A531A53185318529A531A531A6310E
:10219000A631C631A63185316529652944294421F6
:1021A00044214421442144214421442164216421C7
:1021B0004421642164216421642164216421442137
:1021C000442123192319232144216421442164211A
:1021D0006421442144214421442124212421232118
:1021E0000319232124212421232144214421442192
:1021F000242124212319031903190319031923196D
:102200002419442144212421242124214321432130
:10221000442143212319231903190219031903190E
:10222000E210021903190319231923192321442148
:1022300044214421242123192421442144212421FF
:102240002421241924192419031903190319031922
:10225000231924192419031903190319031904193B
:1022600024190319031904192419241923192419E9
:102270002421242124192419242124212419231957
:1022800024190319031903190319E318E318E318B0
:102290000319E310E318E318E318E310E318031934
:1022A000031903190319031903190319E318E31890
:1022B000031903190319031903190319E310E31090
:1022C000E218E318E310E3180319E31803190319DC
:1022D00003190311E310E310E310E310E310E3101C
:1022E000C310E310C310E310E31004190419041918
:1022F0000419E31004190419041904190419041920
:10230000E4100419E310E310E3100319031903198F
:1023100003190319031903190319031903190319DD
:102320000319E318031903190319031903190319EE
:1023300023190319031923192319231923192319FD
:102340002319231924212421242124214421442137
:102350004521452144214421442124214421442173
:1023600065218529A529A529C531E531063A273AF0
:102370008742C94A09536A5BCC6B8F84119593A538
:10238000F5AD56BEB7C6F8CE39D73ADF5ADF5ADFB9
:102390005ADF5ADF7AE77AE79AE77AE77AE79AE745
:1023A0007AE79AE79AE77BEF9BEF8B638B638B630C
:1023B0008B636A636B636B636B634B634B634B63EE
:1023C0004B634B636B636B6B6B6B6B6B6B6B4B63DD
:1023D0004B634B634B634B632B634B634B634B63AD
:1023E0002B632B630A5BEA5AA952684A484A474260
:1023F0002742073AE639E639C631C631C531A5313B
:10240000A5318531A53185318529852985298529FC
:1024100085318531852965294529442924212421AF
:102420002421242144216421442164296421642934
:102430006429842984298429642944294421442144
:1024400043214321442144214421642964296429EE
:102450006429442124212421242103190319031967
:10246000031903192319242124214421442144213F
:102470004421442124212321031903190319031999
:102480000319031924214421442123212421242137
:10249000242124210321031903190319E318E31844
:1024A000E3180319031903190319242124212421F2
:1024B00024212421242124214421242124212421D4
:1024C000042103190319031903190321032103210B
:1024D00004212421031903190319031904212421B8
:1024E0000421242124212421242104212421242104
:1024F00024212421242124212421242124212421B4
:102500002419031904190319E318E318C318E3186D
:10251000E318E310E318E3180319E318E3180319A9
:1025200003190319E31803190319E318E318E3184F
:10253000E318E318E31803190319E318E318E31881
:10254000E318C318E310E318E318C310E318E31803
:10255000E318C318E318C310C310E310E310E3102B
:10256000E318E318E310E310E318E318E310E318AB
:10257000E318E310E318E318E318E318E31803196A
:102580000319E310E310E310E31803190319031907
:10259000E318E318031903190319E318E318E31800
:1025A000E310E318E310E310E31803110311031918
:1025B0000311031903192319241924192419242197
:1025C0002421442124214421442144214521452121
:1025D0004521442144214421442124212421442112
:1025E000442165216521852985298529A531C531A4
:1025F000E631263A6742A84A0A53CC6B4E7CB08C2F
:102600001295B4A515B677C6B8CEF9D619D739DF65
:1026100039DF5AE77AE77AE77AE79BE79BE79AE7B9
:102620009AE77AE79AE79BE79BE78B5B6B5B6A5BD2
:102630006A5B6A5B6A5B6A5B4A5B6B5B4B5B4B63C7
:102640006B636B634B636B636B634B5B4A5B2A5BD4
:102650000A5B0A5B0A5B0A5B0A5B0A5B0B5B0B5B50
:10266000EB5ACA52A952894A484A2742073A063ABF
:10267000E639073AE639E639E639E639E639C63168
:10268000A631853185298529652965296529652929
:102690006529452945294421442145212421242116
:1026A0002421442944296429642164298529852910
:1026B0008429852964296429642964296429442991
:1026C00044296429642964296429642964294429E2
:1026D0004321232123212419231903190319031941
:1026E00003190319031923212421442144214421DE
:1026F0004421442123210319031903190319031940
:1027000023190321231923192421242124212421DD
:102710002321242124210421232103210319031926
:102720000321032123212421242124214421442184
:102730002421242124212421242124212421242171
:102740000321042104210421042104210421042162
:10275000242104210319031903190321032124212E
:1027600024214421442144214421242124212421C1
:102770002421242124212421242124210421042171
:10278000041904190419E318C318C310C310C310A3
:10279000C310C310C310C318C318E318E318E31819
:1027A000E318E318E318E318E318E318E318E31851
:1027B000E318C310C318E318E3180419E318E31867
:1027C000E318E318C310C310C310E318E418E418A7
:1027D000E318C310C310C318E318C318C318C310F9
:1027E000C310E318E318E318E318E318E318E31839
:1027F000C310E318E318E318E318E318E318031908
:10280000E318031904190419E31803190319E31849
:102810000319E318E318E318C318E318C318E318FF
:10282000E318E310E310E310E310031103110311A5
:1028300003192319031923192419231924192421ED
:10284000442145214521442144214421442144215E
:102850002421442124212421241924212419242140
:10286000442164216421642165296429642964293F
:102870008429A529A531C6310742894A0A5B6C6BB8
:10288000EE73918C339D94ADF5B557BE98C6D9CEF5
:10289000F9D63ADF5AE75BE77BE77AE77AE77AE748
:1028A0007AE77AE79BE79BE79BE78B638B636B5B3E
:1028B0006A5B6A5B6A5B4A5B4A5B2A5B2A5B2A5BF0
:1028C0004A5B2A5B2A5B0A530A5BE952C952C95226
:1028D000A952A952A952A952A95289528852884A8A
:1028E000894A684A484227420742E639E639E639CA
:1028F000E639C631C531A531C531A531A631A5317D
:10290000A531652965296529652944296429652931
:1029100045294529442144214421242124212321DE
:10292000442143214421442164298429852985297E
:10293000853185318529852985298429642964295A
:10294000442144214429642944292321232123218A
:1029500023212321232123190319231903190319DF
:102960000319E318031923212421232124212421DD
:1029700024212321031903190319E318E318E31889
:1029800003190319031903212321242124212421BC
:1029900024210321232103210319E3180319031917
:1029A00003192321232103210319032103190321DF
:1029B0002321032124212421242124212421242111
:1029C00024212421242124212421242124212421DF
:1029D0002421031903210421242124212421242139
:1029E000242144214421242124212421242124217F
:1029F00024212421242124212421242124192419BF
:102A00000319E318E318E318C310C310C210A2108F
:102A10008208A210A210A210C310E318E318C3107A
:102A2000C310C310C310E318E318E318E318E31846
:102A3000E318E318C310C310C310C310E31803193D
:102A40000319E318E318E318E318E318E318E3188D
:102A5000E318E318E318E318C310C310C310C3103E
:102A6000C210C210C310C310C310E318E318E31858
:102A7000E318E318E318E318E3180319E31803193C
:102A80000419E318031903190421E318E318E318E0
:102A9000E318031903190319E318E318E318E318FB
:102AA000C210C210C210E310E310E318E318E318D9
:102AB000E3180319231924192419241924190419B2
:102AC00024192421242124214421242124212421C6
:102AD000242124212421242144212421442144216E
:102AE00044214421442144212421442144214421DE
:102AF000442184298429A529A529E631063A47429B
:102B0000A84A4B63CD732F7CB08C73A5D5B536BE68
:102B100097CEF9D619DF3ADF5AE75AE77AE79BEF03
:102B2000BBEF9BE79BE79AE79AE76A636B636A5B95
:102B30006A5B6A5B4A5B4A5B4A5B2A5B2A5B2A5B8D
:102B4000E952C952C94AC84AC84AA94AA94AC952F7
:102B5000C952C952C952A952A94A884A884A684AE0
:102B6000684A484227420742063AE639E639C639FA
:102B7000C631A531A531A531A531A531A531A53184
:102B80008529652985298529852965296529652955
:102B900044296529452944294529452944294429A9
:102BA00044214421442144296429852985298529F2
:102BB00085298529852985298529842964296429E8
:102BC0006429442144214421242144212421232116
:102BD000232103192321232123190319031903197D
:102BE0000319031903190319231923212321231975
:102BF00003190319031903190319031903190319F5
:102C00000319031903190321032124212421242159
:102C1000242124210321032103210319E318E318AC
:102C200003190321032103210319E318E318E3180F
:102C300003190319032123212421232124212421E1
:102C4000242124212421242124212421242104217C
:102C500004210321031903190421242124212421FF
:102C6000242124212421242124210321042104219D
:102C7000242124214421442144214421442124218C
:102C8000042104190419E318E318C210A210A210B9
:102C9000A21082088208A210A210A210C210C210B4
:102CA000C310C310C310C310E318E318E318E318EC
:102CB000E318C310C310C310C310C310C310E3182C
:102CC000E318E318E318C310E318C310C310C310CC
:102CD000C310C310C310E318E318C310C310C2100D
:102CE000A210A210C210C310C310E318E318E31817
:102CF000E318E318E318E318E318E318E318E318FC
:102D0000E318E318031904190419E318E318E31886
:102D1000E318E318E318E318E318E318E318C318FB
:102D2000E210E310C310E210E210C310E318E3183E
:102D30000311031903190319231923192419242131
:102D400024212421242124214421442144214421DB
:102D5000442144214421442144214421442144214B
:102D600024212319231924214421232144214421EE
:102D700043214321442164218529C531E531063AA7
:102D8000273A884A0A5B6B63CD738F84F19453A50D
:102D9000D4B556C6B8CED8D6F9D639DF5ADF7AE7D9
:102DA0009BE77BE79AE79AE79AE74A5B4A5B6A5BAD
:102DB0006A5B4A5B4A5B4A5B4A5B2A5B2A5B295334
:102DC0000953E952C952C94AC952E952E9520A5B48
:102DD0000A5BEA5AEA5AC952C952884A684A684A9A
:102DE00047422742073A063AE639C639C631C63164
:102DF000C631A531852985298529852985298529F2
:102E000085298529852985298529652965296529B2
:102E100065294529442944294429652965296529C5
:102E2000642944214429642964298529652965295F
:102E300085298529852965296429652964296429C5
:102E40004429242123212321432124212321232117
:102E500023212321232124192319031903190319D9
:102E60002319031903190319031903190319031962
:102E700003190319031903190319E318E3180319B4
:102E800003190319E318E31803192321032103216C
:102E900003210319032103210321E3180319031953
:102EA0000319E318E318E318E318E218E318E3182A
:102EB000E3180319031903212321232124212421A9
:102EC000032104210421042104212421242103219C
:102ED000E318E31803190321032103190321042133
:102EE000242124210421032103190321031904218E
:102EF00024210421242124212421242124192421D2
:102F00002421242104190319E318C310A210A210CC
:102F1000A210820882088208A210C210C210A21059
:102F2000A210C210C310C310C210C310C310C3102C
:102F3000C210C310C210C310C310C210C310C310FC
:102F4000C210C310C310C310C310C310C310C310EA
:102F5000C310C210C210C310C310C310C310C310DB
:102F6000A210C210A210C210C310C310C310E318E5
:102F7000C310E318C310C310C310C310C310C31091
:102F8000E318E318E318E318E318E3180319031927
:102F90000319E318E318E318E318C318E218C21082
:102FA000C210C210C210C210E310E318E318E318F5
:102FB000E318E31003192319241923190419041918
:102FC0002419242124212421442144214421442161
:102FD00044214421442144214421442144212321EA
:102FE00023192319231923192319231923192321F9
:102FF00043214421442164218429A529C531E53197
:10300000E6314742884AC9520A5B8C6B0E7C8F8C32
:10301000119D94AD15BE76C697CEF8D639DF5ADF2E
:103020007AE77AE77AE77AE77AE729532A5B4A5B15
:103030006A5B6A5B4A5B2A5B2A5B0A5B0A5B2A5B08
:103040002A5B4A5B4A5B4B5B4B636B636B636B63F3
:103050006B6B2B630A5BE952A952884A674A474265
:10306000063AE639E639E639C639A531A531A53142
:103070008529852984296429642965296529852963
:1030800085298529652965296529642944294429D3
:10309000442124214421442124214529452945292D
:1030A00065296429642964296429652965296529B4
:1030B0006529652944294429442944294421242196
:1030C00024210421242123212421242124212321FA
:1030D000032103212419231903192321232123194F
:1030E0000319031903190319E31803190319031921
:1030F0000319E31803190319E31803190319031932
:1031000003190319E318E3180321232123212321A1
:103110002321232103190319031903210319E31898
:10312000E218E318C218C218E218E318E218E3180C
:10313000E318E318031903190319032124210421B7
:103140000319E318E318E3180319E3180319031923
:1031500003210321E318E318E318031903190319E2
:1031600003190319031903190319E318E318E318E2
:10317000E318E318E318E3180319041904190419F0
:10318000E4180319E318E318E318C310C210A210DF
:103190008208A2108208A210A210A210A210A210EF
:1031A000C310C310C310C310C310A210C210C210AA
:1031B000A210A210C210C310C310C310E318E3186A
:1031C000E318E318C310C310A210C210A210A2107B
:1031D000A210C210A210A210A210C210A210C210FF
:1031E000C310C310C310C310C210C310C210C31049
:1031F000C310C310C310C210A210C310C310C2105A
:10320000C210C318E318E318E318E318E318C3184F
:10321000C318E318E318E318E318C218C318C3105F
:10322000E210E310C210C210E210E310E310E3104A
:1032300003190311031103190319031904190419BC
:1032400004192419041904192419242124212421DE
:1032500024212421241924192421031903190319D1
:10326000E318E210E3180319031923192319232182
:1032700044216421642164216421642184298429F6
:10328000A529C531063A263A4742C9522A5B8C6BBA
:103290000D7CB08C329D93AD15BE97CED8D619D784
:1032A00039DF3ADF5ADF7AE77ADF095329534A5B7D
:1032B0004A5B4A5B4A5B4A5B4A5B295B2A5B4A5B27
:1032C0004A5B6B638B638B6B8B6B8C6B8B6B8B63D6
:1032D0006B632A5BE95AC952A84A684A47422642A8
:1032E000063AE639C631C531C531A531A531A5311A
:1032F000A53185296429642964294429442964293C
:1033000064296529652964296429442944294421BB
:103310002421242124212421442144214421442105
:10332000442965296529652985298529652965290E
:103330006529442944294429442144212421242164
:1033400024210321032123212421032123210321DB
:1033500003190321232124212319242123212319A3
:10336000031923190319031903190319031903195D
:1033700003190319E318E210E318E318E31803191B
:10338000231903190321032123212421242124218A
:1033900024212321032103210321E318E318E31847
:1033A000E218E218C218C218C218E318E318E318AA
:1033B0000321031903190319031903190319031925
:1033C000E3180319E318E318E318E318E318E31804
:1033D000E318E318E318E318E318E318E318E31815
:1033E000E318E318E318E318E318E318E318E31805
:1033F000E318E318E318E318E318C318E310E3181D
:10340000E318C310C310C310C310C310C210A2101E
:10341000A210A210A210A210C210C310C210C3109A
:10342000C310C310C310C310C310C310A210A21046
:10343000C310C310C210A210C210C310E318E318C7
:10344000E318E318C310C310C210A210A210A210F8
:10345000A210A210A210A210A210A210A210A210DC
:10346000C310C310C310C310C310C210A210A21007
:10347000A210A210A210A210C310C310C310C31038
:10348000C310C310C310E318E318C318C218C2183E
:10349000C218C210C218C218C210C218C210C2107C
:1034A000C210C210C210E210E210C310E310E31009
:1034B000E3100311031924192419241924192419B8
:1034C00024190419241904190419041904190419D4
:1034D0000419231903190319E318E310E310E21088
:1034E000C210E210E3180319031944214421642196
:1034F0006421642164214421442143214321632127
:103500006421A429C531E531063A874AC9522A5BAC
:103510008B6B2E7CB08C329D93AD35BE97C6D8CECA
:1035200019D739DF5ADF5AE77AE7095329534A5B3B
:103530004A5B4A5B4A5B2A5B2A5B4A5B4A5B4A5BA3
:103540004A5B6B638B638B638B6B6B634B634A5B15
:103550002A5B095BE952C952884A67422642063A09
:10356000E539C531A531A531A531853185318531A3
:103570008529852964296429642944214421442119
:10358000642944296429642964294421442124218B
:10359000242124212421242144214429442144217B
:1035A000442965296529652965298529852985296C
:1035B000642964296429442944296429642944210B
:1035C00024212321242123212321242124210321F7
:1035D000031903210319231923212321231923214B
:1035E0002421242123192319232103190319031941
:1035F0000319E318E318E318E318E2180319031991
:103600002319031903212321232103212321242109
:103610002321242124212421032103210321032107
:10362000031903190319E318E318032103210321E4
:103630002421242123210321E3180319E318E3188B
:10364000E318E318E318E318E318C218C210C2180D
:10365000C318C318C218C318E318E318C318C31853
:10366000C218C210C210C210C218C210C318C318A8
:10367000C318E318C310C310C210C310C310C21084
:10368000A210C210C210C210A210C310A210A21029
:10369000C310C210A210A210C210C310C310C310D6
:1036A000E318E318E318E318E318C310C310C210BB
:1036B000A210A210A210A210A210A210A210C2105A
:1036C000A210A210A210A2108208A210A210A21092
:1036D000A210A210A210C210C310C210C310C310B7
:1036E000C210A210A210A2108208820882088208CA
:1036F0008208820882088208A210A210A210A210DA
:10370000A210C210A210A210C210C210A210A210C9
:10371000A210A210A210A210A210A210A210C210F9
:10372000C210C210C210C210E310E310E310E31085
:10373000E31003110319231924192419241924212E
:103740002421242124212421242124212421242151
:103750002421242124190319E318E318E318E210A3
:10376000E210E210E210E21003192319442144216F
:103770002321231923192319231923192319432139
:1037800064218429A429C531C531263A6742E9520A
:103790006B632E7CB08C529DB4AD36BE97C6D8CE2E
:1037A000F8D639DF39DF59DF59DF29532A5B4A5B05
:1037B0006A5B6A5B4A5B4A5B4A5B4A5B4A636A6371
:1037C0006A636B636B636B634A634A5B095BE952D1
:1037D000E952C852A852A84A67424742063AE53918
:1037E000C531C531C531A431A431A4298429842926
:1037F0008429642944294421442124212421442169
:1038000044214421442144214421442944212421A8
:103810002421242124212421242144214421442918
:1038200065296529652965296529852985318531B8
:103830008529852965296529652985298529652998
:103840006529442144214421442124212421242187
:1038500024210419031903190319231923192319FE
:10386000031923192421242124212319231903199D
:10387000E3180319E318E218E210E3180319031917
:1038800023192319032103210319032123212321B0
:103890002421232124212421242124212421242101
:1038A00024210321031903190321032103210321E7
:1038B00003210321032103210319E318E318E3186B
:1038C000C318E318E318E318E318E318C318C31880
:1038D000C210C210E318E318E318C318E318C318A2
:1038E000C310C218C218C218C218C210C310C31025
:1038F000C218C310C310C310C310A210C210C2104C
:10390000C310C310C310C310C310A210C210C21042
:10391000A210C310C310C310C310C310C310C31030
:10392000C310E318C310C310C310A210A210A2103A
:10393000A210A210A210A210A210A210A210A210F7
:10394000A210A210A210A210A210A210A210A210E7
:10395000A210C310C310C310A210C310C310C21012
:10396000A210A210A210A210A2108208A210A210EF
:103970008208A210A210A21082088208A210A2102F
:10398000A210A210A210A210A210A210C210C21067
:10399000C210C210A210A210C210C210A210A21017
:1039A000C210A210A210C210C208C210C210C210CF
:1039B000E210E310E31003190319031904190419A1
:1039C000241924192419241924192419041924192F
:1039D0002419231903190319031903190319E218E8
:1039E000E310E318E318E210E210E21802190219DA
:1039F00002190219231923192319432143214321B1
:103A000043214321432143216321A429063A6742EC
:103A1000C9528B6B2D7CAF8C319DB4AD35BE76C653
:103A2000B7CE19D739DF59DF5ADF6A5B6A5B6B5B48
:103A30006B5B8B5B6B636B636B636B636A636A6308
:103A40006A636A5B4A5B4A5B2A5B295B0953E852FB
:103A5000C852A84A884A67424742263A063AE63997
:103A6000E539C531C431A431A431A4318529842973
:103A700084296429642944214421232124212421E7
:103A80002321442144214421442924212421242187
:103A9000242124212421442144214521452945294B
:103AA000652965296529652985298631863186310B
:103AB00085298531852965296529852985296529EE
:103AC00065294421442144214421442124212421E5
:103AD00024210421031903190319031903192319B4
:103AE000232123212319231923210319031903193E
:103AF00003190319E318E218E218E318031903196C
:103B0000231923210319032103210319032103216D
:103B100003212421232124212421242123212321A1
:103B2000032103210319E318E318E318E318031929
:103B3000031903190319E318E318E218C218C3188C
:103B4000E218E318E318E318E318E318E318E3189E
:103B500003190319031903190319E318E318E318E8
:103B6000E318E318E318C318E218C218C318C318FF
:103B7000C318C318C310C310C310E318C310E31055
:103B8000E318E318E318C310A210C210C210C21049
:103B9000A210C210C310C310E318C310E318E31837
:103BA000E318A210A210A210A210A210A210A2103C
:103BB000A210A210A210A210C210C210C310C310F3
:103BC000A210C210A210A210A210A210A210A21045
:103BD000A210A210A210A210A210A210A210A21055
:103BE000A210A210C210C210C210C310C310C31082
:103BF000A210C210A210A210A210C210C210C210B5
:103C0000C210C210A210A210A210A210A210C210C4
:103C1000C210C210A210A210C210C210A210A21094
:103C2000C210C210C210C210C210A210C210C21024
:103C3000C210E210E210E310E3100311031904199B
:103C4000031904190319031904190419041904198F
:103C50000419031903190319031903190319031983
:103C6000031903190319031903190211E210E218C9
:103C700003192319231943214321432143214321BC
:103C80002319221922192319432163218429E5319B
:103C9000263AA84A2A5BAB6B2E7CF09493A5F4B528
:103CA00076C6D8D619D739DF5ADF4A5B4A5B4A5BFA
:103CB0004A5B4A5B4A5B4A5B4A5B2A5B2A5B295B3D
:103CC000095309530953E852E852C84AA74AA74A78
:103CD000874A6642464226422642063AE539C531BF
:103CE000C531C531C531C531A529A52985298531FC
:103CF000853184296429442944292421242124212B
:103D00002421242944294429442924292421242103
:103D100024212421242124214429452945294529D8
:103D2000652985298529652985298529A631A63111
:103D3000A531A5318531852985296529652965291B
:103D400045214421442144212421242124212421CA
:103D50000421242103192319232123212319232199
:103D60002321232123212321232123212319031963
:103D700003190219E218E210E210E21803190319FC
:103D80002319031903192319231923192321232183
:103D90002321032124212421232103212321032161
:103DA000E3180319E318E318E318E31803190321D0
:103DB00003210321032103190319E218E318E3186F
:103DC0000319E31803190319031903190319031934
:103DD0000321031903210319E3180319E318E21857
:103DE000E218C218C218C210C210C218C310C31001
:103DF000C310A210C310C310C310C310C310C3104C
:103E0000C310C310C310C310C210A210A210A2107E
:103E1000C310C310E310E318E318E318E318E31822
:103E2000C318C310A210A210C210A21082108208E0
:103E3000A20882088208820882088208A210A210C2
:103E4000A210A210821082088208820882088208CA
:103E5000A210A210A210A208A21082088208820852
:103E6000A208A210A210A210A210C310C310C31067
:103E7000A210A210A210A210A210A210A210A210B2
:103E8000A210A210A210C210C210A210C210C2181A
:103E9000C210C218C218C218C210C218C210C21072
:103EA000C210C210C210C210C210E310E310E3101F
:103EB000E310E318E3180319031903110319E318B6
:103EC000031903190319E318E318E318E318E318B7
:103ED000E318E31803190319031903190319041943
:103EE0002419231923192319031903190319031971
:103EF00003190319231923192319431943192319E2
:103F0000232143214321432163218321A429C4295F
:103F1000E5314642A84A095B8B6B4E84F09472A54A
:103F2000F4B556BEB7CEF8D618D709530953E9529F
:103F30000953E952E952E952E952E852C84AA84AFB
:103F4000884A884287426742674267424742463A08
:103F5000263A273A263A063A063AC639C531C531D5
:103F6000C531A531A531A531A431843184298429F5
:103F70008429642964296421432123214421442183
:103F80004421442144214421241944194421442139
:103F900044214421442144214421452145294429E7
:103FA00065298529852985298531853186318531A0
:103FB00085298529853185318531852965294529D9
:103FC00045212421242144214421452944214421FF
:103FD0002421242124212421242144214421242179
:103FE0002421241924190419241904190419041961
:103FF0000419E318E318E318E31803190319031964
:1040000004190419041904190319031903190319CC
:1040100003210319031903190319031903190319B8
:10402000E3180319E318E3180319E318E318031955
:104030000319031904190421042124212421242112
:104040000421041904210421042104210421042150
:10405000042104210419E418E418E418E318E3180F
:10406000E318E318E318C318C318C310C310C31030
:10407000E318C318C210A210A210C310C310C310BB
:10408000C210C310E318E318E318C310C310C31021
:10409000C310C318E318E318C318C318C318C31018
:1040A000C310C210C210C210C310A210C210C2109E
:1040B000A210A2108210820882088208A210A21008
:1040C000A208A20882088108810882088208820862
:1040D000A208A208A210A210A210A210A210A21060
:1040E000821082088210821082088210A210A21010
:1040F000A210A210A210A210A210A210A210A21030
:10410000A210A210A210A210A210C210A210A210FF
:10411000A210A210A210A210A210C210C210C218A7
:10412000C210E318E318E318E310E318E318E310F0
:10413000C210E310031903190419241903190319F0
:10414000031903190319031903190319031903198F
:10415000031903190319031903190319031903197F
:1041600003190319031903190319E318E318E310DA
:10417000E21803110319231922190319231923190A
:1041800023194319431943214321632164218429BD
:10419000C531E531263A6742C9526B63CD734F840E
:1041A000F19494AD15BE77C6D8D6C84AC84AC84A55
:1041B000C84AC84AC84AC84AA84A884A884A884257
:1041C0008842674247424742674247424742263A4F
:1041D000063A063A063AE639C639C531A531A5315F
:1041E000A531A53185318531842985296429642942
:1041F00064216429642164216421442144214421EF
:1042000044214421442144212421442144214421A6
:1042100044214421442165216521652165216529C9
:10422000652984298529852985318531863186311D
:10423000A6318531853185318631853165316529F4
:104240004529242124214529452965294529452138
:1042500045212421242124212421442124212421F5
:10426000042104190419041904210421042104213E
:1042700004210421E318E318E318031904190419AD
:10428000041904190319E318E318E318E3180319D0
:104290000319E318031904190419E3180419042174
:1042A00004190319E318E318E318E318E318E318F3
:1042B000E31803190419042104210421E418E41863
:1042C000E418E418E418E41804210421042104216A
:1042D00004210419041904210421042104210421C6
:1042E0000419E418E418E418C318C318C318E31831
:1042F000E318E318E318C318C318C318C318C31886
:10430000E318E318E318E318E318E318E318E318D5
:10431000E318E318E318E318E318C318E318E318E5
:10432000C318C310C318C218C218E318C318C3189F
:10433000C318C218A210A210A210A210A210A2109C
:10434000A210A210A210A210A210A210A210A210DD
:10435000C210C210C210A210C210A210A210A2104D
:10436000A210A210A210A210A210A210A210A210BD
:10437000A210A210A210A210A210A210A210A210AD
:10438000A210C210C210C210C210C218C218A218C5
:10439000A21082108210821082108210A210C2100D
:1043A000C218C318E318E318E318C210C210C210F1
:1043B000C210C210E31003190319031903190319DA
:1043C0000319E3180319E318E318E318E310E310E3
:1043D000E318E318E318E318E318E318E318E31805
:1043E000E3180319E218E210C310C210C210C21081
:1043F000E210021103110311031103110211021142
:104400000319031902192219231902192219231950
:1044100064218429A529C531263AA952EA5A6B6339
:104420002E7CF29C94AD15BE77CE8842874287429F
:104430008742874287428742874267424742473ADC
:10444000473A463A463A473A4742463A463A263A81
:10445000263A063AE539E531C531A531A531842939
:104460008429853185318529642964296429842931
:10447000842964216421642164214421242144216C
:104480004421442124212421242124214421442184
:104490004421442165216521452965296421642140
:1044A0006421852964296529853185318531A631C5
:1044B000A631A631A631A6318631853185316529EF
:1044C000452965294529452965296529452945291C
:1044D00024212421242124212421242124212421B4
:1044E0000421042104210421042124210421042184
:1044F000042104210319E318E318E318E318E3186F
:10450000E318C318C318C318E318E318E318E41832
:10451000E418E318E4180419E41804190419E41859
:10452000E418042104210419E418E418E418E31839
:10453000E418E318E318E3180319E318C318C318C1
:10454000C318C318C318C318E318E41804190421C6
:104550000421E4180419042104210419042104216C
:1045600004190421E418E418E418E418E318E31823
:10457000E318E318E318C318C318C318C318E318E3
:104580000319E318E318E318E318E318E318E31832
:10459000E318C318C318C318C318C318C318C31823
:1045A000C318C318C318C218C218C318C318C31835
:1045B000C218C218C218A210A210A210A210A210F3
:1045C0008210A2108210A210A210C210C210C21833
:1045D000C210C318C218C218C210C210A210A21072
:1045E000A210A210A210A210A210A210A210A2103B
:1045F000A210A210A210A210A21082108210A2106B
:10460000A210C210A210A210A210A210A210A210FA
:10461000A210821082108210A210A21082108210AA
:10462000A210C218C210C210C318A218A210A21061
:10463000C210C210C210E318E318E310E318E31825
:10464000E318E310E318E318E318C210E310E310D3
:10465000C210E310C210C210C210C210C210C210A9
:10466000C210C210C210C218C318C310C310C310A6
:10467000E31002110311031102110311031123119D
:104680000211E210E210E210E210021902190219FE
:104690004321432163218429C53127426742A9521E
:1046A0002A5B0E7CB09432A5D4B5A84AA84AA84A81
:1046B000A74AA84A87428742874267424742474201
:1046C000473A463A463A473A4742273A273A263A3D
:1046D000063AE639E631E631C531A531A531A531D5
:1046E000A531642964296429642964296429642919
:1046F00064216421432143214321242124212321B6
:104700002321232124214421242124214421442123
:10471000242144214421442144214521452945297E
:1047200044296429652965296529A531A531A53163
:10473000A631A631A631863185318631853165298C
:104740006529652965294529452945294529452999
:104750004529252945214521452945294529452121
:104760002421242124212421242124212421042141
:1047700003190421E318E318E318E31803190419D3
:1047800004190319E318E318E318031903190319AB
:104790000419042104210421242104212421242199
:1047A00024212421242124210421E318E318E318DF
:1047B0000319031903190319E318E418E418E3189B
:1047C000C318E318E318C318C318C318C318C318D1
:1047D000C318C318C310C310C318C318C318C31811
:1047E000E418E4180419041904210421042103190C
:1047F000E3180319E31803190319E318E318E3187E
:10480000C318C210C310C310C310C310C310C31009
:10481000C310C310C310C310C310C310C210C21002
:10482000C210A210C210C210C210C210C210C21018
:10483000C210A210C210C210C210C210A210A21048
:10484000C210A210A210A210A210A210A210A210B8
:10485000A210A210A210A210C210A210A210A210A8
:10486000821081108210A210A110A210811082105B
:10487000A2108210A210A2108210A210A210A210E8
:10488000A210A210A210A210A210C218C218C21820
:10489000A210A210A210A210A210A210C210C21048
:1048A000C218C318E318C318C210C210C210C21035
:1048B000C210C210E310E310C210E310C210E310E4
:1048C000E310C210C210E310E318E318E310C210A3
:1048D000C210C210C210C210C210C210C210C21048
:1048E000E310E318E310E310E310E318E218E2101A
:1048F00003192319231923192319431943192319B8
:104900000319021102110211021102192319432184
:1049100043214321432143216421A531C531E53998
:104920004742C9522B63AD734F84C84AC84AA84A4C
:10493000A84AA842A842884AA84A88428742874291
:104940006742474247424742473A263A263A063AA2
:10495000063AE639E631C531C531853185298529E3
:1049600084296429642964294429642964296429DF
:104970006421442144214421432144212421242130
:1049800024212321242124212321242144214421C1
:1049900044214421642965296529652965296529FA
:1049A0006529642964296429642985318531853123
:1049B000853185318531853165298531853185316F
:1049C00065294529452945294529242124212421D2
:1049D0002421242144214529652965296529652942
:1049E00065294529452945294521242124210421DA
:1049F00003190319E318E318E31803190419042130
:104A00002421042104210419042104210419041976
:104A1000042124212421242124214421242144214E
:104A20004521452144212421242104190319E31897
:104A3000E318E318E318E318E318E418E418E3189C
:104A4000C318E318E318C318C318C318C318C3184E
:104A5000C318C310A310A310C318A310C318C318FE
:104A6000E318E418E418E418E418E418E318E31869
:104A7000E318E318E318E318E318E318E318E3185E
:104A8000E318E318E318C318E318C310C310C318DE
:104A9000E318E318E318E318E318C318E318E3185E
:104AA000E318C210C210C210C210A210A210A210AD
:104AB000A210A210C210C210A210C210C210C210C6
:104AC000C210A210A210A210A210A210A210A21036
:104AD000C210A210C210C210C210C210A210A210A6
:104AE000A210A21082108110821081088110821001
:104AF000A210A2108210811082108110A210A210A8
:104B0000A210A210A210A210A210A210C218C218C5
:104B1000A210A210A210A210A210A218A218A218ED
:104B2000C218C210C318C318C318C210C210C210D2
:104B3000C210C210C210C210C210C210C210C210E5
:104B4000C210E318E310E310E318E318C210C21018
:104B5000E310C210C210C210C210E310C210E31062
:104B6000E310E310E310E310E310E318E218E2109F
:104B7000E318031923192319231943194319431956
:104B800023192319031902190319231923192319A6
:104B90004321432123214321642184298429A529F8
:104BA000E639684AA9522A63CD73C952C952C9521B
:104BB000C952C94AA84AA84AA84AA84AA84287424C
:104BC00067424742673A473A2642263A263A063A29
:104BD000E639E631C531A531A5298429642964293E
:104BE000642964296429442944294421442144290D
:104BF00064296429442143214321242123212321A1
:104C000023212321242144214429442944294429BE
:104C10004429652965296529652965298529652925
:104C200065296429642964296429853185318531A0
:104C3000853185318529652965298531652965296C
:104C40006529452945294529242124212421242178
:104C50002421242145296529652986298629852934
:104C6000652965296529452945292421242104210F
:104C70000421E3180319041904210419042124212F
:104C8000242124212421242104210421242124213C
:104C90002421242124214421452945294529452130
:104CA000442145214421242124210421E318E3182F
:104CB000E318E318E318E318E318C318E318E3183C
:104CC000E318C318C318C318C318E318E318C318AC
:104CD000E318C318C318C318E318E318E318C3187C
:104CE000E318E418E318C318C318C318E318E3184B
:104CF000E318E318E318E318E3180421041904196E
:104D00000421041904210419E318C318E318E31853
:104D1000E318E318E318E318E318E318E318E318BB
:104D2000C318C318C218C218C210A210A210C21011
:104D3000C210C210C210C218C318C210A210A21012
:104D4000A210A210C210A210A210C210C210C21053
:104D5000C210C318C218C218C210C210A210A210EA
:104D6000A21082108210A210A2108210A210A21013
:104D70008210A210A2108210A210A210A210A210E3
:104D8000A210A210A210A210A210A210A210A21093
:104D9000A210A210A210A210A210A210A210A21083
:104DA000A210A210A210A210A210C210C210A21033
:104DB000A210A210A210C210C210C210C210C210C3
:104DC000E318E310E318E3180319E310E310E3100A
:104DD000E310C210C210C210C210E310E310E310BF
:104DE000C210E310E310C210C310E310E210E2108F
:104DF000E210031123192319231923192319231945
:104E000043192319231923192319031903192319E2
:104E1000432123212319231943216429642164296F
:104E2000A531063A4742C9526C6BC952C952C952A0
:104E3000C952C952C952A84AA84A884A884A8842CF
:104E4000884267426742473A473A063A063AE531AE
:104E5000C531C531A531A52984296429642964296E
:104E6000842984298429842984296429642964293A
:104E700044212429232123212321242124214421C5
:104E80006429642965296529652944294421442127
:104E90002421242144294429652965296529652976
:104EA00065298529852965296529853185318531DA
:104EB000A531A5318531853185316529853185312A
:104EC000863165296529452924212421242124218D
:104ED000242145294529452965294529652965292B
:104EE00065296529452144214421242124212421A7
:104EF000242124212421242124212421242124218A
:104F000024214421242124212421442144214521F8
:104F100045294529652965296529652945294529A1
:104F200045212421242124210421031904190319D2
:104F3000E3180319E318E318C318E418E418E31896
:104F4000C318E318E318E318E318C318E318E418C8
:104F5000E418E31804190419E418E418E418E41830
:104F60000419E318E418E418E4180419E318E31822
:104F7000E318042104190319041903190419041965
:104F800003190319041904210419E318E318E31899
:104F9000E318C318C318C318C310C318C210C21033
:104FA000C218C210A210A210A210A210A210A21029
:104FB000A210A210A210C210C210A210A210821041
:104FC0008210A210A210A210A210A210A210A21071
:104FD000A210A210A210A210A210A210A210821061
:104FE0008210A210A210A210A210A210A210A21051
:104FF000A210A210A210A210A210A210A210A21021
:105000008210A210821082108210811082108210F1
:105010008210821082108210811082108210811002
:10502000810882108210A210A210A210C210C21019
:10503000C210A210C210C210C210C210C210C21000
:10504000E310C210C210C210C210C210C210C210AF
:10505000C210C210C210C210C210C210C210C210C0
:10506000E310C210C210C210C210C210E210E2104F
:10507000E2100319231923190319231923192319DA
:105080004419441943192319231944214421232184
:105090002319232123212321231943216421642956
:1050A0008429A531E6392742A852E952C952C9528A
:1050B000C952C952A952A84AA84AA84A8842884255
:1050C000674267426742473A463A263A063A05320D
:1050D000E531C531A531A52984298429842964298C
:1050E00064298429842984298429642964296429D8
:1050F00064294429432123212321242124214421DB
:1051000044294429642965296529642944294429B5
:10511000442124292421242124294529452965299C
:1051200064298529853185318531A53186318631DE
:10513000A531A6318531853185318631863186317B
:105140008531863165296529452924214529452947
:1051500045294529452944214421452945294529F1
:105160004529452945294529242124212421242173
:105170002421242124212421242104212421242127
:10518000242124212421242145214529452945295B
:1051900045296529652965296529652965296529BF
:1051A00045294529442124212421041904190419DD
:1051B0000419E318E318E318E318C318E318E31815
:1051C000E318C318E318E318C318E418E418E41844
:1051D00004210421242124212421242124212421E7
:1051E0002421042104210421042104210421242157
:1051F0002421042104210421042103190419031981
:10520000E318031903190319E318C310C318C318CB
:10521000C318C318C318C310C310C210A210A21021
:10522000A210A210A210A210811081088108811082
:10523000A210A210A210A210C210A210A210A210BE
:10524000A210A210A210A210A210A210A210A210CE
:10525000A210A210A210A210A210A210A210A210BE
:105260008210A210A210A210A210A210A210A210CE
:105270008210A21082108110810882108110821089
:10528000A210A21082108210821081108110811051
:1052900081108110610881108110610861108108FE
:1052A00081088210A210A210A210A210A210C21097
:1052B000C210A210C210C210C210C210C210C2107E
:1052C000C210C210C210C210A210A208A210A210D6
:1052D000A210C210C210C210C210C210C210C2105E
:1052E000E310E310C210C210C210C210E310E310AA
:1052F000E3102319231923192419231944194419D4
:1053000044194319431943192319441944214421C9
:1053100023212321232123212321431943216421F4
:10532000642964298429C5312642C952CA52C95206
:10533000C952C952A952A84AA84A884A8842674213
:1053400047426742473A473A463A063AE531E5313D
:10535000C531C531C531A529842984296429642929
:105360008529642984298529852985296429442951
:1053700044294429232123212321242124212321B9
:1053800024212421442964296529642944294429A4
:10539000442924212421242144294529442944291C
:1053A000642965318531A531A531C631A631A631D3
:1053B000A63185318531A531A631A631A631A63178
:1053C000A631A63186318631863165296529652960
:1053D0008631852965294529452965296529652954
:1053E0006529452945294529452945212421242187
:1053F000242124210421042104190421042124212D
:105400004421452145294529452945214529452945
:10541000452965296529652945296529652965295C
:105420006529452944212421242104210319031934
:1054300004210419E318E318E318C318C318C318A8
:10544000C310C318C318C318E3180421042124216E
:1054500024212421252125212521452945212521D6
:1054600045214521252125212521242124214421AF
:10547000442124212421242104190419E318E318C8
:10548000E318E318E318E318C318C210C210C310DE
:10549000C318C210A210A210A210A210A210A21033
:1054A000A210A210A2108210821081108210A210ED
:1054B000A210A210C218C318C318C210C210C21082
:1054C000C210C210C210C210C210C318C318C21832
:1054D000C210C210A210A210A2108210A21082103C
:1054E0008210A210A210A210A210821082108110AD
:1054F0008108810881108210821082108110810839
:1055000081088110A210A210A210811082108210B6
:1055100082108210811082108210821082108210FC
:10552000A2108210A210A210A210A210C210C210CB
:10553000C210C210A210A210A210C210C210C2103B
:10554000C210C210A210A20881088108A210C210C5
:10555000C210C210C210C210C210E310C210E31079
:10556000E318E310E310E310C210E318E318E310AC
:10557000E318231924192419231924192319231989
:10558000441944194419431923194421442144213D
:10559000232124212319031903192319231923195A
:1055A000232143218429C531063AC952C952C9521F
:1055B000A952A952A952A84A884A884288426742F9
:1055C00067424742463A263A263A263A0532E531BC
:1055D000E531C531A531A5298429842964296429A7
:1055E000842985318531853185318529642964296E
:1055F0006429642944294321432123212321232190
:1056000023212321442144292421442944212421E4
:105610002321042124212421242124214429442933
:10562000642985298529A531C639C639C639C631C7
:10563000C639A631C631C631A639A631C639C639F2
:10564000C639A739C731A631863186318631A631B0
:10565000A631A639A631862985298631852965296D
:1056600065296529652944212421452144212421D6
:105670002421242124210421042124212421242142
:105680004421242124214421452124212421242191
:1056900044212421242144214529452945294529FE
:1056A000652965296529452124210419042104213E
:1056B0000419E318E318E318C318C310C318C31878
:1056C000C318C310C318C318E318E3180421042136
:1056D00024212421452145294529452945294529B4
:1056E0004529252125214521452125212421242124
:1056F00024212421042104210421E318E318E318C0
:10570000C318E318C318C318E318E318C318C31069
:10571000C310C310C310C310C210A210A210A21055
:10572000C210C210C210C210A210A210A210A21069
:10573000A210C210C218C210C210C318C318C318D6
:10574000C318C318C318C318C318C210C210C2109C
:10575000C318C210C210A2108210A21081108110B2
:10576000A2108210A210A210A210A210811081100B
:10577000821081088110811081088210A210A2106D
:10578000A210A210A210A210A210A210A210A21089
:10579000A210A210A210A210A210A210A210A21079
:1057A000A210A210A210A210A210C210C210C21009
:1057B000C210C210C210C210C210A210A210A210B9
:1057C000A210A210A208A208A210A208A208A21069
:1057D000A210A210C210C210C210C210E310E3182F
:1057E000E310E210E210E310E310E318E318E3180B
:1057F000E3180311031103110311231924192419A8
:105800002419431943194419441943192319241914
:1058100024212419232123212321031903212321B6
:105820002421442164298531C531CA52CA52C95242
:10583000C952A952894A884A684A874267426742E0
:10584000473A473A463A263A263A063AE531E531AA
:10585000C531C531A531A529842964296429842944
:1058600085298529852985298529852985298531C0
:10587000853164296429642944292421242124218F
:105880004421442124212421442124212421232191
:1058900023210421042124212421242945294429C8
:1058A000442964298529A531C639C639C639C6397E
:1058B000A631A639C639C639C639C639A631A63188
:1058C000A631A631A63186318631862986298631D0
:1058D000863186318631A631863186316529652942
:1058E000452945292421242124210421042104219E
:1058F0002421242124212421242124212421442160
:10590000442124212421242104212421242124216F
:10591000042124210421242124212421242144217F
:1059200045296529452945214421042104210419DB
:1059300004190319E318E318E318C318C310A310DC
:10594000A310C318C310C310C318C318E418041954
:10595000042104212421252145214521252125211A
:1059600025214521252124212421252124212421EB
:1059700004210421041904190319E318E318E31896
:10598000C318C318C318C318C310C318C318C31847
:10599000C318E318C318C310C310C210C210C2103A
:1059A000C210C210C210C210A2108210A210A21007
:1059B000A210A210A210A210A210A210A210C21037
:1059C000C210C210A210A210A210A210A210A21007
:1059D000A210A210A210A210A210810881108110A2
:1059E00081088110A210A210A210810881108210DB
:1059F0008110A210A210A210A2108210A210A21058
:105A0000A210A210A210A210A210A210A210A21006
:105A1000A210A210A210A210A210A210A210A210F6
:105A2000C210A210A210A210A210C210C210C21066
:105A3000C210C210C210C210C210A210A208810867
:105A4000810881088108A2088108A208A210A2107A
:105A5000A2088108A208A210C210C210C210C2106F
:105A6000C210C210C210C210C210C210C210E31085
:105A7000C310E210E31003110311231903192319B2
:105A800024192419441944194419041923192319F0
:105A9000231924212321232124214321442144218A
:105AA00064216421642964298429EA5ACA5AA952C2
:105AB000A952A9528952894A694A684A684A684A79
:105AC0004742274227420742063AE639C631A53106
:105AD000853185318531853185318531853185291E
