:020000040800F2
:10000000680400202D0100083501000837010008B0
:10001000390100083B0100083D0100080000000014
:100020000000000000000000000000003F01000888
:1000300041010008000000004301000845010008DC
:100040004701000847010008470100084701000870
:100050004701000847010008470100084701000860
:100060004701000847010008470100084701000850
:100070004701000847010008470100084701000840
:100080004701000847010008470100084701000830
:100090004701000847010008470100084701000820
:1000A000470100081505000847010008E50400089D
:1000B0004701000847010008470100084701000800
:1000C00047010008470100084701000847010008F0
:1000D00047010008ED060008470100084701000835
:1000E000470100084701000847010008DFF80CD06D
:1000F00000F02EF800480047010B000868040020BB
:1001000030B50B46014600202022012409E021FAE7
:1001100002F59D4205D303FA02F5491B04FA02F5E4
:100120002844151EA2F10102F1DC30BD06488047CB
:1001300006480047FEE7FEE7FEE7FEE7FEE7FEE7CC
:10014000FEE7FEE7FEE7FEE785040008ED00000895
:10015000064C074D06E0E06840F0010394E8070014
:1001600098471034AC42F6D3FFF7C4FF300C0008B8
:10017000500C00082DE9F041024600250026002021
:1001800000230024002791F803C00CF00F0591F81C
:1001900003C00CF0100CBCF1000F03D091F802C0AA
:1001A0004CEA050591F800C0BCF1000F31D014688D
:1001B00000202BE04FF0010C0CFA00F3B1F800C066
:1001C0000CEA03069E4220D183004FF00F0C0CFA7C
:1001D00003F7BC4305FA03FC4CEA040491F803C09E
:1001E000BCF1280F06D14FF0010C0CFA00FCC2F84C
:1001F00014C00AE091F803C0BCF1480F05D14FF0DC
:10020000010C0CFA00FCC2F810C0401C0828D1D325
:100210001460B1F800C0BCF1FF0F34DD5468002059
:100220002EE000F1080C4FF0010808FA0CF3B1F8C9
:1002300000C00CEA03069E4221D183004FF00F0C50
:100240000CFA03F7BC4305FA03FC4CEA040491F8EA
:1002500003C0BCF1280F05D100F1080C08FA0CF816
:10026000C2F8148091F803C0BCF1480F07D100F127
:10027000080C4FF0010808FA0CF8C2F81080401C76
:100280000828CED35460BDE8F08141617047016118
:10029000704700F01F02012191404209920002F1D3
:1002A000E022C2F80011704729B1064A9269024360
:1002B000044B9A6104E0034A92698243014B9A61BC
:1002C000704700000010024030B5002100220024D9
:1002D00000232D4D6D6805F00C0121B1042905D0D6
:1002E000082923D105E0294D056022E0274D05604E
:1002F0001FE0254D6D6805F47012234D6D6805F4FF
:100300008034022505EB92421CB9214D554305600E
:100310000BE01D4D6D6805F400351DB11C4D5543B6
:10032000056002E0194D5543056002E0174D056078
:1003300000BF00BF144D6D6805F0F0010909154DAF
:100340006B5C0568DD4045600F4D6D6805F4E0614C
:10035000090A104D6B5C4568DD4085600A4D6D688B
:1003600005F46051C90A0B4D6B5C4568DD40C56002
:10037000054D6D6805F44041890B074D6B5CC56800
:10038000B5FBF3F5056130BD0010024000127A00A4
:1003900000093D00240000203400002010B500F0CA
:1003A00001F810BD0CB500200190009033480068A2
:1003B00040F480303149086000BF3048006800F4E4
:1003C000003000900198401C0190009818B90198E5
:1003D000B0F5A06FF1D12948006800F4003010B1E9
:1003E0000120009001E0002000900098012843D1F6
:1003F0002348006840F01000214908600846006862
:1004000020F0030008600846006840F00200086021
:100410001A484068194948600846406848600846DC
:10042000406840F4806048600846406820F47C10D2
:1004300048600846406840F4E81048600846006894
:1004400040F08070086000BF0C48006800F0007049
:100450000028F9D00948406820F0030007494860A7
:100460000846406840F00200486000BF034840680A
:1004700000F00C000828F9D10CBD0000001002406B
:100480000020024010B51348006840F001001149F7
:10049000086008464068104908400E494860084610
:1004A00000680E4908400B4908600846006820F4BF
:1004B000802008600846406820F4FE0048604FF441
:1004C0001F008860FFF76AFF4FF000600449086072
:1004D00010BD0000001002400000FFF8FFFFF6FE14
:1004E00008ED00E010B50221074800F03AF80128B5
:1004F00004D1064801880648FFF7C7FE02210248DA
:1005000000F020F810BD0000002C01401C0000206D
:100510000008014010B50121074800F022F8012829
:1005200004D1064801880648FFF7B1FE01210248C0
:1005300000F008F810BD0000002C01401C00002055
:1005400000080140CA430282704721B1028842F08C
:100550000102028004E002884FF6FE731A40028016
:10056000704730B50246002000230024158A05EAB2
:100570000103958905EA010413B10CB1012000E0E3
:10058000002030BD1AB183890B43838102E0838947
:100590008B4383817047000070B500240022002344
:1005A000058C4FF6FE7635400584028C8388048BDB
:1005B0004FF68F752C40B51E2C400D882C43751EB0
:1005C0002A400D892A434D882A43144DA8420BD056
:1005D000134DA84208D0134DA84205D0124DA84291
:1005E00002D0124DA84213D14FF6F7752A404D891B
:1005F0002A434FF6FB752A408D882A434FF6FF6544
:100600002B404FF6FF552B408D892B43CD892B4333
:1006100083800483CD888586028470BD002C0140D0
:1006200000340140004001400044014000480140C6
:100630000A460021018B4FF6F773194011430183DD
:100640007047818670470000002202881D4B984247
:100650000ED01D4B98420BD0B0F1804F08D01B4BF1
:10066000984205D01A4B984202D01A4B984204D1B6
:100670004FF68F731A404B881A43174B984207D096
:10068000164B984204D04FF6FF431A40CB881A43CA
:1006900002808B8883850B8803850A4B98420BD098
:1006A000094B984208D00E4B984205D00D4B98420A
:1006B00002D00D4B984201D10B7A0386012383822D
:1006C00070470000002C014000340140000400404D
:1006D00000080040000C00400010004000140040E2
:1006E00000400140004401400048014010B540F284
:1006F00025510E4800F04AF8B8B10D4800F002F953
:1007000001280DD10A48006881B20A48FFF799FF15
:100710000748016808A000F017F9002004490860A4
:1007200040F22551014800F009F810BD00380140A1
:1007300020000020002C014025640A0010B5002292
:10074000002340F66A14A14200D100BF0A1201241E
:100750009440A3B2DC43048010BD21B1828942F4ED
:100760000052828104E082894DF6FF731A40828133
:10077000704702460020B1F5007F00D100BF13880A
:100780000B400BB1012000E00020704770B502461D
:10079000002400230025002040F66A16B14200D153
:1007A00000BFC1F3421501F01F03012606FA03F34F
:1007B000012D02D19689334006E0022D02D1168A1E
:1007C000334001E0968A33400C12012606FA04F405
:1007D0001688344013B10CB1012000E0002070BD38
:1007E000F0B50346002400260025002040F66A17D5
:1007F000B94200D100BF1846C1F3421401F01F06F0
:10080000012707FA06F5012C01D10C3004E0022C77
:1008100001D1103000E014301AB107682F4307608F
:1008200002E00768AF430760F0BD00002DE9F04724
:1008300086B005460E460024A24600BFA14600270A
:10084000B08900B100BF2F462C8A4CF6FF700440DF
:10085000F08804432C82AC894EF6F3100440B08833
:1008600031890843718908430443AC81AC8A4FF64F
:10087000FF400440B0890443AC8201A8FFF724FD87
:100880001F48874202D1DDF810A001E0DDF80CA07E
:10089000A88900F4004040B10AEBCA0000EB0A103E
:1008A00031684900B0FBF1F807E00AEBCA0000EB41
:1008B0000A1031688900B0FBF1F86420B8FBF0F051
:1008C00004012009642101FB1089A88900F400407B
:1008D00040B1322000EBC900B0FBF1F000F007009E
:1008E000044308E0322000EB09106421B0FBF1F072
:1008F00000F00F0004432C8106B0BDE8F087000033
:100900000038014070B50446094800F013F8C5B23C
:10091000662D01D1012070BD206800EB80004000F1
:100920002060A5F130002168084420600020F2E733
:100930000038014001468888C0F308007047C1F3C1
:1009400008028280704700000FB4054B10B503A960
:10095000044A029800F018F810BC5DF814FB00007F
:10096000DD0A00083800002002E008C8121F08C194
:10097000002AFAD170477047002001E001C1121F20
:10098000002AFBD1704700002DE9FF4F89B09B463C
:100990000446002506E025280BD05A460B999047BF
:1009A000641C6D1C20780028F5D10DB02846BDE8E8
:1009B000F08F0027B8460122474900E0074314F8AA
:1009C000013F203B02FA03F00842F7D120782E289D
:1009D00019D114F8010F47F004072A280ED06FF040
:1009E0002F022078A0F1300109290CD808EB8801EA
:1009F00002EB410100EB0108641CF2E70A98641C59
:100A000050F8048B0A9020780028CED0642808D0B3
:100A1000692806D075281ED05A460B9990476D1C40
:100A200058E00A994FF00A0901C90A91002802DA30
:100A300040422D2102E0390504D52B218DF82010EC
:100A4000012103E0F90704D02021F7E78A4608AE28
:100A50000DE00021FAE70A994FF00A0901C90A914D
:100A6000F7E74946FFF74CFB303106F8011D002837
:100A7000F7D1ADEB060000F12009780701D44FF063
:100A80000108C84502DDA8EB090000E0002080460F
:100A9000002706E008A85A46C05D0B9990476D1CD8
:100AA0007F1C5745F6DB04E030205A460B999047EF
:100AB0006D1CB8F10001A8F10108F5DC05E016F89D
:100AC000010B5A460B9990476D1CB9F10001A9F131
:100AD0000109F4DC641C65E70928010070B50446CF
:100AE0000D46E1B20548FFF72AFF00BF4021034849
:100AF000FFF73FFE0028F9D0204670BD00380140C6
:100B000001210420FFF7D0FB01218803FFF7CCFB74
:100B10000121C802FFF7C8FB2520FFF7BAFB192007
:100B2000FFF7B7FB1B20FFF7B4FB04203549C87063
:100B3000000208803448FFF71DFB18203349C870B5
:100B40004FF400700880032088702F48FFF712FBD5
:100B500010202F49C87000010880032088702A489F
:100B6000FFF708FB4FF416502A49086000208881DF
:100B70000881C88088800C2048812748FFF756FEEE
:100B8000012240F225512448FFF72AFE0121224884
:100B9000FFF7E3FD00202149C88048802048006815
:100BA0002049B0FBF1F0401E1C49088040F2CF7094
:100BB00088801D48FFF748FD60201C4908800120FF
:100BC00048806420C880002008811748FFF7E4FCB3
:100BD00001211548FFF7B9FC08211348FFF728FD4C
:100BE000012211461048FFF7CDFC012202210E48D8
:100BF000FFF7C8FC064801880348FFF748FB00BF21
:100C0000FEE700001400002000080140180000204A
:100C10001C0000203C000020003801404C00002057
:100C200000000020A0860100002C0140560000209A
:100C3000500C0008000000203C000000680900087B
:100C40008C0C00083C0000202C04000078090008EF
:100C500000A24A040000000000000000010203049A
:100C60000607080900000000000000000000000066
:100C70000000000000000000010203040102030460
:0C0C800006070809020406080000000036
:04000005080000ED02
:00000001FF
