:020000040800F2
:1000000010050020450100084D0100084F010008BF
:1000100051010008530100085501000800000000CC
:100020000000000000000000000000005701000870
:1000300059010008000000005B0100087D0D000868
:100040005F0100085F0100085F0100085F01000810
:100050005F0100085F0100085F0100085F01000800
:100060005F0100085F0100085F0100085F010008F0
:100070005F0100085F0100085F0100085F010008E0
:100080005F0100085F0100085F0100085F010008D0
:100090005F0100085F0100085F0100085F010008C0
:1000A0005F0100085F0100085F0100085F010008B0
:1000B0005F0100085F0100085F0100085F010008A0
:1000C0005F0100085F0100085F0100085F01000890
:1000D0005F0100085F0100085F0100085F01000880
:1000E0005F0100085F0100085F0100085F01000870
:1000F0005F0100085F0100085F0100085F01000860
:100100005F0100085F0100085F0100085F0100084F
:100110005F0100085F0100085F0100085F0100083F
:100120005F0100085F0100085F0100085F0100082F
:10013000DFF80CD000F09AF800480047F90F0008EB
:10014000100500200648804706480047FEE7FEE706
:10015000FEE7FEE7FEE7FEE7FEE7FEE7FEE7FEE777
:10016000F90D00083101000880EA010210B502F023
:100170000043400022D04A001FD0010E01EB126163
:10018000C0F35600C2F3560240F4000042F40002ED
:10019000A0FB022000047F39140400D0401C50EA68
:1001A000124001D44000491EC2B20C0604EBD0102C
:1001B000401C4008802A02D003E0002010BD20F03F
:1001C0000100002900DA0020184310BD9623002208
:1001D000114600F01DB820F00040C10DC0F316001C
:1001E00040F400007F2901DA00207047962903DCE3
:1001F000C1F19601C8407047963988407047002980
:10020000A8BF7047401C490008BF20F0010070479C
:1002100010B4B0FA80FC00FA0CF050EA010404BFFC
:1002200010BC704749B1CCF1200421FA04F411FA52
:100230000CF118BF012121430843A3EB0C01CB1D96
:100240004FEA00614FEA102042BF002010BC704707
:1002500000EBC35010440029A4BF10BC7047401CE1
:10026000490008BF20F0010010BC7047064C074D44
:1002700006E0E06840F0010394E807009847103476
:10028000AC42F6D3FFF758FFB0680208D068020806
:1002900010B5012000F0C9F810BD00B597B00121DC
:1002A000080200F06DFC0020019002900A200390EB
:1002B00000200490059006900790022008900020EE
:1002C000099008200A9000200B900C900E900F903F
:1002D00010904FF4805011900020129013900D90C8
:1002E000149001A81590169008A800F0D7F80121E5
:1002F000022000F0B9F817B000BD000038B500F0DA
:100300004BFD0121202000F04BFC0121402000F09A
:1003100047FC0121802000F043FC0121080200F08D
:100320003FFC18208DF8030003208DF80200002404
:100330000CE01E4830F81400ADF800001C4951F8DC
:100340002400694600F01DF9601CC4B2082CF0DBE3
:1003500018480088ADF8000069461748006800F0AA
:1003600010F916480088ADF8000069461448006886
:1003700000F007F913480088ADF8000069461248FC
:10038000006800F0FEF8FFF788FF012000F056F843
:10039000382000F04AF80C2000F047F8062000F062
:1003A00044F8802000F041F838BD00003000002003
:1003B0001000002044000020400000204C000020DD
:1003C0004800002054000020500000202DE9F0419A
:1003D00005460E461746012D01D1802400E0C024B9
:1003E000701E2043C4B2204600F01FF80A2000F01F
:1003F00025F84FF0C84047700A2000F01FF8BDE80C
:10040000F0812DE9F04180460D4616461F46002436
:1004100007E0325D2819C1B24046FFF7D7FF601CE4
:10042000C4B2BC42F5DBBDE8F08110B504464FF024
:10043000C84004700A2000F001F810BD00214FF000
:10044000E02291610121064A11600649086000BF5F
:10045000044909680029FBD1014A11607047000076
:10046000040000200000002051B18200A2F1C0422F
:10047000126842F001038200A2F1C042136009E059
:100480008200A2F1C0421268034B1A408300A3F11C
:10049000C0431A6070470000FEFF0F00D0E9011250
:1004A0001143C268114302691143426911438269D1
:1004B0001143C2691143026A1143426A1143826ABD
:1004C0001143C26A1143026B114302689200A2F108
:1004D000C0421160816808290BD101688900A1F12F
:1004E000C041096841F0400201688900A1F1C041A2
:1004F0000A60416B0968426B526841EA0211426B23
:10050000926841EA0221426B928941EA0241426BC0
:10051000128A41EA0251426B127D41EA0261426B4A
:10052000926911430268521C9200A2F1C04211600C
:10053000C16AB1F5804F1BD1816B0968826B52682B
:1005400041EA0211826B926841EA0221826B128AAF
:1005500041EA0251826B127D41EA0261826B92692B
:10056000114302689200A2F1C042C2F8041107E0F0
:100570006FF0704201688900A1F1C041C1F8042107
:1005800070472DE9F0410246002500260020002397
:100590000024002791F803C00CF00F0591F803C068
:1005A0000CF0100CBCF1000F03D091F802C04CEA23
:1005B000050591F800C0BCF1000F31D0146800208F
:1005C0002BE04FF0010C0CFA00F3B1F800C00CEA7C
:1005D00003069E4220D183004FF00F0C0CFA03F764
:1005E000BC4305FA03FC4CEA040491F803C0BCF1D7
:1005F000280F06D14FF0010C0CFA00FCC2F814C011
:100600000AE091F803C0BCF1480F05D14FF0010C8E
:100610000CFA00FCC2F810C0401C0828D1D31460AA
:10062000B1F800C0BCF1FF0F34DD546800202EE0AB
:1006300000F1080C4FF0010808FA0CF3B1F800C003
:100640000CEA03069E4221D183004FF00F0C0CFAF6
:1006500003F7BC4305FA03FC4CEA040491F803C019
:10066000BCF1280F05D100F1080C08FA0CF8C2F80B
:10067000148091F803C0BCF1480F07D100F1080CB9
:100680004FF0010808FA0CF8C2F81080401C082846
:10069000CED35460BDE8F0810161704700B597B0DA
:1006A0000121080200F06CFA0020019002900A205B
:1006B0000390002004900590069007900620089073
:1006C000002009900A9010200B9000200C900E90B2
:1006D0000F9010904FF480501190002012901390C2
:1006E0000D90149001A81590169008A8FFF7D6FE5B
:1006F00001210620FFF7B8FE17B000BD10B5034674
:100700000C4699B2202000F035FAA1B2212000F069
:1007100031FA10BD10B5FFF7C1FF0121042000F030
:100720003FFA0121202000F03BFA0121402000F097
:1007300037FA0121802000F033FA0121080200F08D
:100740002FFA18209249C8700320887000240BE00B
:10075000904830F814008E4908808F4951F82400E1
:100760008B49FFF70EFF641C102CF1DB8B480088CF
:10077000874908808A480068FFF703FF8948008896
:100780008349088088480068FFF7FBFE8748008897
:100790007F49088086480068FFF7F3FE8548008897
:1007A0007B49088084480068FFF7EBFE10207849F9
:1007B000C87082480088088081480068FFF7E1FE21
:1007C0007E4801887E480068FFF766FF1820704960
:1007D000C8700121002000F0CDF94FF48071012094
:1007E00000F0C8F94FF4E061022000F0C3F941F2D3
:1007F0003001032000F0BEF90021042000F0BAF916
:1008000040F20221082000F0B5F90021092000F093
:10081000B1F900210A2000F0ADF900210C2000F010
:10082000A9F900210D2000F0A5F900210F2000F00A
:10083000A1F90021102000F09DF90021112000F005
:1008400099F90021122000F095F90021132000F001
:1008500091F941F2B071102000F08CF9372111208C
:1008600000F088F94FF49C71122000F083F94FF4E6
:10087000B851132000F07EF90D21292000F07AF9FB
:100880000021202000F076F90021212000F072F9EB
:100890000121302000F06EF940F20661312000F0B5
:1008A00069F94FF44171322000F064F940F20221FD
:1008B000332000F05FF940F20221342000F05AF9B1
:1008C00040F20311352000F055F940F21D11362099
:1008D00000F050F940F20441372000F04BF940F2AB
:1008E0000441382000F046F940F20441392000F07C
:1008F00041F94FF4E0613C2000F03CF940F61F2143
:100900003D2000F037F90021502000F033F9EF21AD
:10091000512000F02FF90021522000F02BF940F275
:100920003F11532000F026F94FF41C51602000F0D5
:1009300021F90121612000F01DF900216A2000F059
:1009400019F91021902000F015F90021922000F0F3
:1009500011F90321932000F00DF940F201119520C7
:1009600000F008F90021972000F004F900219820F8
:1009700000F000F92121072000F0FCF831210720C8
:1009800000F0F8F840F27311072000F0F3F810BD02
:10099000580000209C0000205C000020C0000020C7
:1009A000BC000020C8000020C4000020D0000020AF
:1009B000CC000020D8000020D4000020E00000205F
:1009C000DC0000202DE9F04F87B005468846002660
:1009D0000027B14600200290287F039095F80AB0C6
:1009E0000398182875D100246EE00BEB0400285CF6
:1009F0000690B9F1000F0CD10698FFF7E7FB5C49B0
:100A00000090FFF7B1FB0190FFF7E5FBC0B2059046
:100A10001EE0B9F1010F0CD10698FFF7D7FB54493E
:100A20000090FFF7A1FB0190FFF7D5FBC0B2049047
:100A30000EE0B9F1020F0BD10698FFF7C7FB4C4946
:100A40000090FFF791FB0190FFF7C5FB00F0FF0A54
:100A500009F1010000F0FF09B9F1030F33D1CDF81E
:100A600008A0DDF808A004984AEA801002900599D1
:100A7000029840EA013080B20290B8F1020F07D12B
:100A8000701C86B2F02E0ED10026781C87B20AE0C8
:100A9000B8F1010F07D1781C87B2B7F5A07F02D15A
:100AA0000027701C86B239463046FFF727FE3946CC
:100AB0003046FFF723FE2220029900F05BF84FF04A
:100AC000000900200290641CB4F5613F8DD34CE016
:100AD000FFE70398102848D1002443E00BEB040003
:100AE000401C285C00F0F80005900BEB0400285C2B
:100AF00041090BEB0400401C285C00F0070041EAB0
:100B0000C00004900BEB0400285C00F01F0A05985D
:100B1000000202900299049841EA40100290029863
:100B200040EA0A000290B8F1020F07D1701C86B2A9
:100B3000F02E0ED10026781C87B20AE0B8F1010F22
:100B400007D1781C87B2B7F5A07F02D10027701CAF
:100B500086B239463046FFF7D1FD2220029900F0D7
:100B600009F8A41CB4F5163FB8D307B0BDE8F08F60
:100B70000000EA424FF0D8421080518070470000D8
:100B800029B1064A52690243044B5A6104E0034A00
:100B900052698243014B5A617047000000100240C5
:100BA00029B1064A92690243044B9A6104E0034A60
:100BB00092698243014B9A61704700000010024025
:100BC00030B500210022002400232D4D6D6805F072
:100BD0000C0121B1042905D0082923D105E0294DB4
:100BE000056022E0274D05601FE0254D6D6805F486
:100BF0007012234D6D6805F48034022505EB924296
:100C00001CB9214D554305600BE01D4D6D6805F481
:100C100000351DB11C4D5543056002E0194D55438B
:100C2000056002E0174D056000BF00BF144D6D6800
:100C300005F0F0010909154D6B5C0568DD40456064
:100C40000F4D6D6805F4E061090A104D6B5C456855
:100C5000DD4085600A4D6D6805F46051C90A0B4D91
:100C60006B5C4568DD40C560054D6D6805F440412D
:100C7000890B074D6B5CC568B5FBF3F5056130BDAD
:100C80000010024000127A0000093D00F800002028
:100C90000801002010B500F001F810BD0CB50020CF
:100CA000019000903348006840F48030314908607A
:100CB00000BF3048006800F4003000900198401CEC
:100CC0000190009818B90198B0F5A06FF1D12948AA
:100CD000006800F4003010B10120009001E0002015
:100CE00000900098012843D12348006840F010008C
:100CF000214908600846006820F0030008600846A3
:100D0000006840F0020008601A48406819494860CD
:100D10000846406848600846406840F48060486083
:100D20000846406820F47C1048600846406840F45B
:100D3000881048600846006840F08070086000BF76
:100D40000C48006800F000700028F9D0094840689D
:100D500020F00300074948600846406840F0020060
:100D6000486000BF0348406800F00C000828F9D133
:100D70000CBD000000100240002002400448006842
:100D8000012804D103480068401E024908607047EA
:100D9000040000200000002030B5144800684FF423
:100DA0007A72B0FBF2F1B1F1807F00D31DE021F047
:100DB0007F40401E4FF0E022506150170F22002864
:100DC00007DA13071D0E0A4B00F00F04241F1D55F0
:100DD00003E013071C0E074B1C5400BF00204FF00C
:100DE000E02290610720106100BF30BDE4000020C8
:100DF00018ED00E000E400E010B51348006840F092
:100E000001001149086008464068104908400E4931
:100E10004860084600680E4908400B4908600846CB
:100E2000006820F4802008600846406820F4FE0036
:100E300048604FF41F008860FFF72CFF4FF0006000
:100E40000449086010BD0000001002400000FFF8D7
:100E5000FFFFF6FE08ED00E02DE9F04786B00446FE
:100E60000D4616461F46DDE90F9ADDF8388004204E
:100E70008DF81700194830F81400ADF8140018491F
:100E800051F8240005A9FFF77CFB18208DF813000A
:100E900003208DF81200134830F81400ADF810004C
:100EA0000F4951F8240004A9FFF76BFB00960020BE
:100EB000ADF80C00ADF80890ADF806A0ADF80470E0
:100EC000ADF80A806946284600F01AF80121284644
:100ED00000F00AF806B0BDE8F08700000E00002020
:100EE000080000200C00002021B1828942F4005249
:100EF000828104E082894DF6FF731A408281704737
:100F00002DE9F04786B005460E460024A24600BFF4
:100F1000A1460027B08900B100BF2F462C8A4CF6AD
:100F2000FF700440F08804432C82AC894EF6F31025
:100F30000440B08831890843718908430443AC8177
:100F4000AC8A4FF6FF400440B0890443AC8201A84C
:100F5000FFF736FE1F48874202D1DDF810A001E0FE
:100F6000DDF80CA0A88900F4004040B10AEBCA00EB
:100F700000EB0A1031684900B0FBF1F807E00AEB1A
:100F8000CA0000EB0A1031688900B0FBF1F8642058
:100F9000B8FBF0F004012009642101FB1089A88945
:100FA00000F4004040B1322000EBC900B0FBF1F08A
:100FB00000F00700044308E0322000EB0910642130
:100FC000B0FBF1F000F00F0004432C8106B0BDE847
:100FD000F08700000038014002E008C8121F08C175
:100FE000002AFAD170477047002001E001C1121FAA
:100FF000002AFBD1704700000EB501218803FFF7DE
:10100000CFFDFFF7C9FE00200C22CDE900200346EA
:101010004FF416520F490290FFF71EFFFFF77AFBBD
:101020000120FFF70BFAFFF769F90120FFF706FA35
:101030000FE0FFF72DF9082307A201210846FFF76B
:10104000E0F900210846FFF759FB02210548FFF7A8
:10105000B9FCEEE7003801406675636B20796F7567
:101060000000000068100008424D465802000000D1
:1010700000004600000038000000F0000000C0FE44
:10108000FFFF010010000300000000580200C40E22
:101090000000C40E0000000000000000000000F886
:1010A0000000E00700001F00000000000000DDEF6E
:1010B000DDEFBCEFBCEFBCF7DDF7DDF7DDF7DDF70B
:1010C000DDF7DDF7BCF7BCF7DDF7DDF7BCF7BDF703
:1010D000BCF7BDF7BDF7DDF7DDF7BDF7BCF7BCF733
:1010E0009CEFBCF7BCF79CEF9CEF9BEF9BEF7BEF7B
:1010F0003AE7D9D657CEB5B512A5908C0E7C6C6B5D
:101100000B63A95268424742073AE631E631E631BD
:10111000E631E631E631C631A5298529642164210D
:10112000642164216421852985298529642164211C
:101130006421642164216421642164216421642187
:101140008521852985298521852985298529852147
:1011500064216421642164216421442144214421C7
:101160004421442144214421442144214421232178
:101170004421442144214421442124212421442187
:101180004421442144216521652144214421242115
:10119000241924192419031903190319E318E3184E
:1011A000E3180319031903192419242144212421C4
:1011B000241903190319031903190319031903192E
:1011C0000319E318E318E3180319031903190319A2
:1011D00023192319231903190319031903190319CF
:1011E000031923192321242124212421242124210A
:1011F00025212521242124212421242124212421C5
:1012000024212421242124212421242124212421B6
:101210002421242124212421242123190319031901
:101220000319031903192321442144214421442192
:1012300044216421652985298529A529C531C53120
:10124000C531E531E631E631273A6842C9520B5BD8
:101250008D6B4F84F29494AD37BED9D63ADF5ADF06
:101260007BE79BE79BEF9BEF9BEF9CEFBCEF9CEF3B
:101270009CEF9BEF7BEF7BEF7BEF9BEF9BEF9BEF7D
:101280007BEF7BEF7BEF7BEF7BEF9BEF9BEFDCEF6D
:10129000DCEFBCEFDCEFBCF7BCF7BCEFBCEFBCF79E
:1012A000BDF7DDF7BDF7BDF7DDF7BDF7BCF7BCF760
:1012B000BCF7BCF7BDF7BDF7BDF7BCF7BCF7BCF793
:1012C000BCF7BCF7BCF79CEF7CEF7BEF5BE71ADF6A
:1012D000B9D637C694B5D194EE7B4B63EA5AA9527E
:1012E000684A2742073A063AE631C631A531C63187
:1012F000C631C631C631A5298529642964216421F6
:10130000642164216421852985298529642164213A
:1013100064216421642164216421642164216421A5
:1013200064218521852164218521852185298521C7
:101330006421642164214421442144214421442125
:1013400044214421442144214421442124212321B6
:1013500023214421442144214421242124212421E6
:101360002421442144214421652144214421242174
:101370002419031903190319E318E318E3180319CF
:101380000319031903192419242124214421242198
:1013900024192419241924190319031903190319E9
:1013A000031903190319031903190319031903195D
:1013B000031923192319031903190319031903190D
:1013C0002319231923212421242124212421242108
:1013D00024210419041904190419041904190419FD
:1013E00004190419041904190419041904192421ED
:1013F0002421242124212421242103190319031940
:1014000003190319031923192421442144214421D8
:10141000442144216421642985298529A529A529F8
:10142000A529A529A529A529C531063A4742894AF2
:10143000EA5A8C6B2F7CD194B4AD77C6F9D63ADFDB
:101440007BE79BE79BE79BEF9BEF7BE79BE79BEFB4
:101450009BEF7BEF7BEF7BEF7BEF7BEF7BEF7BEF1C
:101460007BEF7BEF7BEF7BEF7BEF9BEF9BEFBCEFAB
:10147000BCEFDCEFDDF7DDF7DDF7BDF7BCF7BCF760
:10148000BCF7BDF7BDF7BCF7BCF7BCF7BCF7BCF7C2
:10149000BCF7BCF7BCF7BCF7BCF79CEF9CEF9CEF2C
:1014A0009CEF9CEF9CEF9CEF7BEF5BE7FADE98CE26
:1014B000F6BD53A5908CCD732B63A952884A274261
:1014C000073AE631C531C531A529A529A529A529A0
:1014D000A531A531A52985296429642164216421C8
:1014E00064216421642185298529642164214421A2
:1014F00044214421442144214421442144216421A4
:1015000064218521852164218521852185298529DD
:101510008521642144214419431944214421442153
:1015200044214421442144214421242123212319FD
:101530002319231923214421442124212421242156
:1015400024212421442144214421442144212421D3
:1015500024190319E318E318E318E318E31803192F
:101560000319031924192419242144214421442155
:1015700024212421242124192419031903190319CE
:101580002419241903190319031903190319231919
:10159000231923192319231923192319231923196B
:1015A00023192319231924214421442144212419D6
:1015B00024190419031903190319E318E31803196B
:1015C000031903190319031903190319031924191A
:1015D000241924192421242124212319231923190E
:1015E00023192319231923212421242124212421EF
:1015F0002421442144216421642184298529A529A9
:1016000085298429842985298529C631E631273A07
:10161000894AEA526C632F7C329D16BEB8CE19DF20
:101620005BE79BE79BE79BE79BE79BE77BE77BE72A
:101630007BE77BE77BEF9BEF9BEF9BEF9BEF9BEFCA
:101640009BEF9BEF9BEF7BEF7BEF9BEF9BEFBCEF69
:10165000BCEFBCEFDCEFDDF7DDF7BDF7BCF7BCF7A7
:10166000BCF7BCF7BCF7DDF7BDF7BCF7BCF79CEFE8
:10167000BCF7BCF7BCF79CEF9CEF9CEF9CEF9CEF9A
:101680009CEF9CEF9CEF7BEF5BE71ADF98CED5B524
:10169000129D4F84AD730A5B884A47422742274216
:1016A000E639C531A531A529A529A529C631A53118
:1016B000A531A529A52985296429642164216421EE
:1016C000642164216421642964214421442144214A
:1016D00044214421442144214421442144216421C2
:1016E0006421642164216421852185218529852146
:1016F000852164214421231923192319232123211E
:10170000232144214421242123212321232123197E
:10171000231923192319242144212421242124219C
:101720002421242144214421442144212421241919
:1017300003190319E318E318E318E318031903194D
:101740002419241924192421442144214421442109
:101750004421442124212421241924192419242139
:1017600024214421242124190319031903192319BD
:101770002319231923192319231923192319231989
:101780002319231923192319242124214421242135
:1017900023190319231903190319E3180311031952
:1017A0000319E31803110319031903190319241961
:1017B00024192419242124212421442144214421B1
:1017C00044212421242124212421242124212419D9
:1017D0002419242144214421642164218429842959
:1017E00064216421842985298529A529C631E63902
:1017F0004842894A0B5BCD73B18C94AD36BEB8CEEE
:101800001ADF5ADF5ADF7BE77BE77BE77BE75BE7A3
:101810007BE77BE77BE79BEF9BEF9BEF9BEF9BEFF0
:101820009BEF9BEF9BEF7BEF7AEF9BEF9BEFBCEF88
:10183000BCEFBCEFBCEFBCEFBCEF9CEF9CEF7BEFD1
:101840007BEF7CEF9CF7BDF7DDF7BDF7BDF7BCF78D
:10185000BCF7BCF7BCF79CEF9CEF9CEF9CEF9CEFB8
:101860009CEF9CEF7BEF3AE7F9DE57C6B5B5D19414
:101870000F846C6BEA5A884A0742C639A531C631D3
:10188000A531A531A531A531A531A531A529C6318F
:10189000A531A52985298529852964296421642103
:1018A00064216421642164214421442123194419C1
:1018B0004419441944214421642164216421642190
:1018C00064216421642164216421642185216421CF
:1018D00064214421242123192319231923192319AD
:1018E0002319231923192319231923192319231918
:1018F0002319231923212421442144214421442153
:101900004421442144214421442124212419031940
:101910000319E318E318E318E3180319031924194A
:10192000241924192421242144214421442144211F
:101930004421442144212421241924192419242137
:10194000442144214421242123192319231924212A
:101950002421242123192319031903190319031915
:101960000319231923192319231924212421441984
:1019700043192319231923192319031903110311D7
:101980000311031103110319031103190319231977
:1019900024192419231944194419442144214421A8
:1019A0004421642144214421442144212421231938
:1019B000231923192319232144214421642144217B
:1019C000432144216421642985298529A529C6311B
:1019D000E6394842A94A4B630E7CD18C73A5F5B514
:1019E00077C6F9D619D73AD75ADF7BE77BE77BE78B
:1019F0007BE77BE77BE79BEF9BEF9BEF9BEF9BEF0F
:101A00009BEF9BEF9BEF9BEF7BE77BE79BEF7BE7FE
:101A10007BE77BE77BE77BE77BE75BE75BE71ADF5F
:101A20001ADF3BE77BEF9CEFBCF7BCF79CF79CEF22
:101A3000BCF7BCF79CEF9CEF9CEF9CEF9CEF7BEF1F
:101A40007BEF5BE71ADFB9D657C694ADD194CD735F
:101A50002B63A952684A2742E639C631A531853140
:101A60008531A529A531C631C631C631A531A52993
:101A7000A529852985298529852985296429642120
:101A80006421642164216421442123192319231929
:101A90002319441944196421642164218521852175
:101AA000852164216421642164216421642144210D
:101AB0004421242123192319231923192319231914
:101AC0002319231923192319231923192319231936
:101AD0002319231923192421442144214421442179
:101AE0004421442144214421242124190319E318C9
:101AF000E318E318E318E318E318031903190319AB
:101B000003192419241924212421242124214421C6
:101B1000442144212421241924192419241924217D
:101B20002421442144214421231923192319242148
:101B3000242123192319031903190319031903195C
:101B400003190319031923192319231923194319F5
:101B5000431943192319231923192319231903118D
:101B6000031123192319231923190311031123190D
:101B7000031923192319231923192421442164212A
:101B800064216421642164214421442144212421CD
:101B900023192319231923212321432143214421DC
:101BA0004321442164216421852985298529A5298A
:101BB000C631073A4842C9526C630E749084329D14
:101BC000B4AD56BE97C6D8CE3ADF5ADF7BE79BE767
:101BD0007BE77BE79BE79BE79BE79BEF9BEF9BEF1D
:101BE0009BEF9BEF9BEF9BEF7BE77BE77BE777C66A
:101BF00077C657C657C657C657C637C636C616BE67
:101C000036C657C678CED9D63AE77CEF9CF79CEF1C
:101C1000BCF7BCF79CEF9CEF9CEF9CEF7BEF5BE786
:101C20005BE71ADF98CE16BE73ADB094ED7B0A5B0E
:101C3000A9522742063AC639C631C531A531A53168
:101C4000A631A631A531A631A631C631C631A529A6
:101C5000A52985298529852985298529852964211D
:101C6000642964296421642144214421231923190E
:101C700023192319442144216421642165298529DC
:101C80006529642164216421442144216421442183
:101C90002421231923192319242123212321442119
:101CA000442143192319231923192319231903192B
:101CB00003192319231923194421442144214421C0
:101CC000442144214421242124190319031903190F
:101CD0000319E318E318E318E318E31803190319C9
:101CE0000319031924192421242124212421442106
:101CF00044214421241924192319231923192319B0
:101D0000231944194419441944194419441923192D
:101D10002319231923190319031903190319031983
:101D20000319031903190319231923192319431933
:101D30004319431923192319231923192319231983
:101D40002319431943192319231923192311231183
:101D5000031903192319231923192319431944219A
:101D600064216421642164216421442144214421AB
:101D70002421231923192319231923192321442149
:101D80004421442164216421652965298529852907
:101D9000C631E631273A6842CA524B5BAC6B4F7C86
:101DA000D19473A5D4AD56BED8CE19D75ADF5ADF19
:101DB0007AE77AE79BE77AE77AE79BE79BE79BEF8F
:101DC0009BEF9BEF9BEF9BEF9BE79AE79BE7329D97
:101DD000129D129DF194D194D194D194B194B09468
:101DE000D194F19C12A594B577CE1AE77CEF9CEFC5
:101DF0009CEF9CEF9BEF9CEF9CEF7CEF7BEF3AE737
:101E0000F9DE78CED5B532A5708CAD730A5B884A01
:101E10004742063AE639E639E639C639C531A631D0
:101E2000C631C631C631C631A531A529A529A52996
:101E3000A529A5298529852985298529852964211B
:101E400064296429642964214421442144212319FB
:101E50002319242144214421442164216421642143
:101E6000642164216421442144214421442124210A
:101E700023192319231944214421442144214421B5
:101E800044214421441943192319231923190319FF
:101E9000031903190319231944214421442144211E
:101EA000442144214421242124190319031903192D
:101EB000031903190319E318E318E3180319E318C6
:101EC000E318031903192419242124212421441976
:101ED00044214421241923192319231923192319CF
:101EE000231923194419441944194419441923196D
:101EF00023192319031903190319031903190319C2
:101F000003190319031903190319031923192319B1
:101F100023192319231923192311231923192319E9
:101F2000431944194419441923192319231923194E
:101F30002319231923192319231943194419442157
:101F400044216421642164216421442144214421E9
:101F50002421231923192319231923192319231998
:101F600023192421442164216421652965298529B7
:101F7000A629C631E631273A6842C94A0A5BAC6BEA
:101F80002E7CB08C329DD4AD56BED8CEF9D619D7A2
:101F90003ADF7AE77AE77AE77AE77AE79BE79BEF37
:101FA0009BEFBBEFBBEF9BEF9BE79AE79BEF6F8449
:101FB0004F842F7C0E7C0E7C0E7CEE7BED7BCD73F4
:101FC000AD73CD732E84B19474AD36C698CED9D688
:101FD000F9DE1ADF3AE73BE75BE75BE71ADFD9D6C2
:101FE00057C6B5B5F29C2F846C6BCA5A684A073A3B
:101FF000E639C631C639E639C639C631C631A631E9
:10200000A631C631A631A531A529A529A52985293D
:102010008529A52985298529852985298529642159
:1020200064216421642164216421442144214421E8
:1020300044214421442144216421642164216421F8
:102040006421642164214421442144214421232129
:1020500023212421242144214421442144214421B9
:1020600044214421442143192319231923192319F5
:1020700003190319231944214421442144214421F3
:1020800044214421442124212421241924192419E0
:1020900024192419031903190319E318E318E31881
:1020A000031903190319031924192419242144219C
:1020B000442144214421242124190319031903191B
:1020C0000319231923192319231923192319231950
:1020D0000319031903190319031903190319031920
:1020E00003190319031903190319031903192319F0
:1020F00023192319231923192311231123194419EF
:1021000044196421641944194419441943192319C1
:102110002319231923192319231923194419442195
:102120006421642144214421442144214421442147
:1021300044214421231923192319031903192319AD
:10214000231924214421442165216521652165212C
:1021500065298529A529E631073A473A88420A5375
:102160006B63ED738F841195B4AD36BEB8C6F9D6E6
:102170003ADF5ADF7AE77AE77AE79BE79BE7BBEF3C
:10218000BBEFBBEF9BEF9BE79BE79BEF9BEF2E7CAF
:102190002E7C0E7CED73AD73AC6B8C6B8C6B6C6BAF
:1021A0008C6BAC73AD73ED7B4F84F19C53A594ADF8
:1021B000F5BD36C657C698CED9D6B9D698CE57C62D
:1021C000D5B5129D4F848C6BEA5A684A2742E6398E
:1021D000C631A531A531C631C631A531A53185310C
:1021E0008531852985298529852985298529852977
:1021F00085298529852985298529852985294421B8
:102200004421642164216421642144214421442126
:102210004421442144214421442164216421642136
:1022200064216421442144214421242124212321A7
:1022300023212421242144214421442164214421B7
:10224000442144214419431923192319231923191B
:1022500023192319442144214421442144214421A8
:102260004421442144214421442144212421242186
:102270002421241924190319031903190319031913
:1022800003190319031903192419241924214421BA
:102290004421442124212419031903190319031982
:1022A000031903190319031903190319031903194E
:1022B000031903190319031903190319031903193E
:1022C0000319031903190319031903190319031136
:1022D000031103112311231103112311231944198D
:1022E00044196421641944194419441944194419BE
:1022F0004319231923192319231923194419442194
:1023000044214421442144214421442144214421A5
:10231000442144212319231903190319031903190B
:1023200023192419242144214421442144216529CD
:1023300085298529A529C631E631073A473AA84AB1
:10234000E9524B5BED6B6F843295D4AD56BED8CE5F
:1023500019D75ADF7AE77BE79BE79BE79BE79BE789
:102360009BE79BEF9BE79AE79BE79BEF9BEFED7368
:10237000ED73ED73AC6B8C6B6B634B634B634B63B7
:102380006B6B6C6B6C6B6C6BAC73ED7B2F84908C9C
:10239000F19C53A594ADD5B516BE16BEF5BD74AD72
:1023A000F29C2F846C6BCA5A684A0742E639C531E1
:1023B000A52985298531A531A531A5318531852905
:1023C0008529652965296421642164296429642992
:1023D00064296429642964296529642964294421BC
:1023E0004421442144216421642144214421442185
:1023F00044214421442144214421442144214421B5
:102400004421442144212421232123192319232158
:1024100024212421442144214421442144214421D4
:102420004421442123192319231923192319232172
:1024300044214421442144214421242144212421B4
:1024400024214421442144214421442144212421A4
:102450002421242124212419031903190319031900
:102460000319031903190319241924192419242100
:1024700024212421242124190319031903190319E0
:1024800003190319031903190319E318E318E318CF
:10249000E318E318E31803190319031903190319BF
:1024A0000319031903190319E318E318E310E310E0
:1024B0000311031103110311031103192419241922
:1024C0004419441944194419441944194419241944
:1024D0002419241924192319231923192319232111
:1024E0002421242124212421442144214421442144
:1024F000442124212319231923190319031903192A
:102500000319241924214421442145214521652909
:10251000652985298529A529C631E631063A473A34
:10252000A84AE9524B63CD6B9084529DF5B597C68E
:10253000D8CE19D75ADF7ADF9BE79BE79BE79BE76B
:102540009BE7BBE79BE79BE79AE79BE79BEFCD7396
:10255000CD73CD6BAC6B8C6B6B636B636B634B63DD
:102560004B636B6B6B6B8C6B8C6BAC73CD73EE7B5B
:102570002F84708CB094D194F29CD194B1944F84F8
:10258000CE7B4B63C952684A2742E639C631A5293A
:10259000852985298531A531A531A631A631853119
:1025A0008529652944294421442144214421642169
:1025B000642164216421642964296429442144211B
:1025C000442144214421642164296421442164215B
:1025D0004421442144212421242124212421442153
:1025E00044214421442124212319031903192421BE
:1025F00024212421442144214421442144214421F3
:1026000044212319231903192319231923192321D9
:1026100044214421442144214421242144212421D2
:102620002421242124212421242124212421242182
:1026300024212421242124192419031903190319FD
:1026400003190319031924192419241924212419FD
:102650002421242124190319031903190319031927
:10266000031903190319031903190319E318E318CC
:10267000031903190319031903190319031903197A
:1026800003190319E318E318E318E318E318E31038
:102690000311031103110311031103110319041989
:1026A0002419241924192419441924192419241922
:1026B0002419231903190319031923192319231999
:1026C000231903190319241924192421242124214D
:1026D000231923192319231923190319031903197A
:1026E000241924192421442144214521452165210F
:1026F0006521642164218529A529C631E631073A7F
:102700006842A94A2A5B8C634E7CF194B4AD56BEF4
:10271000B8CE19D73ADF7BDF7BE77BE79BE79BE708
:102720009BE7BBE79BE79BE79AE79BE79BE7CC6BC5
:10273000AC6BAC6BAC6B8B636B636B638B636B630E
:102740006B634B636B636C6B6C6B6C6B6B638C6BF5
:10275000AC73CD73CD73CE7BCD73AD738C6B4C638B
:10276000EA5AA952484A2742E639C631A531852995
:102770008529A529A5298531A631A631C631A631DD
:10278000853165294429442144214421442144219F
:102790006421642164296429642964294421442131
:1027A0002421242144214421642144214421442121
:1027B0004421442124212421242124212421442191
:1027C00044214421442123210319031903192421FD
:1027D0002421242144214421442144214421242131
:1027E000231903190319E3180319031923192321C2
:1027F00044214421442124212421442144214421F1
:1028000024212421241924192419242124212421B8
:1028100024212421242124192419031903192419FA
:102820002419242124212421242124212421242188
:102830002421041904190319E318E318E3180319F0
:102840000319031903190319031903190319E318C9
:10285000031903190319031903190319E3180319B9
:10286000E318E318E318031903190319E318E3182D
:10287000E310E318E310E310E310E310E31004198E
:102880000419041904190419241904190419031941
:102890000319031903190319031903190319032150
:1028A0000321031903190319031903190319031940
:1028B0000319031903192419241924192419241993
:1028C0002419242124214421442144214421442148
:1028D0004421442144218529A529A531C631E63169
:1028E000273A8842E9524B5BED73B08C539DF5B5A6
:1028F00057C6D9CE19D75ADF5ADF5ADF7ADF7AE7BF
:102900009BE79AE79BE79AE79AE79AE79AEF8B6348
:102910008B638B638B636B636B636B636B636B63E7
:102920006B636B636B636B636B634B634B636B6B6F
:102930006C6B6C6B6C6B6C6B4C6B2B630A5BA95296
:10294000684A48422742E639E639C631A531A52909
:10295000A531A531A52985318531A631A631852935
:1029600065296429442144214421442144216421CE
:10297000642964296429652965296429442144213D
:1029800044214421442144216421442144214421FF
:1029900044212421232123192321242124214421DA
:1029A000442144214421232103190319031924211B
:1029B00024212421242124212421242124212319F8
:1029C00003190319E318E318031903190319232141
:1029D000242144212421242124214421442124216F
:1029E0002421241903190319031924192421031973
:1029F00003192419241924212421242124212421E8
:102A00002421442144214421242124212421041966
:102A1000041904190319E318E318E318E318E31879
:102A2000E318031903190319031903190319E31808
:102A3000031903190319031903190319E318E318F8
:102A4000E318E318E318E3180319E318E318E31095
:102A5000E310E310E318E310E310E310E318E318C6
:102A600004190419E31804190419041904190319A1
:102A70000319E318E31803190319031903190321B0
:102A8000031903190319E318E318E31803190319C9
:102A900003190319031924192419241924192421A9
:102AA000242144214421442144214421442144211E
:102AB000442144214421642185298529A529C53142
:102AC000E631263A6842C94A6B632E7CD19473A5DD
:102AD000F5B577C6D9CE19D73ADF3ADF5ADF7AE7AC
:102AE0007AE79AE79BE79BE79AE79AE79AEF8B6387
:102AF0008B636B636B636B636B634B636B634B6386
:102B00006B636B636B634B634B634B634B632B6315
:102B10002B632B632B632B630A5BCA5AA952684A47
:102B200047422742073AE639E639C639C631A53168
:102B3000A531A5298529852985298529652965291D
:102B4000452944214421442144214421642164290C
:102B500085298529852985296529642964294429A8
:102B600044296429642964296429442944212421AD
:102B70002421231903190319231923212421442172
:102B80004421442144212321031903190319231942
:102B9000232124212421242124212421242123210F
:102BA00023190319031903190319231923212421B4
:102BB0004421442144214421442144214421241915
:102BC00024190319031903190319241924190319C2
:102BD00003192419242124212421442144212421BE
:102BE0002421442144214421242124212421041985
:102BF00004190419E318E318C310C310C310E31831
:102C0000E318E3180319E318E31803190319031968
:102C100003190319E318E31804190319E318E31857
:102C2000E310E310E310E318E318E318E310E318EC
:102C3000E318E318E318E318E318E318E418E318BB
:102C4000E318E318E318E418041904190419041923
:102C5000041903190319E3180319031903190319B4
:102C6000E318E318E318E318E310E310E318E3189C
:102C7000031903190319241924192419242144219F
:102C8000442144214421442144214421442144211C
:102C90004421442144216421652964298529A529E9
:102CA000A529C531063A273AA94A4B63ED73B08C82
:102CB000329DF5B557C6B8CEF9D63ADF7ADF7AE756
:102CC0007AE79BE79BE79BE79BE79AE79AE78B63AB
:102CD0006A636A636A636B636B634A634A636B63C9
:102CE0004B634B634B632B632A5B0A5BEA5AEA5ADA
:102CF0000A5B0A5BEA5AEA5AC952894A48422742A1
:102D0000073A073A073AE639E639E639C631A531D6
:102D1000A529852965296529652965296529452903
:102D20004421442124214421442164216421652932
:102D3000852985318529852985296429642964297E
:102D400064296429642964294429442144212421D3
:102D500023190319031903190319232124214421D9
:102D600044214421242123190319031903190319A8
:102D70002319232124212421242124212421242135
:102D800024212319231923192321232144214421F8
:102D9000442144214421442144214421242124214B
:102DA0002421242124212421242124212421031924
:102DB0000319242124214421442144214421442174
:102DC0002421242124212421242124212421041903
:102DD00004190419E318C310C310C310C310C3109F
:102DE000E318E318E318E318E318E318E3180319EA
:102DF00003190319E310E31803190319031903193D
:102E0000E318E318E318E318E318E318E310E318F2
:102E1000E318E318E318E318C310E318E318E31802
:102E2000E318E318E318E41804190419E418041962
:102E30000419031903190319031903190319E318D2
:102E4000E318E318E318E318E310E310E318E318BA
:102E500003190319031903192419241924194421E6
:102E6000442144214421442144214421442124215A
:102E700044212421242144216421642164216421EA
:102E800084298429A529C531273A884A0A5BAC6B75
:102E90006F84329DB4AD36BE98C6D9D63ADF5ADFBC
:102EA0007AE77AE79AE79BE79BE79BEF9AEF8B63DA
:102EB0008B636A636A5B6B5B4A5B4A5B4A5B4B5B37
:102EC0004A5B2A5B0A5BEA5AEA52C952C952C952A2
:102ED000C952C952A952A94A884A48422742073AC8
:102EE000E639E639E639C639C631C631C5318531EC
:102EF000852985296529652965296529652944214B
:102F00004421242144214421442144296429852940
:102F1000852985318531853185298529642964296B
:102F20006429642964294421232123214421242163
:102F3000231903192319031903190319242124211F
:102F40002421242123210319031903190319031927
:102F5000032103212321242124212421242123218D
:102F60000321031903190321242123210321032110
:102F7000032123212421242144212421242124212B
:102F8000242124212421242124212421042103215A
:102F900024212421442144212421242144212421A9
:102FA0002421242124212421242124212421041921
:102FB0000419E318E318C310C210A210A210C21023
:102FC000C310E318E318E318E318E318E318031930
:102FD0000319E318E318E318E318E3180319E318D7
:102FE000E318E318E318E318E318E318E318E31809
:102FF000E318C310C310C310C310C310E318E318C1
:10300000E318E3180319E318E31803190319041963
:103010000419042104190319E31803210321E318F7
:10302000E318E318E318E310E310E310E310E318E8
:10303000E318031904192419241924192419242123
:103040002421442144214421442144214421242198
:103050004421442144214421442144214421442148
:10306000442164298429A529C631273A68420A5394
:103070008C6B4F84F19494AD36BE98CE19DF3ADF55
:103080005AE77BE79BE7BBEFBBE79BE79BE78B63DD
:103090006B636A5B6A5B4A5B4A5B2A5B2A5B0A5B1F
:1030A0000A53E952C952C952C952C952C952A95206
:1030B000A952A94A884A884A68422742073AE6390B
:1030C000E639C639C631C531A531A531A5318531BD
:1030D0008529852965296529652965296529442961
:1030E0004429442944294421442144296429852927
:1030F0008529852985318529852985296529642999
:10310000442144214421442123212321232124211A
:10311000231903192319031903190319232124213E
:103120002421242123210319031903190319031945
:1031300003210321232124212421242123212321AC
:103140000321031903190321032103210321031977
:1031500003190321032124212421242124212421B2
:103160002421242124212421242124210321032179
:103170000421242124212421242124212421242147
:10318000242124212421242124212421242104193F
:1031900004190319E318C310C210A210A210A21040
:1031A000C210C310C310C310C310C310E318E31838
:1031B000E318E318E318C310C310C310E318E318AF
:1031C000E318E318E318E318E318E318E318E31827
:1031D000E318C310C310C310C310C310C310E31807
:1031E000E318E318E318E318E318E318E318E31807
:1031F000031903190319E318E318E318E318E31894
:10320000E318E318E318E310E310E310E310E3100E
:10321000E310E3180319041924192419241924218B
:103220004421442144214421442144214421442176
:103230004421442144214421442144214421442166
:103240004421442144216429A529E631073A6842F2
:103250000A538C6B2F7CF19474A516BEB8CEF9D6A8
:103260001ADF5ADF7BE79BE79BE79AE79BE76A5BFE
:103270006A5B6A5B6A5B4A5B4A5B2A5B2A5B09534F
:10328000E952C952C952C952C952C952E952C95226
:10329000A952884A684A684247422742063AE639B4
:1032A000E639C631A531A531A531A531A531853124
:1032B000852985296529652965296529652945297E
:1032C00065296529652944294429642964298529B2
:1032D00085298529852985298529852965296429BF
:1032E000442144214421432123212321032124215A
:1032F00023190319031903190319031903192319AE
:103300002319231903190319031903190319032195
:1033100003190321032124212421242123212321F2
:103320000321031903190319031903190319E318D6
:10333000E318031903190321242124212421242122
:1033400024212421242124212421042103210321B7
:103350000321242124212421242124212421042186
:103360000421242124212421242124212421242155
:1033700004190419E318C310A210A21082088208CD
:10338000A210C210C210C210C210C310C310E318A2
:10339000E318C310C310C310C310C310E318C31045
:1033A000C310E318E318C310C310C310C310C31035
:1033B000C310C310C310C310C210C310C310E3184E
:1033C000E318E318E318E318E318E318E318E31825
:1033D000E318E3180319E318E318E318E318E318F4
:1033E000E318E318E318E310C210E210E310E3104F
:1033F000E318E318031904192419241924192421A2
:103400004421442144214421442144214421442194
:1034100044214421442144212421232123214421E6
:1034200044214321442164218429A531E631063A0F
:10343000884AEA528C6B2E7CB18C73A516BE97C657
:10344000D8D619DF5AE77AE77AE77AE79AE74A5B4C
:103450004A5B4A5B4A5B4A5B2A5B2A5B2A5B0A53EC
:103460000953E952E9520A5B2A5B0A5B0A5BE9529B
:10347000C952884A684A47422742063AE639E6393D
:10348000C631A531A531853185298531853185291B
:1034900085298529652965296529452945294429DD
:1034A00045296429652964296429642964298529B1
:1034B000852985298529852965296429642944293F
:1034C0004421242144214321232123212321242178
:1034D00023190319031903190319031903190319EC
:1034E00003190319031903190319031903190319FC
:1034F000031903190321232124212321032103215B
:10350000032103210319E318E318E318E318E31870
:10351000E318E31803190321232124212421042182
:10352000042104210421242104210321031903215E
:10353000032103210421242124212421042103190E
:10354000031904212421242124212421242124219C
:1035500004190419E318C310A210A21082088208EB
:10356000A210C210C210C210C210C310C310E318C0
:10357000C310C310C310C310C310C310E318C3108B
:10358000C310C310C310C310C310C310C310C310A3
:10359000C310C310C310C310C310C310C310C31093
:1035A000C310E318E318C310C310C310C310C31033
:1035B000E318E318E3180319031903190319E318AF
:1035C000E318E318E318E310C210E210E210E31866
:1035D000E318E31803190419041904190419241928
:1035E00024212421442144214421452145214421F1
:1035F00044214421242123190319031923192319D0
:1036000044214321642164218429A529C531E6315F
:103610004742884AEA528C6B2E7CD19473A516BE21
:1036200097C6F8D639DF5ADF7AE77AE77AE72A5B76
:103630004A5B4A5B4A5B4A5B4A5B2A5B295B2A5BC3
:103640002A5B2A5B4A5B4B636B634B632A63E95AD1
:10365000C952884A47422742063AE639E639C53117
:10366000C531A5318529842964298529852985299C
:10367000852985296529652944294429442144212E
:103680004421442945296429652965296529852915
:103690008529652965296529642944294429442106
:1036A00024212421242124212321232123212421F5
:1036B00023210319231923190319031903190319C2
:1036C0000319031903190319031903190319032112
:1036D0000319031903212321242123210321032179
:1036E000032103210319E318E318E318E318E3188F
:1036F000E318E318031903190321232124210319D3
:1037000003190319032103210321032103210319B1
:1037100003190319031903210321032103190319B1
:10372000031903190419041904210421042104199B
:1037300004190319E318C310C210A210A210A2109A
:10374000A210C210C210C310C310C310C310C31004
:10375000C210A210C210C310C310C310E318E318A4
:10376000E318C310C310C210C210C310C310C3109B
:10377000C210C210C310C310C310C310C310C310B3
:10378000C310C310C310C310C310C310C310C310A1
:10379000C310E318E318E318E318E318E318E31879
:1037A000E318E318E310E310C210E210E210E31094
:1037B000E310E318E3180319041904190419241970
:1037C00024192419242124212421442144212421A1
:1037D0002319231923190319031903190319231989
:1037E000232144216421642164218429A529C53130
:1037F000063A273A884A0A5BAC6B4F84F19494AD41
:1038000035BEB7CEF8D639DF5ADF7AE77AE72953E3
:103810004A5B4A5B4A5B4A5B4A5B2A5B2A5B4A5BC0
:103820006B636B638B638B6B8B634B632A63E952B4
:10383000C952684A47422642063AE639E639C53156
:10384000A531A5318529642964296429642984293D
:103850008429652964296429442944214421242197
:10386000442144214429642965296529652985293C
:103870008529652965296429442944214421242175
:103880002421232124212321232123212321242115
:1038900024212321232123190319031903190319AF
:1038A000031903190319E318E31803190319032172
:1038B0000321032103212421242124212321032165
:1038C000032103190319E318E318E218E218E318B7
:1038D000E318031903190319032103210321031911
:1038E00003190319031903190319032103210319E8
:1038F0000319E318E318E318E318E318E318E318CF
:10390000E318E318E318E318E318E318E318E318DF
:10391000E318E318E318C310C310A210A210A210FA
:10392000A210C310C310C310C310C310C310C31020
:10393000C210C210C210C310C310C310E318E318A2
:10394000E318C310C210A210A210A210C210A2103D
:10395000A210A210C210C310E318C310C310C210EB
:10396000C310C310C310C310C310C310C310C310BF
:10397000E318E318E318E318C318C318C318E318CF
:10398000E318E310E310C210C210E210E210E310DB
:10399000E310E3180319041904192419241924192C
:1039A0002419241924192419241924192419031950
:1039B0000319031903190319E31803192319232100
:1039C00044216421642164216421642164218429C7
:1039D000C531E5314742A84A2A5BCC736F84319DDB
:1039E000B4AD76C6D8CE19D75ADF7ADF7AE7295335
:1039F0004A5B4A5B4A5B4A5B4A5B4A5B4A5B6A6377
:103A00006B638B6B8B6B8B636B634A630A5BC95213
:103A1000A852674A2642063AE539C531C531A53173
:103A2000A531A5318529652964296429642964297A
:103A30006429642964294429442924212421242136
:103A4000442944294429442965298529652985294A
:103A50008529652965296529452944294429242181
:103A60002421242124212421232103212321232152
:103A70002421242124212321231923190319031983
:103A8000031903190319E318E31803190319032190
:103A90000321032123212421242124212421232142
:103AA0000321032103190319E318E318E318031989
:103AB0000321032103210321031903190319031906
:103AC00003190319E318E318E318E318E318E318DC
:103AD000E318E318E318E218E218E318E318E31810
:103AE000E318E318E318E318E318E318C318C31046
:103AF000C310C310C310C310C310C210C210A21051
:103B0000C210C310C310C310E318E318E318C310A6
:103B1000C310C310C310C210C210C310E318C310E7
:103B2000C310C210A210A210A210A210C210C21084
:103B3000C210C210C310C310C310C310C210A21011
:103B4000A210A210A210A210A210C210C310C31083
:103B5000C310C310C310C218C218C210C210C218BA
:103B6000C218C210C210C210C210E210E210E3105C
:103B7000E310E3180319031924192421242124191B
:103B8000241924192419241924192419241903196E
:103B9000031903190319E318E21003190319442147
:103BA000442164216421442144214321432164218F
:103BB000A429C531063A6742C9526B632E7CF19441
:103BC00093AD35BEB7CEF8D639DF5ADF7ADF295349
:103BD0004A5B4A5B4A5B4A5B4A5B4A5B4A5B6A6395
:103BE0006B638B636B636B634A632A5B095BC952CC
:103BF000884A4742063AE639C531A531A531A53193
:103C0000A531853185296429642944294429442919
:103C1000442964294429442944212421242124219C
:103C20004429442944294429652985298529852948
:103C300085298529652965296529642964294421FF
:103C40002421242124212421242123212321031977
:103C50002321242124212421232124212421031967
:103C6000031903190319E218E218031903190321B0
:103C7000032103212321242124212421242124215F
:103C8000242123210321032103190319E31803210C
:103C90002321242124212321032103190319E318BB
:103CA000E318E318E318E318C318C318C318E3189C
:103CB000E318E318E218C218C218C318C318C218D0
:103CC000C318C318C318C318C318C310C310C31034
:103CD000C310C310C310C310C310C310C310C2104D
:103CE000C310C310C310E318E318E318E318C3109C
:103CF000C210C210A210A210A210A210C310A210D3
:103D0000A210A210A210A210A210C210C210C310C2
:103D1000C310C310C310C210A210A210A2108208B8
:103D20008208A210A210A210A210A210C210A2100B
:103D3000A210C210C210C210C210C210C210C21013
:103D4000C210C210C210C210C210E210E210E31082
:103D5000E310E31803190319241924192419242141
:103D60002421242124212421242124212421241933
:103D7000031903190319E210E210E21003192319C1
:103D800023192319231923192319432143214321DB
:103D90008429A429C531263A884A4A630D7CF194C6
:103DA00093AD36BE97CEF8D639DF59DF59DF2953A8
:103DB0004A5B4A5B6A5B4A5B4A5B4A5B4A5B6B6392
:103DC0006A636B636A634A5B295B095BC852A852EA
:103DD000884A4742063AE539C531C531A531A53192
:103DE000853184296429642964294421442144219A
:103DF00044214429442944294421442124212421C3
:103E0000442144214529652965296529852985316C
:103E100085318529652965298529852965294529CA
:103E2000442944214421442124212421042103192B
:103E30002319232124212421242124212421232165
:103E4000031903190319E318E218E31803190321EE
:103E5000032103210321032123212421242144219F
:103E6000442124212421242123210321032103216E
:103E7000232124212321232103210319E318E318FB
:103E8000E318E318E318E318C318C318C318E318BA
:103E9000E318E318C218C318C218C218C218C2180F
:103EA000C318C318C318C318C318C310C310C31052
:103EB000C310C310C310C310C210C310C310C3106B
:103EC000C310E318E318E318E318E318C310A210B3
:103ED000A210A210A210A210A210A210C210A21032
:103EE000A210A210A210A210A210C210C210C310E1
:103EF000C310C310C210A210A210A210A210A210D0
:103F0000A210A210A210A210A210A210A210A21021
:103F1000A210A210A210A210C210C210C210C21091
:103F2000C210C210C210C210C210C210C210C21001
:103F3000C210E310E31803190319241924192419D2
:103F40002419241924192419241924192419241989
:103F5000031903190319E318E318031903190319C3
:103F60000319031923192319231943194321432141
:103F7000632163218429C5314742E95AAC6B6F84C0
:103F8000329DD4B556C6D8CEF8D639DF5ADF4A5B53
:103F90006A5B6B636B636B636A636A636B636B63BC
:103FA0006A634A634A632A5B095BE952A852884AFA
:103FB000674A2742063AE539C531C531A531853111
:103FC00084298529642964294421442144214321E9
:103FD00044214421442144214421242124214421F9
:103FE0004421442945296529652985298529853163
:103FF0008631853185298529852985296529652980
:104000004529442144212421242124212421031948
:1040100003192319232123212421242124212421AC
:10402000231903190319E318E318031903190321CA
:1040300003210321032103212321242124212421DD
:1040400024212421242123210321031903190319E5
:1040500003210321032103190319E318E318E318CB
:10406000E318E318E318E318E318E318E318031957
:10407000E318E318E318E318E318E318E318C31888
:10408000C318E318C318C318C318C318C318E31818
:10409000E318C310C310C210C210C310C310C31062
:1040A000E318E318E318E318C310C210A210A2101B
:1040B000A210A210A210A210A210C210C310C2100F
:1040C000A210A210A210A210A210A210A210C21040
:1040D000C210A210A210A210C210C210C310C310AE
:1040E000C210A210A210A210A210A210A210C21000
:1040F000C210C210A210C210C210C210C210A21070
:10410000C210C210C210C210C210C210C210C2101F
:10411000C210C210E310E31803190319031924197C
:1041200003190419041904190419041904190319A9
:10413000031903190319031903190319031903199F
:104140000319031923194321432143194321231937
:104150004321432163218429E531674A0A5BCC73FB
:10416000908C52A5F5B597C6D8CE39DF5ADF6A5B79
:104170006B5B6B636B636B636B636B636B634A5B00
:104180004A5B2A5B2A5BE952C952A84A884A674AB5
:104190004742063AE639C531C531A531A531A531C9
:1041A000A5318531842964294421442144214421B5
:1041B00044214421442144214421442144214421D7
:1041C0004421442965296529652985298529863160
:1041D000A631863185318529852985296529652975
:1041E0004529442144212421242124212421031967
:1041F00003192421242124212421242124212421C0
:10420000241903190319E318E318031903190421E6
:1042100004210321032104212421242124212421F8
:10422000242124212421042103190319E318E3186C
:104230000319032103190319E318E318E318E3181A
:10424000E318E318031903190419041903210321BE
:1042500003210319E318E318E318C318C318C3189C
:10426000C318C318C318C318C318C318E318E31836
:10427000E318C310C310A210C210C310C310E31878
:10428000E318E318E318E318C310C210A210A21039
:10429000A210A210A210A210A210C210C310A2104D
:1042A000A210A210A210A210A210A210A210A2107E
:1042B000A210A210A210A210A210C210C310C3100C
:1042C000C310C310A210A210A210A210C210A210FC
:1042D000C210C210C210C210C210C218C218A2105E
:1042E000C210C218C210C210C210C210C210C21036
:1042F000C210C210E310E318E318031903190319DD
:1043000003190319031903190319031903190319CD
:1043100003190319031903190319031903190319BD
:104320000319031923194319441943194321231964
:104330004321432143216421A429063A884A2A5B68
:10434000ED73B08C73A535BE97CEF9D63ADF4A5BD4
:104350004A5B2A5B2A5B2A5B2A5B2A5B2A5B09533E
:10436000E952E952C852A84A884A874A6742274216
:10437000063A063AE539C531C531A531A531A53131
:10438000A5318531842964296421442144214421B3
:1043900044214421442144214421442144214421F5
:1043A0004421442965296529852985298531863156
:1043B000A631A63186318531853185296529452982
:1043C0004421442144214421242124212421042165
:1043D000242124214421242124212421242124199D
:1043E000031903190319E318E318E3180319242127
:1043F0000421032103210421042124212421242137
:10440000242124210421032103190319E318E318AB
:10441000031904210321031903190319E3180319CC
:10442000031904190421042104210421042104197D
:1044300004190319E318E318E318C318C318C310C9
:10444000C318C318C310C310C310C318C318C310B4
:10445000C310C310C310C210C210C310C310E3189E
:10446000E318E318E318E318C310C310C210A21036
:10447000A210A210A210A210A210A210A210A210AC
:10448000A210A2108208A210A210A210A210A210C4
:10449000A210A210A210A210A210A210A210C3106B
:1044A000C210A210A210A210A210A210A210A2105C
:1044B000A210C210C210C210C218C218C218C2186C
:1044C000C218C318C218C218E310E310C210E310D8
:1044D000E310E310E318E318031903190319031990
:1044E00003190319031903190319031903190319EC
:1044F000031903192419231923192319031903195B
:1045000003190319231923192319231943192319EB
:104510004321432163218429A429E5394742C95213
:104520006B6B2E7CF194B4AD36BEB7CEF9D6095381
:1045300009530953095309530953E952E952C84A27
:10454000A84AA84A884A674267424742264226420A
:10455000063AE639C639C531C531C531A53185318F
:104560008529842984296429642144212421442122
:10457000442144212421242124214421442144296B
:10458000442944296429652985298529853185316E
:104590008631863186318631853165296529442900
:1045A000242145294529452945292421242124213F
:1045B00024214421242124212421242124210421D3
:1045C000042103210319E318E318E3180319042154
:1045D00004210321031903210321032103210421C1
:1045E00004210421032103210319E318E318E3182C
:1045F000031904210421042104210421042104219C
:104600000421042104212421042104210421E3188C
:10461000E418E418E418E318E318E318E318C318DF
:10462000C318C318C318C318C318C318C318C318B2
:10463000C318C318C318C318C318C318E318E31862
:10464000E318E318C318C318C318C318C318C2105B
:10465000C210A210A21082108210A210A210A210EA
:10466000A210A2108210A210A210A210A210A210DA
:10467000A210A210A210A210A210A210A210A210AA
:10468000A210A210A210A210A210A210A210A2109A
:10469000A210C210C210C218C218C218C218A210AA
:1046A000A210C218C210C318E318E318E318E318E5
:1046B000E310E310E318031903190319031903198D
:1046C0000319031903190319031903190319E3182B
:1046D00003190319031903190319031903190319FA
:1046E0000319031103190319231923192319231972
:1046F00043194319632163218429C531263A67424E
:104700000A5BAC6B4E84119DB4B556C6D8D6E94A47
:10471000E94AE94AE94AE94AC84AC84AA84A8742EE
:10472000874267426742474247422642263A063A54
:10473000E639C639C531A531A531A531853185297F
:104740008529842964296429642144212421442160
:1047500044212421242124212421442144214429A9
:10476000452944296429652985298529853185318B
:1047700086318631863186318631853165294429F5
:1047800044294529452965294529452924212421EC
:104790002421442124212421042104210421042151
:1047A000242104210319E318E31803190319032131
:1047B0000321031903190319031903190319032109
:1047C000032103210321031903190319E318E31833
:1047D00003190319031903210421042104210421CD
:1047E0000421042104212421242124212421041929
:1047F000042104210419E418E418E318E318C31889
:10480000E318E318E318C318C318C318C318E31850
:10481000E318E318E318E318E318E318E318E318C0
:10482000E318E318C318C318C318C318C318C31870
:10483000C318C318C210A210A210A210A210A21076
:10484000A210A210A210A210A210A210A210C210B8
:10485000C210A210A210A210A210A210A210A210A8
:10486000A210A210A210A210A210A210A210A210B8
:10487000C210C310C310C218C218A210A210821016
:10488000A210A210A210C218E318E318E318C21075
:10489000C210C210E31003190319031903190319F5
:1048A0000319031903190319031903190319E31849
:1048B000E3180319031903190319E318E310E210AD
:1048C000E210E2100319031903190319031923193C
:1048D000231923192319432143218429C531063A79
:1048E000674A0A5BAC6B6F8452A515BEB7CEC84A47
:1048F000C84AA84AA84AA84AA84A884288426742A1
:104900006742674267424742273A263A063AE63903
:10491000C531C531A531A531853185318429842939
:10492000842984296429642964214421442144215F
:10493000442144214421442144214421442165212E
:104940006521642164296529852985298529853181
:10495000A631A631A631A631863186318531452969
:1049600045294529652965294529452924212421E9
:10497000442144212421242104210421042124212F
:1049800024212421041903190319031903190419F3
:104990000319E318E3180319031903190419041977
:1049A0000421042104210421041904190319E31822
:1049B0000319E318E3180319042104190319E31870
:1049C000E318E418E418042104210421042104213B
:1049D0000421042104210421E418E418E318E31855
:1049E000E318E318E318E318C318C318C318E3184F
:1049F000E318E318E318E318E318E318E318E318DF
:104A0000E318E318E318E318E318C318C318E3180E
:104A1000E318C318C310A210A210A210A210A21073
:104A2000A210A210A210A210C210C310C318C3106B
:104A3000C310C210A210A210A210A210A210A210A5
:104A4000A210A210A210A210A210A210A210A210D6
:104A5000C210C310C310C218C218A210A210821034
:104A6000A210A210A210C210E318E318E318C2109B
:104A7000C210C210C210E318031903190319031955
:104A80000319E318E318E318E318E318E318E3182D
:104A9000E318E318E318E318E310E310E310E2105F
:104AA000E210E21003110319031903190319231962
:104AB0002219221902192219231943216429A42930
:104AC000063A884AE95AAC73908C53A516BEA842A0
:104AD000A842A842874288428742674267424742CB
:104AE000473A474247424742273A263A063AE6398A
:104AF000C531A531A53184298429852964296429F2
:104B000064296429642964214421442144214421E5
:104B10004421442124212421442144214421652984
:104B20006521642964296529852985298529A53177
:104B3000A631A631A631A631A63186318631652946
:104B400065294529652965294529452924214421C7
:104B500045214521442124212421242124210421EB
:104B60002421242104190319031903190319E31833
:104B7000E318E318E318E3180319031904190421CF
:104B80000421042104210421042104210421031906
:104B90000319E318E31803190419E318E318E318D9
:104BA000E318C318E318E418E418E418E418E41848
:104BB00004190421042104210421041904190319EE
:104BC00003190319E318E318E318E318E318E318CB
:104BD000E318E318E318E318E318E318E318E318FD
:104BE000E318E318E318E318C318C318C318C3186D
:104BF000C318C318C310C210A210A210A210A21092
:104C0000A210A210A210A210C310C318C318C31878
:104C1000C318C210A210A210A210A210A210A210BB
:104C2000A210A210A210A210A210A210A210A210F4
:104C3000A210C210C210A210A210A210A210A210A4
:104C4000A210A210A210C210C318C318C218C2101A
:104C5000C210C210C210E310E318E318E310E31807
:104C6000E318E318E318E310E310E310E310C310B4
:104C7000C310C310C310E310E310E310E310E210FD
:104C8000E210E21003110319031903192319021189
:104C9000021102110211021923192321432164294F
:104CA000A531263A67420A5BED73B08C73A5A84A1A
:104CB000A84AA84AA84A884A884287426742674267
:104CC000473A474247424742273A273A063AE639A7
:104CD000C631A531A531A5318529842964296429E6
:104CE000642964296429442944214421242143213D
:104CF000432144214421442144214421442144218D
:104D00004421652164216429652985298529A531E6
:104D1000A631A631A631A631863186318631652984
:104D200065296529452945294529452945294529D3
:104D300045294529452124212421242124212421D8
:104D4000242104210419E318E318E31804190419B1
:104D50000319E318E3180319041904210421042199
:104D60002421242104212421242124210421E318A5
:104D7000E318E418E418E418E418E418E418C31875
:104D8000C318E318E318E318C318E318E318C318AB
:104D9000C318E318E318E4180419042104210421BA
:104DA00004210419031903190319E318E318E3187C
:104DB000C318C318E318C318C318C318C318C31003
:104DC000C310C318C318C318C218C210C210C21827
:104DD000C210C210C210C210C210C210A210C21063
:104DE000A210A210A210A210A210A210A210C21013
:104DF000C210C210A210A210A210A210A210A210E3
:104E0000A210A210A210A210A210A210A210A21012
:104E1000A210A210A210C218C218A210A210A210B2
:104E2000A210A210C218C218C218C318C318E310E7
:104E3000E310E310E310E318E318E318E310E310C2
:104E4000E310E318E318E318E310C210C210C21015
:104E5000C210C210E310E310E318E318E318E318DC
:104E6000E3180311231923192319231943190319CB
:104E7000031902190219231923194321432143213C
:104E80008429C531E639884A2A5BAC6B908CA84AE4
:104E9000A84AA84AA84A884A884288428742674264
:104EA000673A47424742273A273A073A063AE639ED
:104EB000C531A5318531852984296429642964296E
:104EC000642964296429442944214421442123215B
:104ED00023212421242144214421442144216521EA
:104EE00065296529652965296529852985298531EA
:104EF0008531A63185318631853185318531652908
:104F000065296529452945294529452945294529F1
:104F10006529652965294529452144214421242104
:104F20002421042104190319E3180319042104217D
:104F30000421041904190419042104210421242141
:104F4000242125212521242144212421242104193F
:104F50000319E418E418E418E418E418E418E31852
:104F6000E318E318E318E318C318C318C310C310F9
:104F7000C318C318C318E318E418E418E418041994
:104F800003190319E3180319031903190319E31883
:104F9000C318C318E318C318C318C318C318E318F9
:104FA000E318E318E318C318C318C210C210A21004
:104FB000A210A210C210C210C210C210C210A210C1
:104FC000A210A210A210A210A210C210C210C210F1
:104FD000C210C210A210A210A21082108210821061
:104FE000A210A210A210A210A210A210A210A21031
:104FF000A210A210A210C218C218A210A210A210D1
:10500000A210C218C218C218C318E318E318C210BD
:10501000C210C210C210E310E310E310E310E3105B
:10502000E310E318E318E318E310C210C210C21033
:10503000C210C210E310E310E318E318E318E31002
:10504000E31803192319231923194419441923199F
:10505000231902190219031923194321432123217A
:105060006429A531A531263AA84A2A5BED7BC84AB6
:10507000C84AC84AA84AA84AA84AA84288428742B9
:1050800067424742473A263A263A063AE639C63157
:10509000A531853185298429642964294429442935
:1050A0006429642964294421442144214421242180
:1050B0002421442144214421442945296529652985
:1050C0006529652965296529652965298529853128
:1050D0008531A53185318531853185318531652928
:1050E00065294529452925212521252125214529D0
:1050F0006529652985296529652945294529442189
:10510000242104210319031903190419042124215A
:105110002421242104210421242124212421442187
:1051200045214521452145294529442124210421A2
:105130000419E418E318E318E318E418E418E31872
:10514000E318E318E318E318E318E318C318C318C7
:10515000C318C318E318E318E418E418E418E318B4
:10516000E318E318E318E3180319041904190421D8
:10517000E318E318E318C318C318E318E318E31897
:10518000E318E318E318E318C318C218C210A210FA
:10519000A210A210C210C210C218C210C210A210D7
:1051A000A210A210A210C210C210C210C218C218BF
:1051B000C218C210A210A210A210A210A210821037
:1051C000A210A210A210A210A210A210A210A2104F
:1051D000A210A210A210A210C218C218A210A210EF
:1051E000A210A210A210C218C218C218C218C2106F
:1051F000C210C210C210C210C210C210C210E310FE
:10520000E318E318E318E318E310E310E210C21008
:10521000C210E310E310E310E318E310E310E3100F
:10522000E3100311231923192319231944194319CE
:105230002319231903190319231943214321432156
:10524000642184298429E5394742C9528C6BC952AB
:10525000C952C952C952C84AA84AA84A8842874274
:1052600067424742473A263A063AE639E631C531BF
:10527000A53185298429642964296429642964293C
:1052800064296429442944212421242124214421FE
:10529000442144294429442944296529652965294B
:1052A0006529652965296529652965298529853146
:1052B0008531A53185318531853185318531652946
:1052C00065294529452925212521252125216529CE
:1052D000652985298629852965294529452124218E
:1052E0002421042104210421042104212421242136
:1052F000242124212421242124212421442145293D
:1053000045294529452945294521242124210421D0
:105310000421E418E318E318E318E418E418C318A8
:10532000C318C318C318E318E318E318E318E41804
:10533000E418E418E418E418E418E418E418E3188E
:10534000E318E318E31803190419041904210421CC
:10535000042104210419E318E318E318E318E318FF
:10536000E318E318E318E318C318C218C210C210F8
:10537000C210C210C210C218C218C210A210A210CD
:10538000A210A210C210C210C210C218C218C218B5
:10539000C210C210A210A210A210A210A210A2103D
:1053A000A210A210A210A210A210A210A210A2106D
:1053B000A210A210A210A210A210A210A210A2105D
:1053C000A210A210A210A210A210A210A210C2102D
:1053D000C210C210C210C210C210C210C210E31814
:1053E000E318E318E318E318E310E310E210C21027
:1053F000C210C210E310E310E310E310C210E31078
:10540000E31003110319231923192319231944192C
:105410004319231923192319232143212321231954
:10542000432164296429A531063A884A2B63C9526D
:10543000C952C952C952C94AC84AA84A884A874269
:1054400067424742473A263A063AE631E531A53106
:10545000A529842984298429642964296429642943
:105460006429642944212321232123212321442940
:105470006429642964294429442944294429452963
:105480006529652965296529652985298529853144
:105490008531A531A531853185318531853185311C
:1054A000652965294529242124214529452965297E
:1054B00065296529652965296529452945214421ED
:1054C00024212421242124212421242124212421B4
:1054D00024212421442144214521452945296529A8
:1054E00065296529452945294421242104210421D0
:1054F00004190319E318E318E318E318E418E31890
:10550000E318E318E318E318E318E318E4180419A0
:10551000041904190419E418E418E418E418E31849
:10552000031903190319041904190421042104217E
:10553000041904210419E318E318E318E318C31845
:10554000C318C318C318C318C218C210A210A210DF
:10555000A210A210C210C210C210A210A210A2105B
:10556000A210A210A210A210C210C210C210A2104B
:10557000A210A210A210A210A210A210A210A2109B
:10558000A210A210A210A210A210A210A210A2108B
:10559000A210A21082108210821082108210A2101B
:1055A000A210A210821082108210A210A210C210AB
:1055B000C210C210C210C210C210C210C210E3103A
:1055C000E310E310E310E310E210C210C210C210A7
:1055D000C210C210E210E310E310C210C210E310B8
:1055E000E310E3100319231923192319231943196D
:1055F0004319431923192321442144212321232121
:105600004321442964298429C5312742A952C9521A
:10561000C952C952C952C84AA84AA84AA84A874288
:1056200067426742473A263A063AE631C531A53124
:10563000852984298429852985298529852964291D
:10564000642964294421232123212321442164291D
:105650006429652965296429442944214421442970
:10566000452965296529652985298529853185315A
:10567000A531A631A631A5318531863186318631F5
:105680008531652945294529452945294529452942
:10569000452945296529652965294529452144214B
:1056A00024212421242124212421242124212421D2
:1056B0002421442145214529452965296529652954
:1056C00065296529652945294529242124210421A5
:1056D000041904190319E418E318E318E318E3188C
:1056E000E318E318E318E318E4180419042104216B
:1056F0000421042104210421042104210421042182
:105700000421042104210421042104210419041981
:10571000041904190319E318E318E318C318C3188C
:10572000C318C318C310C210A210A210A210821076
:105730008210A210A210C210C210A210A210A210B9
:10574000A210A210A210A210A210A210A210A210C9
:10575000A210A210A210A210A210A210A210A210B9
:10576000A210A210A210A210A210A210A210A210A9
:10577000A210A2108210821081108110811082105C
:1057800081108110811082108210A210A210C2100C
:10579000C210C210C210C210C210C210C210C21079
:1057A000C210C210C210C210C210C210C210C21069
:1057B000C210C210E210E310E310C210C210E310D6
:1057C000E310E31003192319231923194419441969
:1057D00043194419441944214421442123212421FB
:1057E00024214421642964298531E6394742EA525B
:1057F000EA52C952C952A94AA84AA84A88426742ED
:1058000067424742473A263A063AE531C531A53163
:10581000A52984298429852985298529852964291B
:105820006429442944294421232123214421442952
:1058300044296529652964294429442924212421EE
:10584000442944296529652985298531A531A63151
:10585000A631A631A631A631A531A631A631A63191
:105860008631853165296529452965296529652997
:105870004529452965296529652945294521242189
:1058800024212421242124212421242124214421D0
:105890004421452145294529452965296529652949
:1058A0006529652965296529452944212421042183
:1058B000042104190319E318E318E318E318C318C3
:1058C000C318E318E31804190419242124212521FD
:1058D000252125212521252125212421242124219B
:1058E0002421242124212421042104190319041929
:1058F00003190319E318C318E318E318C318C310F6
:10590000C310C210C210A210A210A210A2108110C7
:105910008210A210A210C210C210C210A210A210B7
:10592000A210A210C210C210C210A210A210A21087
:10593000A210A210A210A210A210A210A210A210D7
:10594000A210A210A210A210A21082108210A21007
:10595000A210A210A2108210821082108210811058
:105960008110811081108210A210A210A210C2100A
:10597000C210C210C210C210C210C210C210C21097
:10598000C210C208A208A208C208C210C210C210E7
:10599000C210E210E310E310E310E310C210E310B2
:1059A000E310031103192419241944194419441943
:1059B0004419441944194421442144212421232118
:1059C00023192319432143216429A531063AC952D9
:1059D000EA52C952C952A94AA84A884A874267422C
:1059E0004742473A463A263A063AE531C531A531AB
:1059F000A52984298429842984298529852985291B
:105A00006429642944294429442123212321242170
:105A1000442144296429642944292421242124215E
:105A2000442944296429652985298531A531C63948
:105A3000C631A631A631A631A631A631C639C6393E
:105A4000A631A63186318631863186318631652987
:105A50006529652965296529652945294521442147
:105A6000242124212421242104210421242145212D
:105A7000452145294529452945296529652965295E
:105A80006529652965296529652945212421042180
:105A9000042104190319E318E318E318C318E318E1
:105AA000E318E318E31804192421242125214521B2
:105AB0004521452145212521252125212521442137
:105AC00044214521442124210421041903190319E7
:105AD000E318E318C318C310C318C318C310A210E7
