:020000040800F2
:10000000E8040020450100084D0100084F010008E8
:1000100051010008530100085501000800000000CC
:100020000000000000000000000000005701000870
:1000300059010008000000005B0100082D110008B4
:100040005F0100085F0100085F0100085F01000810
:100050005F0100085F0100085F0100085F01000800
:100060005F0100085F0100085F0100085F010008F0
:100070005F0100085F0100085F0100085F010008E0
:100080005F0100085F0100085F0100085F010008D0
:100090005F0100085F0100085F0100085F010008C0
:1000A0005F0100085F0100085F0100085F010008B0
:1000B0005F0100085F0100085F0100085F010008A0
:1000C0005F0100085F0100085F0100085F01000890
:1000D0005F0100085F0100085F0100085F01000880
:1000E0005F0100085F0100085F0100085F01000870
:1000F0005F0100085F0100085F0100085F01000860
:100100005F0100085F0100085F0100085F0100084F
:100110005F0100085F0100085F0100085F0100083F
:100120005F0100085F0100085F0100085F0100082F
:10013000DFF80CD000F06AFA00480047851C000880
:10014000E80400200648804706480047FEE7FEE72F
:10015000FEE7FEE7FEE7FEE7FEE7FEE7FEE7FEE777
:10016000A9110008310100082DE9FE4F804681EAFF
:100170000300C00F0C46009021F0004123F0004521
:10018000B8EB0200A94105D24046214690461C46E4
:100190000B46024623F00040104347D0270DC7F31B
:1001A0000A00C3F30A510290401A019040286BDA0A
:1001B000C3F3130040F4801B0098924620B1002343
:1001C000D2EB030A63EB0B0B01985946C0F14002D6
:1001D000504600F01EF906460D4650465946019A13
:1001E00000F036F910EB08006141002487EA115253
:1001F00084EAE7731A4340D0009A62B3019A012A55
:100200004FEA075215DC001B61EB02014FF0004280
:1002100002EA0752CDE90042001C41F58011324646
:100220002B4600F036F903B0BDE8F08F404621467A
:10023000F9E7001B61EB0201001C41F58013001877
:100240005B412018A2F5001747EB030140EAD57087
:10025000B6196D4111E06D084FEA360645EAC075E2
:100260004FEA0752001B61EB0201001C41F58011AF
:1002700049084FEA30000019514132462B4603B07D
:10028000BDE8F04F00F0F6B80098012240000023CE
:10029000D0EB020263EBE073009821464FEAE07472
:1002A000B8EB000061EB0401E9E783F000435BE792
:1002B00081F0004158E72DE9FE4F81EA030404F084
:1002C000004421F0004100944FF0000B23F0004364
:1002D00050EA01045ED052EA03045BD0C3F30A542F
:1002E000C1F30A552C44A4F2F3340194A0FB025448
:1002F000C1F3130141F48011C3F3130343F48013DA
:1003000001FB024400FB034E840A970A44EA81542D
:1003100047EA8357A4FB076802958D0A05FB07850A
:100320004FEA932C04FB0C542705029D4FEA065814
:1003300047EA1637B5EB08056EEB070C870E920EF1
:1003400047EA811742EA8312A7FB0201B6EB0B01D1
:1003500064EB00042B0D43EA0C335E1844EB1C5095
:10036000DA465146E7FB0201C5F313044FEA0B33AB
:1003700043EA14534FEA0432019C43EA0603A4F112
:100380000C040294009CCDE900B400F082F803B0A4
:10039000BDE8F08F00200146F9E70EB540F2334189
:1003A00002910021CDE900110A460B4600F071F8D8
:1003B00003B000BDC1F30A5210B5C1F3130140F2FE
:1003C000FF3341F480119A4201DA002010BD40F25F
:1003D00033439A42A2F2334203DC524200F028F83F
:1003E00010BD904010BD30B50B46014600202022C4
:1003F000012409E021FA02F59D4205D303FA02F532
:10040000491B04FA02F52844151EA2F10102F1DC91
:1004100030BD202A04DB203A00FA02F100207047A8
:100420009140C2F1200320FA03F319439040704732
:10043000202A04DB203A21FA02F00021704721FA39
:1004400002F3D040C2F120029140084319467047A0
:10045000202A06DBCB17203A41FA02F043EAE07388
:1004600006E041FA02F3D040C2F120029140084375
:100470001946704710B5141E73F1000408DA401CC9
:1004800041F1000192185B411A4301D120F00100B3
:1004900010BD2DE9F04D92469B4611B1B1FA81F2A3
:1004A00002E0B0FA80F220329046FFF7B2FF044635
:1004B0000F4640EA0A0041EA0B0153465A460843F8
:1004C00013D0114653EA010019D0C8F1400250463A
:1004D000FFF7AEFF05460E46504659464246FFF727
:1004E00098FF084305D0012004E020463946BDE8C6
:1004F000F08D0020054346EAE0762C4337430A9806
:100500006305E40AA0EB08000022FD0A44EA475410
:100510000A3002D500200146E9E7010510196941BA
:10052000DDE9084500196941BDE8F04DA2E72DE974
:10053000F04D81EA030404F0004B21F0004514461D
:100540004FF0000A23F0004150EA050220D054EA9F
:1005500001021DD0C5F30A570246C5F31303C1F3C8
:100560001300C1F30A5640F4801543F48013A7EB3F
:100570000608101BD64608F2FD3873EB050002D3BF
:1005800008F1010801E092185B41B8F1000F03DAAD
:1005900000200146BDE8F08D00204FF48011064692
:1005A00084460EE0171B73EB050705D3121B63EBA4
:1005B000050306434CEA010C49084FEA3000921843
:1005C0005B4150EA0107EDD152EA030012D082EA02
:1005D000040083EA0501084305D0101BAB4106D295
:1005E0000122002306E000224FF0004302E06FF0FA
:1005F000010253101AEB06004CEB085110EB0A00F5
:1006000041EB0B01BDE8F04DFFF734BF064C074D41
:1006100006E0E06840F0010394E8070098471034D2
:10062000AC42F6D3FFF788FD401F0008601F0008AA
:1006300070B521F0004303430CD0C1F30A550024E8
:10064000D5EB040564EB0403D617AD1AB34102DB06
:100650000020014670BD201841EB025170BD0EB55F
:10066000C10F80EAE0700844CA07002140F233431A
:100670008DE80E000A460B46FFF70BFF03B000BDE6
:1006800070B5C1F30A5201F000450024C1F3130113
:1006900040F2FF3341F480119A4201DA002070BD2C
:1006A00040F233439A42A2F2334203DC5242FFF754
:1006B000BFFE00E090402C43F1D0404270BD0000EE
:1006C00000214FF0E02291610121064A11600649A4
:1006D000086000BF044909680029FBD1014A116084
:1006E00070470000040000200000002051B182008B
:1006F000A2F1C042126842F001038200A2F1C0429E
:10070000136009E08200A2F1C0421268034B1A4054
:100710008300A3F1C0431A6070470000FEFF0F0082
:10072000D0E901121143C2681143026911434269C1
:10073000114382691143C2691143026A1143426A3B
:100740001143826A1143C26A1143026B114302686A
:100750009200A2F1C0421160816808290BD10168A2
:100760008900A1F1C041096841F040020168890097
:10077000A1F1C0410A60416B0968426B526841EACD
:100780000211426B926841EA0221426B928941EA6E
:100790000241426B128A41EA0251426B127D41EAE8
:1007A0000261426B926911430268521C9200A2F1ED
:1007B000C0421160C16AB1F5804F1BD1816B0968DD
:1007C000826B526841EA0211826B926841EA02210F
:1007D000826B128A41EA0251826B127D41EA026108
:1007E000826B9269114302689200A2F1C042C2F882
:1007F000041107E06FF0704201688900A1F1C04167
:10080000C1F8042170472DE9F04102460025002679
:10081000002000230024002791F803C00CF00F05EE
:1008200091F803C00CF0100CBCF1000F03D091F84C
:1008300002C04CEA050591F800C0BCF1000F31D0B0
:10084000146800202BE04FF0010C0CFA00F3B1F813
:1008500000C00CEA03069E4220D183004FF00F0C2B
:100860000CFA03F7BC4305FA03FC4CEA040491F8C4
:1008700003C0BCF1280F06D14FF0010C0CFA00FCAC
:10088000C2F814C00AE091F803C0BCF1480F05D1CA
:100890004FF0010C0CFA00FCC2F810C0401C0828F4
:1008A000D1D31460B1F800C0BCF1FF0F34DD54683F
:1008B00000202EE000F1080C4FF0010808FA0CF3BC
:1008C000B1F800C00CEA03069E4221D183004FF02C
:1008D0000F0C0CFA03F7BC4305FA03FC4CEA0404C2
:1008E00091F803C0BCF1280F05D100F1080C08FAFB
:1008F0000CF8C2F8148091F803C0BCF1480F07D17E
:1009000000F1080C4FF0010808FA0CF8C2F810804A
:10091000401C0828CED35460BDE8F0814161704787
:10092000016170472DE9FF4F8BB0884691469A468A
:10093000002457E0002551E02846FFF72EFD2C4A01
:100940002C4BCDE90801FFF7B6FC06460F460B9885
:10095000FFF723FDCDE906013046394601F032F9B3
:10096000CDE902012046FFF718FDCDE90001DDE9E0
:100970000223FFF7A0FCCDE90401DDE90623FFF720
:10098000F3FBCDE90801FFF715FD83464046FFF76D
:1009900004FDCDE906013046394601F0F1F9CDE913
:1009A00002012046FFF7F9FCCDE90001DDE9022351
:1009B000FFF781FCCDE90401DDE90623FFF7D4FB55
:1009C000CDE90801FFF7F6FC0A9058460A9900F0B5
:1009D00043F85146222000F013FA6D1CB5F5B47FA0
:1009E000AAD3641C4C45A5D30FB0BDE8F08F00001E
:1009F00070E20DA545DF913F00B597B001210802D7
:100A000000F004FA0020019002900A2003900020D8
:100A10000490059006900790062008900020099009
:100A20000A9010200B9000200C900E900F901090C8
:100A30004FF4805011900020129013900D9014905C
:100A400001A81590169008A8FFF76AFE012106205C
:100A5000FFF74CFE17B000BD10B503460C4699B227
:100A6000202000F0CDF9A1B2212000F0C9F910BD7D
:100A700010B5FFF7C1FF0121042000F0E7F90121C3
:100A8000202000F0E3F90121402000F0DFF90121EE
:100A9000802000F0DBF90121080200F0D7F91820CE
:100AA0009249C8700320887000240BE0904830F809
:100AB00014008E4908808F4951F824008B49FFF7B4
:100AC000A2FE641C102CF1DB8B480088874908804B
:100AD0008A480068FFF797FE8948008883490880A4
:100AE00088480068FFF78FFE874800887F490880A4
:100AF00086480068FFF787FE854800887B490880A4
:100B000084480068FFF77FFE10207849C87082484B
:100B10000088088081480068FFF775FE7E480188DC
:100B20007E480068FFF7FCFE18207049C87001215C
:100B3000002000F065F94FF48071012000F060F9A9
:100B40004FF4E061022000F05BF941F23001032034
:100B500000F056F90021042000F052F940F2022181
:100B6000082000F04DF90021092000F049F900218A
:100B70000A2000F045F900210C2000F041F9002185
:100B80000D2000F03DF900210F2000F039F900217F
:100B9000102000F035F90021112000F031F900217A
:100BA000122000F02DF90021132000F029F941F264
:100BB000B071102000F024F93721112000F020F945
:100BC0004FF49C71122000F01BF94FF4B851132020
:100BD00000F016F90D21292000F012F90021202043
:100BE00000F00EF90021212000F00AF90121302047
:100BF00000F006F940F20661312000F001F94FF4EF
:100C00004171322000F0FCF840F20221332000F064
:100C1000F7F840F20221342000F0F2F840F203111C
:100C2000352000F0EDF840F21D11362000F0E8F814
:100C300040F20441372000F0E3F840F2044138204C
:100C400000F0DEF840F20441392000F0D9F84FF40A
:100C5000E0613C2000F0D4F840F61F213D2000F078
:100C6000CFF80021502000F0CBF8EF21512000F008
:100C7000C7F80021522000F0C3F840F23F11532082
:100C800000F0BEF84FF41C51602000F0B9F80121CB
:100C9000612000F0B5F800216A2000F0B1F81021C1
:100CA000902000F0ADF80021922000F0A9F8032177
:100CB000932000F0A5F840F20111952000F0A0F873
:100CC0000021972000F09CF80021982000F098F86F
:100CD0002121072000F094F83121072000F090F83E
:100CE00040F27311072000F08BF810BD14000020B3
:100CF00058000020180000207C0000207800002010
:100D000084000020800000208C000020880000204B
:100D100094000020900000209C00002098000020FB
:100D20002DE9F04104460D464FF480512F48FFF75E
:100D3000F5FDB12000F062F900F03AF9460100F04B
:100D400037F946EAE006C12000F058F900F030F922
:100D5000470100F02DF947EAE0073A46314624A062
:100D600000F02CFBB81B40F6B831884237DA9120EE
:100D700000F044F900F01CF9208020884FF6FF7144
:100D800001EA0020208000F013F921880843208028
:100D90002088C01020800520FFF792FC4FF480517E
:100DA0001248FFF7BDFD0520FFF78AFC4FF4805184
:100DB0000E48FFF7B3FDD02000F020F900F0F8F85E
:100DC000288028884FF6FF7101EA0020288000F073
:100DD000EFF82988084328802888C01028804FF41D
:100DE00080510248FFF79CFDBDE8F081000C0140F6
:100DF0007A313A2025642C207A323A2025640A0080
:100E00004FF0D842108051807047000029B1064A47
:100E100052690243044B5A6104E0034A5269824317
:100E2000014B5A61704700000010024029B1064A88
:100E3000D2690243044BDA6104E0034AD269824377
:100E4000014BDA61704700000010024029B1064AE8
:100E500092690243044B9A6104E0034A9269824317
:100E6000014B9A61704700000010024030B500212C
:100E70000022002400232D4D6D6805F00C0121B1E6
:100E8000042905D0082923D105E0294D056022E079
:100E9000274D05601FE0254D6D6805F47012234D48
:100EA0006D6805F48034022505EB92421CB9214D92
:100EB000554305600BE01D4D6D6805F400351DB10F
:100EC0001C4D5543056002E0194D5543056002E095
:100ED000174D056000BF00BF144D6D6805F0F001AF
:100EE0000909154D6B5C0568DD4045600F4D6D6867
:100EF00005F4E061090A104D6B5C4568DD408560D2
:100F00000A4D6D6805F46051C90A0B4D6B5C45686C
:100F1000DD40C560054D6D6805F44041890B074D06
:100F20006B5CC568B5FBF3F5056130BD0010024090
:100F300000127A0000093D009E000020AE00002053
:100F400021B1028842F04002028004E002884FF69C
:100F5000BF731A40028070470246002013890B407D
:100F60000BB1012000E000207047014688897047DE
:100F70008181704710B50022028802F441520B882B
:100F80004C8823438C882343CC8823430C892343F8
:100F90004C8923438C892343CC8923431A43028001
:100FA000838B4FF2FF74234083830B8A038210BD2F
:100FB00070B541F28834002000F020F801E0641E92
:100FC00000BF80210C48FFF7C7FF0128F7D00A486F
:100FD000FFF7CBFFC5B20520FFF772FB03E0641EED
:100FE000002C00DC05E001210348FFF7B5FF0128D4
:100FF000F5D000BF284670BD0038004070B50546EA
:1010000041F2883401E0641E00BF80210C48FFF7E4
:10101000A3FF0128F7D029460948FFF7A9FF0520BB
:10102000FFF74EFB03E0641E002C00DC05E002210C
:101030000348FFF791FF0028F5D000BF70BD000006
:101040000038004010B500F001F810BD0CB50020CC
:10105000019000903348006840F4803031490860C6
:1010600000BF3048006800F4003000900198401C38
:101070000190009818B90198B0F5A06FF1D12948F6
:10108000006800F4003010B10120009001E0002061
:1010900000900098012843D12348006840F01000D8
:1010A000214908600846006820F0030008600846EF
:1010B000006840F0020008601A484068194948601A
:1010C0000846406848600846406840F480604860D0
:1010D0000846406820F47C1048600846406840F4A8
:1010E000881048600846006840F08070086000BFC3
:1010F0000C48006800F000700028F9D009484068EA
:1011000020F00300074948600846406840F00200AC
:10111000486000BF0348406800F00C000828F9D17F
:101120000CBD00000010024000200240044800688E
:10113000012804D103480068401E02490860704736
:10114000040000200000002030B5144800684FF46F
:101150007A72B0FBF2F1481EB0F1807F00D31BE041
:10116000481E4FF0E022506150170F22002807DA86
:1011700013071D0E0A4B00F00F04241F1D5503E03A
:1011800013071C0E074B1C5400BF00204FF0E02239
:1011900090610720106100BF30BD0000B400002046
:1011A00018ED00E000E400E010B51348006840F0DE
:1011B00001001149086008464068104908400E497E
:1011C0004860084600680E4908400B490860084618
:1011D000006820F4802008600846406820F4FE0083
:1011E00048604FF41F008860FFF72CFF4FF000604D
:1011F0000449086010BD0000001002400000FFF824
:10120000FFFFF6FE08ED00E02DE9F04786B004464A
:101210000D4616461F46DDE90F9ADDF8388004209A
:101220008DF81700194830F81400ADF8140018496B
:1012300051F8240005A9FFF7E6FA18208DF81300ED
:1012400003208DF81200134830F81400ADF8100098
:101250000F4951F8240004A9FFF7D5FA00960020A1
:10126000ADF80C00ADF80890ADF806A0ADF804702C
:10127000ADF80A806946284600F030F8012128467A
:1012800000F013F806B0BDE8F0870000120000205F
:101290000C0000201000002001F40072B2F5007F65
:1012A00000D100BFCA430280704721B1828942F455
:1012B0000052828104E082894DF6FF731A408281D8
:1012C000704702460020B1F5007F00D100BF1388AF
:1012D0000B400BB1012000E0002070472DE9F047E2
:1012E00086B005460E460024A24600BFA146002750
:1012F000B08900B100BF2F462C8A4CF6FF70044025
:10130000F08804432C82AC894EF6F3100440B08878
:1013100031890843718908430443AC81AC8A4FF694
:10132000FF400440B0890443AC8201A8FFF79EFD52
:101330001F48874202D1DDF810A001E0DDF80CA0C3
:10134000A88900F4004040B10AEBCA0000EB0A1083
:1013500031684900B0FBF1F807E00AEBCA0000EB86
:101360000A1031688900B0FBF1F86420B8FBF0F096
:1013700004012009642101FB1089A88900F40040C0
:1013800040B1322000EBC900B0FBF1F000F00700E3
:10139000044308E0322000EB09106421B0FBF1F0B7
:1013A00000F00F0004432C8106B0BDE8F087000078
:1013B00000380140C1F30802828070470FB4054B2A
:1013C00010B503A9044A029800F052FB10BC5DF866
:1013D00014FB0000611C0008C8000020490050EA0E
:1013E000C12018BF04204A0D18BF40F0010040F290
:1013F000FF72B2EB515F08BF40F00200012808BF46
:10140000052070472DE9F74F144694B00021C4E938
:1014100002111599079121F00045C9498D4206DC5A
:101420001599C4E9000117B00020BDE8F08FC54947
:10143000DFF814A3A9423CDD0799C44E0029C44F2C
:10144000C44A1599534619DDFEF72FFF554506D0BE
:10145000C14AC24BFEF729FFC4E900010AE04FF080
:10146000D352BE4BFEF721FF32463B46FEF71DFF2F
:10147000C4E9000117B00120BDE8F08FFEF774FE4B
:10148000554506D0B44AB54BFEF76EFEC4E90001DF
:101490000AE04FF0D352B14BFEF766FE32463B46B0
:1014A000FEF762FEC4E9000117B04FF0FF30BDE85F
:1014B000F08FAB49A942159978DB21F000418346B2
:1014C0008846A84AA84BFEF7F6FE0022A74BFEF777
:1014D0004BFEFFF7D5F80990FFF7C1F806460F4617
:1014E0009C4A5346FEF7E7FE43465A46FEF7E0FEA7
:1014F00080468A46984A994B30463946FEF7DBFECD
:101500002A0D01250B9242465346FEF7D1FE032DCC
:10151000C4E9000139D00B98C1F30A51401A05EB18
:1015200045111139814230DA9148C346784400EBC5
:101530000510CDF80CA00C90D0E9002330463946B8
:10154000FEF7B9FE02460B460491069058460399F1
:10155000FEF7ABFE80468A4602460B465846039984
:10156000FEF7A3FE049B069AFEF79FFE83460C98A7
:1015700003913946D0E902233046FEF79CFE5A46D5
:10158000039BFEF792FE6D1CBDE707980028A2BFE3
:10159000099817B0BDE8F08F616881F00041616083
:1015A000099817B04042BDE8F08FFFE784461598D0
:1015B000C1F31301C0F30A50A0F2F5304FEA6018EE
:1015C00000F01F06C6F1200013900020069007903F
:1015D00041F4801E05206D4676B1664A08EB000195
:1015E0007A4452F8213002EB8101B3404A681399E2
:1015F00022FA01F1194305E05F4908EB0002794442
:1016000051F82210A1FB0E27A1FB0C131A449A4299
:1016100034BF0123002303EB070A05EB8003D3E962
:1016200001B70F448F4234BF0121002193448B4402
:1016300011B1934502D903E0934501D2012100E0A5
:101640000021C3E901B7514445F82010011EA0F163
:101650000100C1DC0298059F00F10050800F12903C
:101660000298DDE903568000FEF7F9FF834628461D
:101670000D91FEF792FE6FF01D02FEF7D9FFCDE946
:101680000E013046FEF789FE6FF03D02FEF7D0FFF7
:1016900080468A463846FEF780FE6FF05D02FEF710
:1016A000C7FF0746424653461191FEF75DFDDDE94F
:1016B0000E23FEF759FD5A460D9BFEF755FD0025FA
:1016C0000E465A4628460D9BFEF7EFFDDDE90E2338
:1016D000FEF7EBFD42465346FEF7E7FD3A46119B07
:1016E000FEF7E6FDDFF898A0244A5346FEF7E3FD37
:1016F00007468846234A244B31462846FEF7DBFD41
:101700003A464346FEF730FD074688464FF0A8426A
:10171000534631462846FEF7CEFD3A464346FEF78D
:1017200023FD159A12F0004F04D0129A81F0004167
:1017300052421292C4E90001129817B0BDE8F08F2E
:10174000FB21E93F7CD90240FB21F93F7370032E56
:101750008A19A33B000040543163621A61B4D03D42
:10176000FB21394183C8C96D305FE43F0000E03F91
:10177000200900009C0800007E080000182D445439
:10178000FB21F93D3326A611460B113C2DE9FF4DF7
:1017900021F0004807460C46B8F1795F08DAFEF7F9
:1017A0006FFF002801BF0020324904B0BDE8F08D72
:1017B0003A46234610461946FEF77DFD0546024689
:1017C0002D480E460B460621784400F05DF82A4667
:1017D0003346FEF770FDDDE9022382468B4638462C
:1017E0002146FEF768FD04460F4652465B462846F2
:1017F0003146FEF760FD22463B46FEF756FD0746A2
:101800008A464FF0FF3228463146FEF711FF1B4A49
:1018100090450ADA3A465346FEF747FD04B00022E7
:10182000BDE8F04D134BFEF743BD154A4245A8BF36
:10183000A8F500154FF00004B8BF124D22462B4604
:10184000FEF733FD0646884622462B46002009490E
:10185000FEF72BFD04460D463A46534630464146B8
:10186000FEF723FD04B022462B46BDE8F04DFEF7FF
:101870001FBD00000000F03F540600003333D33F8B
:101880000000E93F0000D23F2DE9F0414F1E00EB80
:10189000C7010446D1E9000115461E4637F006028D
:1018A0000DD02A463346FEF706FD7F1E04EBC70324
:1018B000D3E90023FEF758FC37F00602F1D1022FDE
:1018C00025D0042F13D0062F18BFBDE8F0812A467B
:1018D0003346FEF7F0FCD4E90A23FEF745FC2A461E
:1018E0003346FEF7E8FCD4E90823FEF73DFC2A4620
:1018F0003346FEF7E0FCD4E90623FEF735FC2A4622
:101900003346FEF7D8FCD4E90423FEF72DFC2A4623
:101910003346FEF7D0FCD4E90223FEF725FC2A4625
:101920003346FEF7C8FCD4E90023BDE8F041FEF7DA
:101930001BBC00002DE9FF4D054621F0004084B09E
:101940000C46B0F1795F0BDA2846FFF747FD042813
:1019500008BF00F06FF8284608B02146BDE8F08DBA
:101960002A460B461046FEF7A6FC06460F462A46B8
:101970002346FEF7A0FC804626488A4632463B4670
:1019800005217844FFF780FF83461098029160B3E9
:10199000214A224B40465146FEF78DFCCDE900011D
:1019A0005A4640465146029BFEF785FC82468846D1
:1019B000DDE906014FF0FF32FEF73AFE524643469C
:1019C000FEF773FC32463B46FEF775FCDDE9062365
:1019D000FEF76BFCDDE90023FEF767FC08B02A4642
:1019E0002346BDE8F04DFEF763BC0B465A46304631
:1019F0003946FEF760FC084A084BFEF7B5FB424645
:101A00005346FEF758FC08B02A462346BDE8F04D81
:101A1000FEF7AABB92050000495555555555C5BF5F
:101A20000122FEF705BE0022134610461146FEF7BE
:101A30007EBD0000024A00201107FEF7F9BD00003C
:101A400001FDFFFF02E008C8121F08C1002AFAD1F9
:101A500070477047002001E001C1121F002AFBD12E
:101A6000704700000149086070470000CC0000206A
:101A70002DE9FF4F89B09B460446002506E0252846
:101A80000BD05A460B999047641C6D1C2078002897
:101A9000F5D10DB02846BDE8F08F0027B8460122E9
:101AA000474900E0074314F8013F203B02FA03F0E6
:101AB0000842F7D120782E2819D114F8010F47F0E9
:101AC00004072A280ED06FF02F022078A0F13001F1
:101AD00009290CD808EB880102EB410100EB010851
:101AE000641CF2E70A98641C50F8048B0A90207872
:101AF0000028CED0642808D0692806D075281ED0CA
:101B00005A460B9990476D1C58E00A994FF00A0904
:101B100001C90A91002802DA40422D2102E039056C
:101B200004D52B218DF82010012103E0F90704D002
:101B30002021F7E78A4608AE0DE00021FAE70A996E
:101B40004FF00A0901C90A91F7E74946FEF74BFC35
:101B5000303106F8011D0028F7D1ADEB060000F189
:101B60002009780701D44FF00108C84502DDA8EB31
:101B7000090000E000208046002706E008A85A4639
:101B8000C05D0B9990476D1C7F1C5745F6DB04E048
:101B900030205A460B9990476D1CB8F10001A8F10E
:101BA0000108F5DC05E016F8010B5A460B99904741
:101BB0006D1CB9F10001A9F10109F4DC641C65E7B1
:101BC0000928010000B5244B21F0004287B09A4259
:101BD000DCBF0022134629DD204B9A4208D140B9D0
:101BE0004FF00100FFF73EFFFFF71DFF07B000BDFC
:101BF00003DBFFF715FF07B000BD02AAFFF702FCE9
:101C000010F0030104BF0DF1080C9CE80F000DD08B
:101C1000012001290ED0022914D00DF1080C0090EA
:101C20009CE80F00FFF786FE07B000BDFFF7AEFD92
:101C300007B000BD0DF1080C00909CE80F00FFF705
:101C400079FE05E00DF1080C9CE80F00FFF79EFD02
:101C500007B081F0004100BDFB21E93F0000F07FAB
:101C600070B504460D46E1B20548FFF7A3FB00BF7F
:101C700040210348FFF725FB0028F9D0204670BD1E
:101C80000038014086B04FF400456E10AF10EC10E4
:101C900001218803FFF7DAF840212F48FFF7FCFA0B
:101CA00001218803FFF7C2F801210820FFF7CEF8D1
:101CB00018202A49C8700320887045EA0600384376
:101CC00008802748FEF79FFD10202449C870084669
:101CD00004802348FEF797FD21462148FEF720FEA9
:101CE000382020498881002088804FF48270488005
:101CF00000200881C8800880C8811B48FFF73AF996
:101D000001211948FFF71CF9FFF71EFA00200822ED
:101D1000CDE9002003464FF416520F490290FFF719
:101D200073FAFEF7A5FE0120FEF7CAFC13E004A932
:101D300005A8FEF7F5FFBDF81020BDF814100BA0A4
:101D4000FFF73CFB40F2FF331E22BDF81010BDF838
:101D50001400FEF7E7FDEAE7003801400800002024
:101D6000000C0140D000002000380040546F756323
:101D70006820706F733A2025642C2025640A0000C7
:101D800000B5254B21F0004287B09A4203DC0022C7
:101D9000134600922BE0214B9A4208D140B94FF0F4
:101DA0000100FFF75FFEFFF73EFE07B000BD03DB5B
:101DB000FFF736FE07B000BD02AAFFF723FB10F0C5
:101DC00003014FF001000DD0012914D002291AD0CF
:101DD0000DF1080C9CE80F00FFF7D8FC07B081F06C
:101DE000004100BD0DF1080C00909CE80F00FFF7CA
:101DF000A1FD07B000BD0DF1080C9CE80F00FFF736
:101E0000C5FC07B000BD0DF1080C00909CE80F0068
:101E1000FFF790FDE2E70000FB21E93F0000F07FC3
:101E20004C5555555555A53F7751C1166CC156BFF8
:101E30009015CB19A001FA3EAD529C804F7E92BE08
:101E4000C4B1B4BD9EEE213ED43888BEE9FAA8BD27
:101E500000004054FB21F93F3163621A61B4D03D68
:101E60000000601A61B4D03D7370032E8A19A33B41
:101E70000000002E8A19A33BC14920259A837B3993
:101E800000000000000000006E83F9A22915444EF6
:101E9000D15727FCC0DD34F5999562DB4190433C76
:101EA000AB6351FE61C5BBDE3A6E24B7E0D24D4252
:101EB000EA2E49061C92D1091CEB1DFE3EA729B152
:101EC000F53582E88444BB2E26709CE9417E5FB4E0
:101ED00039D69139F43953838B5F849C3B28F9BD03
:101EE000FF97F81F0F9805DE8B112FEF1F6D0A5A11
:101EF000CF7E366DB709CB27663F464F2DEA5F9EF2
:101F0000C7BA27757BF1E5EBF739073DEA92528AAC
:101F1000B15FFB6B085D8D1FA6F810111111813F99
:101F2000D561C119A0012ABF7DFEB157E31DC73E8F
:101F3000EB9C2B8AE6E55ABE7CD5CF5A3AD9E53DD3
:101F4000601F000800000020D0000000441A0008B4
:101F500030200008D000002018040000541A0008A7
:101F60000000000000000000000000000008014028
:101F700000020004000000000014014000140140B1
:101F800000140140001401400018014000180140F5
:101F900000180140001801400018014000180140DD
:101FA00000180140001801400018014000140140D1
:101FB00000140140001401400040008001000200B4
:101FC0008000000100020004000800100020004012
:101FD0000080000100020004002001400010000009
:101FE000001C01400100000000140140200000001E
:101FF0000014014010000000000801400200000031
:102000000000010203040102030406070809020498
:102010000608000000A24A040000000000000000C2
:102020000102030406070809000000000000000088
:0400000508000131BD
:00000001FF
