:020000040800F2
:10000000780400202D0100083501000837010008A0
:10001000390100083B0100083D0100080000000014
:100020000000000000000000000000003F01000888
:1000300041010008000000004301000845010008DC
:100040004701000847010008470100084701000870
:100050004701000847010008470100084701000860
:100060004701000847010008470100084701000850
:100070004701000847010008470100084701000840
:100080004701000847010008470100084701000830
:100090004701000847010008470100084701000820
:1000A000470100084105000847010008090500084C
:1000B0004701000847010008470100084701000800
:1000C00047010008470100084701000847010008F0
:1000D00047010008CD070008470100084701000854
:1000E000470100084701000847010008DFF80CD06D
:1000F00000F02EF800480047C10B000878040020EB
:1001000030B50B46014600202022012409E021FAE7
:1001100002F59D4205D303FA02F5491B04FA02F5E4
:100120002844151EA2F10102F1DC30BD06488047CB
:1001300006480047FEE7FEE7FEE7FEE7FEE7FEE7CC
:10014000FEE7FEE7FEE7FEE7A9040008ED00000871
:10015000064C074D06E0E06840F0010394E8070014
:1001600098471034AC42F6D3FFF7C4FF440D0008A3
:10017000640D00080146DC2901DD01207047462995
:1001800001DA0220FAE70020F8E72DE9F041024603
:1001900000250026002000230024002791F803C03A
:1001A0000CF00F0591F803C00CF0100CBCF1000F1F
:1001B00003D091F802C04CEA050591F800C0BCF1EB
:1001C000000F31D0146800202BE04FF0010C0CFA26
:1001D00000F3B1F800C00CEA03069E4220D1830070
:1001E0004FF00F0C0CFA03F7BC4305FA03FC4CEA82
:1001F000040491F803C0BCF1280F06D14FF0010CA4
:100200000CFA00FCC2F814C00AE091F803C0BCF17B
:10021000480F05D14FF0010C0CFA00FCC2F810C0D9
:10022000401C0828D1D31460B1F800C0BCF1FF0F06
:1002300034DD546800202EE000F1080C4FF0010876
:1002400008FA0CF3B1F800C00CEA03069E4221D173
:1002500083004FF00F0C0CFA03F7BC4305FA03FCC4
:100260004CEA040491F803C0BCF1280F05D100F159
:10027000080C08FA0CF8C2F8148091F803C0BCF11D
:10028000480F07D100F1080C4FF0010808FA0CF8EC
:10029000C2F81080401C0828CED35460BDE8F0811D
:1002A000416170470161704700F01F0201219140D8
:1002B0004209920002F1E022C2F8001170470000EA
:1002C00029B1064A92690243044B9A6104E0034A49
:1002D00092698243014B9A6170470000001002400E
:1002E00030B500210022002400232D4D6D6805F05B
:1002F0000C0121B1042905D0082923D105E0294D9D
:10030000056022E0274D05601FE0254D6D6805F46E
:100310007012234D6D6805F48034022505EB92427E
:100320001CB9214D554305600BE01D4D6D6805F46A
:1003300000351DB11C4D5543056002E0194D554374
:10034000056002E0174D056000BF00BF144D6D68E9
:1003500005F0F0010909154D6B5C0568DD4045604D
:100360000F4D6D6805F4E061090A104D6B5C45683E
:10037000DD4085600A4D6D6805F46051C90A0B4D7A
:100380006B5C4568DD40C560054D6D6805F4404116
:10039000890B074D6B5CC568B5FBF3F5056130BD96
:1003A0000010024000127A0000093D0030000020D9
:1003B0004000002000200149086070472000002014
:1003C00010B500F001F810BD0CB5002001900090B0
:1003D0003348006840F480303149086000BF30483D
:1003E000006800F4003000900198401C01900098D3
:1003F00018B90198B0F5A06FF1D12948006800F450
:10040000003010B10120009001E000200090009821
:10041000012843D12348006840F0100021490860BA
:100420000846006820F0030008600846006840F0B5
:10043000020008601A484068194948600846406848
:1004400048600846406840F480604860084640685C
:1004500020F47C1048600846406840F4E81048608A
:100460000846006840F08070086000BF0C480068D3
:1004700000F000700028F9D00948406820F003001F
:10048000074948600846406840F00200486000BFE5
:100490000348406800F00C000828F9D10CBD0000AA
:1004A000001002400020024010B51348006840F0E0
:1004B00001001149086008464068104908400E498B
:1004C0004860084600680E4908400B490860084625
:1004D000006820F4802008600846406820F4FE0090
:1004E00048604FF41F008860FFF76AFF4FF000601C
:1004F0000449086010BD0000001002400000FFF831
:10050000FFFFF6FE08ED00E010B50221084800F0FC
:100510005EF8012807D10748074A126830F8121020
:100520000648FFF7BDFE0221014800F041F810BD6A
:10053000002C0140400D0008280000200008014068
:1005400010B50121154800F042F8012821D11448C6
:100550000068401C12490860086800EBD07149101F
:10056000A0EB41010E4A11600E48126830F81210DB
:100570000D48FFF797FE0A480068441C04EBD4704E
:100580004010A4EB4000094A32F81010034800F074
:100590008EF80121014800F00BF810BD002C01403D
:1005A00028000020400D0008000801402400002021
:1005B000CA430282704721B1028842F001020280E0
:1005C00004E002884FF6FE731A400280704730B58F
:1005D0000246002000230024158A05EA01039589BC
:1005E00005EA010413B10CB1012000E0002030BD88
:1005F0001AB183890B43838102E083898B43838112
:100600007047000070B5002400220023058C4FF6CF
:10061000FE7635400584028C8388048B4FF68F75F7
:100620002C40B51E2C400D882C43751E2A400D8988
:100630002A434D882A43144DA8420BD0134DA8429B
:1006400008D0134DA84205D0124DA84202D0124D39
:10065000A84213D14FF6F7752A404D892A434FF629
:10066000FB752A408D882A434FF6FF652B404FF6D5
:10067000FF552B408D892B43CD892B4383800483E9
:10068000CD888586028470BD002C01400034014075
:100690000040014000440140004801400A4600215A
:1006A000018B4FF6F7731940114301837047818620
:1006B00070470000002202881D4B98420ED01D4B4F
:1006C00098420BD0B0F1804F08D01B4B984205D018
:1006D0001A4B984202D01A4B984204D14FF68F73AE
:1006E0001A404B881A43174B984207D0164B984232
:1006F00004D04FF6FF431A40CB881A4302808B8800
:1007000083850B8803850A4B98420BD0094B98428E
:1007100008D00E4B984205D00D4B984202D00D4B9D
:10072000984201D10B7A038601238382704700002F
:10073000002C01400034014000040040000800404B
:10074000000C004000100040001400400040014038
:1007500000440140004801402DE9F04104460D46A7
:1007600016464FF000082088A84201DAB04604E09F
:100770002088A84201DDC6F1000806E02088404438
:10078000208021880DA000F03FF92088462805DB55
:100790002088DC2802DC2088A842EFD12088FFF7DF
:1007A000E9FC0746012F02D1DC20208003E0022F64
:1007B00001D146202080BDE8F08100005468726FAE
:1007C00074746C653A2025640A00000010B540F28C
:1007D0002551074800F03AF848B1064800F0F2F811
:1007E0000549086040F22551014800F007F810BDA6
:1007F00000380140200000202C00002010B500220D
:10080000002340F66A14A14200D100BF0A1201245D
:100810009440A3B2DC43048010BD21B1828942F42C
:100820000052828104E082894DF6FF731A40828172
:10083000704702460020B1F5007F00D100BF138849
:100840000B400BB1012000E00020704770B502465C
:10085000002400230025002040F66A16B14200D192
:1008600000BFC1F3421501F01F03012606FA03F38E
:10087000012D02D19689334006E0022D02D1168A5D
:10088000334001E0968A33400C12012606FA04F444
:100890001688344013B10CB1012000E0002070BD77
:1008A000F0B50346002400260025002040F66A1714
:1008B000B94200D100BF1846C1F3421401F01F062F
:1008C000012707FA06F5012C01D10C3004E0022CB7
:1008D00001D1103000E014301AB107682F430760CF
:1008E00002E00768AF430760F0BD00002DE9F04764
:1008F00086B005460E460024A24600BFA14600274A
:10090000B08900B100BF2F462C8A4CF6FF7004401E
:10091000F08804432C82AC894EF6F3100440B08872
:1009200031890843718908430443AC81AC8A4FF68E
:10093000FF400440B0890443AC8201A8FFF7D0FC1B
:100940001F48874202D1DDF810A001E0DDF80CA0BD
:10095000A88900F4004040B10AEBCA0000EB0A107D
:1009600031684900B0FBF1F807E00AEBCA0000EB80
:100970000A1031688900B0FBF1F86420B8FBF0F090
:1009800004012009642101FB1089A88900F40040BA
:1009900040B1322000EBC900B0FBF1F000F00700DD
:1009A000044308E0322000EB09106421B0FBF1F0B1
:1009B00000F00F0004432C8106B0BDE8F087000072
:1009C0000038014070B50446094800F013F8C5B27C
:1009D000662D01D1012070BD206800EB8000400031
:1009E0002060A5F130002168084420600020F2E773
:1009F0000038014001468888C0F308007047C1F301
:100A000008028280704700000FB4054B10B503A99F
:100A1000044A029800F018F810BC5DF814FB0000BE
:100A20009D0B00084400002002E008C8121F08C106
:100A3000002AFAD170477047002001E001C1121F5F
:100A4000002AFBD1704700002DE9FF4F89B09B467B
:100A50000446002506E025280BD05A460B999047FE
:100A6000641C6D1C20780028F5D10DB02846BDE827
:100A7000F08F0027B8460122474900E0074314F8E9
:100A8000013F203B02FA03F00842F7D120782E28DC
:100A900019D114F8010F47F004072A280ED06FF07F
:100AA0002F022078A0F1300109290CD808EB880129
:100AB00002EB410100EB0108641CF2E70A98641C98
:100AC00050F8048B0A9020780028CED0642808D0F3
:100AD000692806D075281ED05A460B9990476D1C80
:100AE00058E00A994FF00A0901C90A91002802DA70
:100AF00040422D2102E0390504D52B218DF820102C
:100B0000012103E0F90704D02021F7E78A4608AE67
:100B10000DE00021FAE70A994FF00A0901C90A918C
:100B2000F7E74946FFF7ECFA303106F8011D0028D7
:100B3000F7D1ADEB060000F12009780701D44FF0A2
:100B40000108C84502DDA8EB090000E0002080464E
:100B5000002706E008A85A46C05D0B9990476D1C17
:100B60007F1C5745F6DB04E030205A460B9990472E
:100B70006D1CB8F10001A8F10108F5DC05E016F8DC
:100B8000010B5A460B9990476D1CB9F10001A9F170
:100B90000109F4DC641C65E70928010070B504460E
:100BA0000D46E1B20548FFF72AFF00BF4021034888
:100BB000FFF73FFE0028F9D0204670BD0038014005
:100BC000002401210420FFF77BFB01218803FFF7AC
:100BD00077FB0121C802FFF773FB2520FFF764FBB9
:100BE0001920FFF761FB1B20FFF75EFB042045493E
:100BF000C870000208804448FFF7C7FA182043492C
:100C0000C8704FF400700880032088703E48FFF7DA
:100C1000BCFA00250CE010203D49C8703D4830F872
:100C200015000880032088703748FFF7AEFA6D1C66
:100C3000022DF0DB4FF41650374908600020888100
:100C40000881C88088800C2048813448FFF74EFE18
:100C5000012240F225513148FFF722FE01212F48A1
:100C6000FFF7DBFD00202E49C88048802D48006832
:100C70002D49B0FBF1F0401E2949088040F2E730D1
:100C800088802A48FFF716FD602029490880012046
:100C900048804620C880002008812448FFF7B2FC25
:100CA00001212248FFF787FC08212048FFF7F6FCC6
:100CB000012211461D48FFF79BFC012202211B481F
:100CC000FFF796FC134801880F48FFF7EBFA17E08F
:100CD00018480068012813D1174901EB440002228B
:100CE00016490968FFF738FDFFF764FB641C2046CE
:100CF00004EBD0714910A4EB410400200D490860B9
:100D0000E6E7000014000020000801401800002061
:100D10001C000020400D0008480000200038014061
:100D20005800002000000020A0860100002C014097
:100D3000620000202C000020240000202000002061
:100D400010002000640D0008000000204800000092
:100D5000280A0008AC0D00084800002030040000FC
:100D6000380A000800A24A04000000000000000049
:100D7000010203040607080900000000000000004B
:100D800000000000000000004600460000000000D7
:100D9000000000000000000001020304010203043F
:0C0DA00006070809020406080000000015
:04000005080000ED02
:00000001FF
