:020000040800F2
:10000000880400202D010008350100083701000890
:10001000390100083B0100083D0100080000000014
:100020000000000000000000000000003F01000888
:1000300041010008000000004301000829080008F1
:100040004701000847010008470100084701000870
:100050004701000847010008470100084701000860
:100060004701000847010008470100084701000850
:100070004701000847010008470100084701000840
:100080004701000847010008470100084701000830
:100090004701000847010008470100084701000820
:1000A0004701000847010008470100084701000810
:1000B0004701000847010008470100084701000800
:1000C00047010008470100084701000847010008F0
:1000D00047010008470100084701000847010008E0
:1000E000470100084701000847010008DFF80CD06D
:1000F00000F02EF800480047AD0B000888040020EF
:1001000030B50B46014600202022012409E021FAE7
:1001100002F59D4205D303FA02F5491B04FA02F5E4
:100120002844151EA2F10102F1DC30BD06488047CB
:1001300006480047FEE7FEE7FEE7FEE7FEE7FEE7CC
:10014000FEE7FEE7FEE7FEE745080008ED000008D1
:10015000064C074D06E0E06840F0010394E8070014
:1001600098471034AC42F6D3FFF7C4FF1C0D0008CB
:100170003C0D000821B1826842F00102826003E078
:10018000826822F001028260704721B1826842F4E5
:100190008072826003E0826822F48072826070471D
:1001A000014600208A6802F008020AB1012000E03E
:1001B0000020704730B502460020002350680F4CE5
:1001C00020400D790C6844EA052420435060906873
:1001D0000B4C2040D1E902542C434D7944EA4504AC
:1001E00020439060D06A20F470000C7C641EE4B25E
:1001F000234340EA0350D06230BD0000FFFEF0FF11
:10020000FDF7F1FFF0B504460D4600200021092D51
:1002100011DDE068A5F10A0606EB4607072606FA97
:1002200007F18843A5F10A0606EB460603FA06F134
:100230000843E0600CE0206905EB4507072606FA55
:1002400007F1884305EB450603FA06F108432061F0
:10025000072A0FDA606B561E06EB86071F2606FA82
:1002600007F18843561E06EB860605FA06F1084399
:10027000606322E00D2A0FDA206BD61F06EB86079B
:100280001F2606FA07F18843D61F06EB860605FAF5
:1002900006F10843206310E0E06AA2F10D0606EBC8
:1002A00086071F2606FA07F18843A2F10D0606EB22
:1002B000860605FA06F10843E062F0BD816841F068
:1002C00008018160704721B1826842F4A002826017
:1002D00003E0826822F4A00282607047816841F0E6
:1002E00004018160704721B1026842F0010202609E
:1002F00004E002684FF6FE731A4002607047000087
:1003000001684FF6FE7211400160002101604160FA
:100310008160C1604B49884208D14A49083949681F
:1003200041F00F01474A083A51608AE045491431CB
:10033000884208D143490839496841F0F001414AEF
:10034000083A51607DE03F492831884208D13D4953
:100350000839496841F470613A4A083A516070E0DE
:1003600038493C31884208D136490839496841F456
:100370007041344A083A516063E032495031884252
:1003800008D130490839496841F470212D4A083AAA
:10039000516056E02B496431884208D12949083917
:1003A000496841F47001274A083A516049E02549FB
:1003B0007831884208D123490839496841F0706191
:1003C000204A083A51603CE01F49884206D1011F8B
:1003D000096841F00F01021F116032E01A4914311F
:1003E000884208D11849091F096841F0F001164AEE
:1003F000121F116025E014492831884208D11249A2
:10040000091F096841F470610F4A121F116018E05A
:100410000D493C31884208D10B49091F096841F454
:100420007041094A121F11600BE0074950318842A0
:1004300007D10549091F096841F47021024A121FBA
:1004400011607047080002400804024010B5002205
:10045000026847F6F0739A430C6A8B6823430C6971
:1004600023434C6923438C692343CC6923434C6A5F
:1004700023438C6A23431A430260CB6843600B68B2
:1004800083604B68C36010BD00214FF0E022916192
:100490000121064A11600649086000BF0449096845
:1004A0000029FBD1014A1160704700002C00002098
:1004B000280000202DE9F0410246002500260020FA
:1004C00000230024002791F803C00CF00F0591F8D9
:1004D00003C00CF0100CBCF1000F03D091F802C067
:1004E0004CEA050591F800C0BCF1000F31D014684A
:1004F00000202BE04FF0010C0CFA00F3B1F800C023
:100500000CEA03069E4220D183004FF00F0C0CFA38
:1005100003F7BC4305FA03FC4CEA040491F803C05A
:10052000BCF1280F06D14FF0010C0CFA00FCC2F808
:1005300014C00AE091F803C0BCF1480F05D14FF098
:10054000010C0CFA00FCC2F810C0401C0828D1D3E2
:100550001460B1F800C0BCF1FF0F34DD5468002016
:100560002EE000F1080C4FF0010808FA0CF3B1F886
:1005700000C00CEA03069E4221D183004FF00F0C0D
:100580000CFA03F7BC4305FA03FC4CEA040491F8A7
:1005900003C0BCF1280F05D100F1080C08FA0CF8D3
:1005A000C2F8148091F803C0BCF1480F07D100F1E4
:1005B000080C4FF0010808FA0CF8C2F81080401C33
:1005C0000828CED35460BDE8F081000030B514484F
:1005D00000684FF47A72B0FBF2F1481EB0F1807FF0
:1005E00000D31BE0481E4FF0E022506150170F224D
:1005F000002807DA13071D0E0A4B00F00F04241F12
:100600001D5503E013071C0E074B1C5400BF0020B0
:100610004FF0E02290610720106100BF30BD000064
:100620000000002018ED00E000E400E029B1064AD7
:1006300052690243044B5A6104E0034A52698243FF
:10064000014B5A61704700000010024029B1064A70
:1006500092690243044B9A6104E0034A926982431F
:10066000014B9A61704700000010024030B5002134
:100670000022002400232D4D6D6805F00C0121B1EE
:10068000042905D0082923D105E0294D056022E081
:10069000274D05601FE0254D6D6805F47012234D50
:1006A0006D6805F48034022505EB92421CB9214D9A
:1006B000554305600BE01D4D6D6805F400351DB117
:1006C0001C4D5543056002E0194D5543056002E09D
:1006D000174D056000BF00BF144D6D6805F0F001B7
:1006E0000909154D6B5C0568DD4045600F4D6D686F
:1006F00005F4E061090A104D6B5C4568DD408560DA
:100700000A4D6D6805F46051C90A0B4D6B5C456874
:10071000DD40C560054D6D6805F44041890B074D0E
:100720006B5CC568B5FBF3F5056130BD0010024098
:1007300000127A0000093D00300000204000002037
:1007400010B500F001F810BD0CB50020019000902C
:100750003348006840F480303149086000BF3048B9
:10076000006800F4003000900198401C019000984F
:1007700018B90198B0F5A06FF1D12948006800F4CC
:10078000003010B10120009001E00020009000989E
:10079000012843D12348006840F010002149086037
:1007A0000846006820F0030008600846006840F032
:1007B000020008601A4840681949486008464068C5
:1007C00048600846406840F48060486008464068D9
:1007D00020F47C1048600846406840F4E810486007
:1007E0000846006840F08070086000BF0C48006850
:1007F00000F000700028F9D00948406820F003009C
:10080000074948600846406840F00200486000BF61
:100810000348406800F00C000828F9D10CBD000026
:10082000001002400020024004480068012804D162
:1008300003480068401E0249086070472C000020F1
:100840002800002010B51348006840F0010011494D
:10085000086008464068104908400E49486008464C
:1008600000680E4908400B4908600846006820F4FB
:10087000802008600846406820F4FE0048604FF47D
:100880001F008860FFF75CFF4FF0006004490860BC
:1008900010BD0000001002400000FFF8FFFFF6FE50
:1008A00008ED00E02DE9FF4707460C4615461E46B9
:1008B000DDE90C9800940020ADF80C00ADF808902C
:1008C000ADF80680ADF80450ADF80A6069463846C8
:1008D00000F020F80121384600F002F8BDE8FF875B
:1008E00021B1828942F40052828104E082894DF66E
:1008F000FF731A408281704702460020B1F5007FE5
:1009000000D100BF13880B400BB1012000E0002094
:10091000704700002DE9F04786B005460E460024DA
:10092000A24600BFA1460027B08900B100BF2F46F4
:100930002C8A4CF6FF700440F08804432C82AC896A
:100940004EF6F3100440B08831890843718908439A
:100950000443AC81AC8A4FF6FF400440B0890443A5
:10096000AC8201A8FFF782FE1F48874202D1DDF862
:1009700010A001E0DDF80CA0A88900F4004040B10F
:100980000AEBCA0000EB0A1031684900B0FBF1F82D
:1009900007E00AEBCA0000EB0A1031688900B0FBDF
:1009A000F1F86420B8FBF0F004012009642101FB98
:1009B0001089A88900F4004040B1322000EBC90042
:1009C000B0FBF1F000F00700044308E0322000EB38
:1009D00009106421B0FBF1F000F00F0004432C81FA
:1009E00006B0BDE8F087000000380140C1F30802FE
:1009F000828070470FB4054B10B503A9044A0298D2
:100A000000F018F810BC5DF814FB0000890B00081A
:100A10004400002002E008C8121F08C1002AFAD1D1
:100A200070477047002001E001C1121F002AFBD16E
:100A3000704700002DE9FF4F89B09B460446002512
:100A400006E025280BD05A460B999047641C6D1C74
:100A500020780028F5D10DB02846BDE8F08F00279A
:100A6000B8460122474900E0074314F8013F203B04
:100A700002FA03F00842F7D120782E2819D114F891
:100A8000010F47F004072A280ED06FF02F022078BC
:100A9000A0F1300109290CD808EB880102EB4101D3
:100AA00000EB0108641CF2E70A98641C50F8048B00
:100AB0000A9020780028CED0642808D0692806D073
:100AC00075281ED05A460B9990476D1C58E00A991C
:100AD0004FF00A0901C90A91002802DA40422D218B
:100AE00002E0390504D52B218DF82010012103E007
:100AF000F90704D02021F7E78A4608AE0DE000216F
:100B0000FAE70A994FF00A0901C90A91F7E749463D
:100B1000FFF7F6FA303106F8011D0028F7D1ADEBEA
:100B2000060000F12009780701D44FF00108C845FC
:100B300002DDA8EB090000E000208046002706E067
:100B400008A85A46C05D0B9990476D1C7F1C5745FD
:100B5000F6DB04E030205A460B9990476D1CB8F143
:100B60000001A8F10108F5DC05E016F8010B5A4672
:100B70000B9990476D1CB9F10001A9F10109F4DC52
:100B8000641C65E70928010070B504460D46E1B212
:100B90000548FFF72BFF00BF40210348FFF7ACFEDD
:100BA0000028F9D0204670BD003801401CB5012155
:100BB0004802FFF74BFD01210846FFF737FD0121F1
:100BC0000420FFF743FD01218803FFF73FFD0020CC
:100BD0004449C870022008804348FFF76BFC04209A
:100BE0004249C870000208803F48FFF763FC1820A4
:100BF0003F49C8704FF400700880032088703A485D
:100C0000FFF758FC3B48FFF77BFB00203A4988621E
:100C100088603A4848604FF48060C86100204861AD
:100C2000202008623648086080158861002008612D
:100C30004FF4005048620120C8602E48FFF706FCC0
:100C400001212C48FFF74FFB00202E490860C860A7
:100C5000012008714FF4602088602B4800780874E8
:100C60000120487126484C38FFF7A4FA05230122D9
:100C7000114623484C38FFF7C5FA012120484C386B
:100C8000FFF783FA01211E484C38FFF773FA1C481E
:100C90004C38FFF713FB00BF19484C38FFF780FAB8
:100CA0000028F9D116484C38FFF718FB01211448E9
:100CB0004C38FFF708FB002000900C2302464FF44D
:100CC000165101901148FFF7EDFDFFF77FFC07E09B
:100CD0000A4801680EA0FFF78DFE6420FFF7D4FBE1
:100CE000F6E7000014000020000801401800002072
:100CF0001C000020080002405C00002020000020B2
:100D00004C2401404800002024000020003801400D
:100D10004144433A2025640A000000003C0D0008CD
:100D20000000002048000000140A0008840D00089C
:100D30004800002040040000240A000800A24A04E1
:100D4000000000000000000001020304060708097B
:100D50000000000000000000000000000000000093
:100D60000100000000000000000000000000000082
:100D7000010203040102030406070809020406082D
:040D8000000000006F
:04000005080000ED02
:00000001FF
