:020000040800F2
:10000000080200200101000805010008070100089E
:10001000090100080B0100080D01000800000000A4
:100020000000000000000000000000000F010008B8
:10003000110100080000000013010008150100086C
:100040001701000817010008170100081701000830
:10005000170100081701000861010008BD01000830
:100060000102000817010008170100081701000825
:100070001701000817010008170100081701000800
:1000800017010008170100081701000817010008F0
:1000900017010008170100081701000817010008E0
:1000A00017010008170100081701000817010008D0
:1000B00017010008170100081701000817010008C0
:1000C00017010008170100081701000817010008B0
:1000D00017010008170100081701000817010008A0
:1000E000170100081701000817010008DFF80CD0FD
:1000F00000F014F8004800474D03000808020020F3
:1001000005480047FEE7FEE7FEE7FEE7FEE7FEE7FD
:10011000FEE7FEE7FEE7FEE7ED000008064C074DB0
:1001200006E0E06840F0010394E8070098471034C7
:10013000AC42F6D3FFF7DEFFFC0300081C04000806
:1001400000B5024604E043F6982000F004F8521E81
:10015000002AF8D100BD00E0401E0028FCD1704705
:1001600000B51348006800F00100F8B111480068BC
:10017000401C10490860002312E00F48006840F05E
:1001800001000D4908600120FFF7DAFF0A48006806
:1001900020F00100084908600120FFF7D1FF5B1C37
:1001A000B3F57A7FE9DB01200149086000BD00005A
:1001B00014040140000000200C08014000B5002399
:1001C00012E00D48006840F002000B490860012071
:1001D000FFF7B6FF0848006820F0020006490860F3
:1001E0000120FFF7ADFF5B1CB3F57A7FE9DB02204E
:1001F0000249086000BD00000C08014014040140E1
:1002000000B5002312E00D48006840F004000B49DF
:1002100008600120FFF794FF0848006820F0040000
:10022000064908600120FFF78BFF5B1CB3F57A7F5E
:10023000E9DB04200249086000BD00000C08014011
:10024000140401403248806940F00100304988615F
:100250003048806840F002002E4988600846806877
:1002600040F0200088600846806840F40070886094
:100270002948006840F001002749086008460068E6
:1002800040F0020008600846006840F00400086082
:1002900021480C30006840F001001F490C31086013
:1002A0000846006840F0020008600846006840F018
:1002B0000C0008601948006840F040004FF0E02151
:1002C000C1F800010846D0F8000140F08000C1F8F4
:1002D00000010846D0F8000140F480700F49086022
:1002E00000200F4908600F4808600F48006840F47C
:1002F00040100D4908600846006840F00050086052
:10030000081D006840F02000091D086070470000CB
:1003100000100240000001400004014000E100E044
:100320000CED00E00005FA0504E400E002E008C876
:10033000121F08C1002AFAD170477047002001E05F
:1003400001C1121F002AFBD17047000000F018F80D
:10035000FFF778FF00BF0948006840F00800074930
:1003600008600120FFF7ECFE0448006820F0080058
:10037000024908600120FFF7E3FEECE70C080140AA
:1003800000201B4988610846806940F004008861AC
:100390000846806940F01000886100201549086017
:1003A000154908601348006840F0030011490860CF
:1003B0000846006840F0300008600846006840F4D5
:1003C000407008600846006840F4405008600A48E1
:1003D000006840F00400084908600846006840F0E2
:1003E000400008600846006840F48060086070477C
:1003F0000010024000080140001001401C040008E9
:1004000000000020040000002C0300082004000865
:1004100004000020040200003C030008000000006B
:04000005080000ED02
:00000001FF
