:020000040800F2
:10000000C8040020450100084D0100084F01000808
:1000100051010008530100085501000800000000CC
:100020000000000000000000000000005701000870
:1000300059010008000000005B010008F10F0008F2
:100040005F0100085F0100085F0100085F01000810
:100050005F0100085F0100085F0100085F01000800
:100060005F0100085F0100085F0100085F010008F0
:100070005F0100085F0100085F0100085F010008E0
:100080005F0100085F0100085F0100085F010008D0
:100090005F0100085F0100085F0100085F010008C0
:1000A0005F0100085F0100085F0100085F010008B0
:1000B0005F0100085F0100085F0100085F010008A0
:1000C0005F0100085F0100085F0100085F01000890
:1000D0005F0100085F0100085F0100085F01000880
:1000E0005F0100085F0100085F0100085F01000870
:1000F0005F0100085F0100085F0100085F01000860
:100100005F0100085F0100085F0100085F0100084F
:100110005F0100085F0100085F0100085F0100083F
:100120005F0100085F0100085F0100085F0100082F
:10013000DFF80CD000F054FA004800477D190008A1
:10014000C80400200648804706480047FEE7FEE74F
:10015000FEE7FEE7FEE7FEE7FEE7FEE7FEE7FEE777
:100160006D100008310100082DE9FE4F804681EA3C
:100170000300C00F0C46009021F0004123F0004521
:10018000B8EB0200A94105D24046214690461C46E4
:100190000B46024623F00040104347D0270DC7F31B
:1001A0000A00C3F30A510290401A019040286BDA0A
:1001B000C3F3130040F4801B0098924620B1002343
:1001C000D2EB030A63EB0B0B01985946C0F14002D6
:1001D000504600F008F906460D4650465946019A29
:1001E00000F020F910EB08006141002487EA115269
:1001F00084EAE7731A4340D0009A62B3019A012A55
:100200004FEA075215DC001B61EB02014FF0004280
:1002100002EA0752CDE90042001C41F58011324646
:100220002B4600F020F903B0BDE8F08F4046214690
:10023000F9E7001B61EB0201001C41F58013001877
:100240005B412018A2F5001747EB030140EAD57087
:10025000B6196D4111E06D084FEA360645EAC075E2
:100260004FEA0752001B61EB0201001C41F58011AF
:1002700049084FEA30000019514132462B4603B07D
:10028000BDE8F04F00F0E0B80098012240000023E4
:10029000D0EB020263EBE073009821464FEAE07472
:1002A000B8EB000061EB0401E9E783F000435BE792
:1002B00081F0004158E72DE9FE4F81EA030404F084
:1002C000004421F0004100944FF0000B23F0004364
:1002D00050EA01045ED052EA03045BD0C3F30A542F
:1002E000C1F30A552C44A4F2F3340194A0FB025448
:1002F000C1F3130141F48011C3F3130343F48013DA
:1003000001FB024400FB034E840A970A44EA81542D
:1003100047EA8357A4FB076802958D0A05FB07850A
:100320004FEA932C04FB0C542705029D4FEA065814
:1003300047EA1637B5EB08056EEB070C870E920EF1
:1003400047EA811742EA8312A7FB0201B6EB0B01D1
:1003500064EB00042B0D43EA0C335E1844EB1C5095
:10036000DA465146E7FB0201C5F313044FEA0B33AB
:1003700043EA14534FEA0432019C43EA0603A4F112
:100380000C040294009CCDE900B400F06CF803B0BA
:10039000BDE8F08F00200146F9E70EB540F2334189
:1003A00002910021CDE900110A460B4600F05BF8EE
:1003B00003B000BDC1F30A5210B5C1F3130140F2FE
:1003C000FF3341F480119A4201DA002010BD40F25F
:1003D00033439A42A2F2334203DC524200F012F855
:1003E00010BD904010BD202A04DB203A00FA02F133
:1003F000002070479140C2F1200320FA03F3194313
:1004000090407047202A04DB203A21FA02F00021B4
:10041000704721FA02F3D040C2F120029140084314
:1004200019467047202A06DBCB17203A41FA02F022
:1004300043EAE07306E041FA02F3D040C2F1200241
:10044000914008431946704710B5141E73F100041B
:1004500008DA401C41F1000192185B411A4301D1B6
:1004600020F0010010BD2DE9F04D92469B4611B1E0
:10047000B1FA81F202E0B0FA80F220329046FFF742
:10048000B2FF04460F4640EA0A0041EA0B01534618
:100490005A46084313D0114653EA010019D0C8F157
:1004A00040025046FFF7AEFF05460E4650465946FD
:1004B0004246FFF798FF084305D0012004E020469C
:1004C0003946BDE8F08D0020054346EAE0762C432E
:1004D00037430A986305E40AA0EB08000022FD0AEE
:1004E00044EA47540A3002D500200146E9E70105F5
:1004F00010196941DDE9084500196941BDE8F04D71
:10050000A2E72DE9F04D81EA030404F0004B21F04D
:10051000004514464FF0000A23F0004150EA05025E
:1005200020D054EA01021DD0C5F30A570246C5F394
:100530001303C1F31300C1F30A5640F4801543F4CA
:100540008013A7EB0608101BD64608F2FD3873EBA4
:10055000050002D308F1010801E092185B41B8F1EF
:10056000000F03DA00200146BDE8F08D00204FF4B3
:100570008011064684460EE0171B73EB050705D372
:10058000121B63EB050306434CEA010C49084FEAD2
:10059000300092185B4150EA0107EDD152EA0300A6
:1005A00012D082EA040083EA0501084305D0101B3B
:1005B000AB4106D20122002306E000224FF00043A7
:1005C00002E06FF0010253101AEB06004CEB0851E9
:1005D00010EB0A0041EB0B01BDE8F04DFFF734BF13
:1005E000064C074D06E0E06840F0010394E8070080
:1005F00098471034AC42F6D3FFF79EFD18740208FA
:100600003874020870B521F0004303430CD0C1F3E5
:100610000A550024D5EB040564EB0403D617AD1A84
:10062000B34102DB0020014670BD201841EB0251AE
:1006300070BD0EB5C10F80EAE0700844CA07002102
:1006400040F233438DE80E000A460B46FFF70BFFDE
:1006500003B000BD70B5C1F30A5201F0004500249B
:10066000C1F3130140F2FF3341F480119A4201DAE1
:10067000002070BD40F233439A42A2F2334203DCC1
:100680005242FFF7BFFE00E090402C43F1D04042C1
:1006900070BD000000214FF0E02291610121064A67
:1006A00011600649086000BF044909680029FBD1B0
:1006B000014A116070470000040000200000002083
:1006C00051B18200A2F1C042126842F001038200DF
:1006D000A2F1C042136009E08200A2F1C042126898
:1006E000034B1A408300A3F1C0431A607047000017
:1006F000FEFF0F00D0E901121143C26811430269E5
:1007000011434269114382691143C2691143026A6C
:100710001143426A1143826A1143C26A1143026B58
:10072000114302689200A2F1C04211608168082959
:100730000BD101688900A1F1C041096841F0400274
:1007400001688900A1F1C0410A60416B0968426BF0
:10075000526841EA0211426B926841EA0221426BFF
:10076000928941EA0241426B128A41EA0251426B8C
:10077000127D41EA0261426B926911430268521C88
:100780009200A2F1C0421160C16AB1F5804F1BD145
:10079000816B0968826B526841EA0211826B926830
:1007A00041EA0221826B128A41EA0251826B127D78
:1007B00041EA0261826B9269114302689200A2F1E0
:1007C000C042C2F8041107E06FF07042016889006E
:1007D000A1F1C041C1F8042170472DE9F041024662
:1007E00000250026002000230024002791F803C0E4
:1007F0000CF00F0591F803C00CF0100CBCF1000FC9
:1008000003D091F802C04CEA050591F800C0BCF194
:10081000000F31D0146800202BE04FF0010C0CFACF
:1008200000F3B1F800C00CEA03069E4220D1830019
:100830004FF00F0C0CFA03F7BC4305FA03FC4CEA2B
:10084000040491F803C0BCF1280F06D14FF0010C4D
:100850000CFA00FCC2F814C00AE091F803C0BCF125
:10086000480F05D14FF0010C0CFA00FCC2F810C083
:10087000401C0828D1D31460B1F800C0BCF1FF0FB0
:1008800034DD546800202EE000F1080C4FF0010820
:1008900008FA0CF3B1F800C00CEA03069E4221D11D
:1008A00083004FF00F0C0CFA03F7BC4305FA03FC6E
:1008B0004CEA040491F803C0BCF1280F05D100F103
:1008C000080C08FA0CF8C2F8148091F803C0BCF1C7
:1008D000480F07D100F1080C4FF0010808FA0CF896
:1008E000C2F81080401C0828CED35460BDE8F081C7
:1008F000016170472DE9FF4F8BB0884691469A46BB
:10090000002457E0002551E02846FFF746FD2C4A19
:100910002C4BCDE90801FFF7CEFC06460F460B989D
:10092000FFF73BFDCDE906013046394600F0D8FF20
:10093000CDE902012046FFF730FDCDE90001DDE9F8
:100940000223FFF7B8FCCDE90401DDE90623FFF738
:100950000BFCCDE90801FFF72DFD83464046FFF76C
:100960001CFDCDE906013046394601F04BF8CDE9D2
:1009700002012046FFF711FDCDE90001DDE9022368
:10098000FFF799FCCDE90401DDE90623FFF7ECFB55
:10099000CDE90801FFF70EFD0A9058460A9900F0CC
:1009A00043F85146222000F0A3F96D1CB5F5B47F41
:1009B000AAD3641C4C45A5D30FB0BDE8F08F00004E
:1009C00070E20DA545DF913F00B597B00121080207
:1009D00000F094F90020019002900A20039000207A
:1009E000049005900690079006200890002009903A
:1009F0000A9010200B9000200C900E900F901090F9
:100A00004FF4805011900020129013900D9014908C
:100A100001A81590169008A8FFF76CFE012106208A
:100A2000FFF74EFE17B000BD10B503460C4699B255
:100A3000202000F05DF9A1B2212000F059F910BD8D
:100A400010B5FFF7C1FF0121042000F067F9012173
:100A5000202000F063F90121402000F05FF901211E
:100A6000802000F05BF90121080200F057F91820FE
:100A70009249C8700320887000240BE0904830F839
:100A800014008E4908808F4951F824008B49FFF7E4
:100A9000A4FE641C102CF1DB8B4800888749088079
:100AA0008A480068FFF799FE8948008883490880D2
:100AB00088480068FFF791FE874800887F490880D2
:100AC00086480068FFF789FE854800887B490880D2
:100AD00084480068FFF781FE10207849C87082487A
:100AE0000088088081480068FFF777FE7E4801880B
:100AF0007E480068FFF7FCFE18207049C87001218D
:100B0000002000F0F5F84FF48071012000F0F0F8BB
:100B10004FF4E061022000F0EBF841F230010320D5
:100B200000F0E6F80021042000F0E2F840F2022193
:100B3000082000F0DDF80021092000F0D9F800219C
:100B40000A2000F0D5F800210C2000F0D1F8002197
:100B50000D2000F0CDF800210F2000F0C9F8002191
:100B6000102000F0C5F80021112000F0C1F800218C
:100B7000122000F0BDF80021132000F0B9F841F276
:100B8000B071102000F0B4F83721112000F0B0F857
:100B90004FF49C71122000F0ABF84FF4B8511320C1
:100BA00000F0A6F80D21292000F0A2F80021202055
:100BB00000F09EF80021212000F09AF80121302059
:100BC00000F096F840F20661312000F091F84FF401
:100BD0004171322000F08CF840F20221332000F005
:100BE00087F840F20221342000F082F840F203112D
:100BF000352000F07DF840F21D11362000F078F825
:100C000040F20441372000F073F840F204413820EC
:100C100000F06EF840F20441392000F069F84FF41A
:100C2000E0613C2000F064F840F61F213D2000F018
:100C30005FF80021502000F05BF8EF21512000F018
:100C400057F80021522000F053F840F23F11532092
:100C500000F04EF84FF41C51602000F049F80121DB
:100C6000612000F045F800216A2000F041F81021D1
:100C7000902000F03DF80021922000F039F8032187
:100C8000932000F035F840F20111952000F030F883
:100C90000021972000F02CF80021982000F028F87F
:100CA0002121072000F024F83121072000F020F84E
:100CB00040F27311072000F01BF810BD1000002057
:100CC0005400002014000020780000207400002050
:100CD000800000207C00002088000020840000208C
:100CE000900000208C00002098000020940000203C
:100CF0004FF0D842108051807047000029B1064A59
:100D000052690243044B5A6104E0034A5269824328
:100D1000014B5A61704700000010024029B1064A99
:100D200092690243044B9A6104E0034A9269824348
:100D3000014B9A61704700000010024030B500215D
:100D40000022002400232D4D6D6805F00C0121B117
:100D5000042905D0082923D105E0294D056022E0AA
:100D6000274D05601FE0254D6D6805F47012234D79
:100D70006D6805F48034022505EB92421CB9214DC3
:100D8000554305600BE01D4D6D6805F400351DB140
:100D90001C4D5543056002E0194D5543056002E0C6
:100DA000174D056000BF00BF144D6D6805F0F001E0
:100DB0000909154D6B5C0568DD4045600F4D6D6898
:100DC00005F4E061090A104D6B5C4568DD40856003
:100DD0000A4D6D6805F46051C90A0B4D6B5C45689E
:100DE000DD40C560054D6D6805F44041890B074D38
:100DF0006B5CC568B5FBF3F5056130BD00100240C2
:100E000000127A0000093D00B0000020C000002060
:100E100000B597B001214FF4F070FFF77FFF01217B
:100E20000802FFF76BFF4FF63370ADF80000182093
:100E30008DF8030003208DF8020069462248FFF771
:100E4000CCFC4FF68370ADF8000069461F48FFF7F1
:100E5000C4FC4FF23F00ADF8000069461C48FFF7A4
:100E6000BCFC40F23F40ADF8000069461948FFF76E
:100E7000B4FC062001900020029006200390002080
:100E80000490059006900790042008900020099097
:100E90000A9010200B9000200C900E900F90109054
:100EA0004FF480501190002012901390149001A8DC
:100EB0001590169008A8FFF71DFC01210420FFF7EC
:100EC000FFFB17B000BD00000014014000180140F6
:100ED000001C01400020014006E04FF0D0435B5A67
:100EE00020F8023B891C521E002AF6D1704710B52B
:100EF00006E030F8024B4FF0D0435C52891C521E82
:100F0000002AF6D110BD10B500F002F810BD0000A7
:100F10000CB50020019000903348006840F4803008
:100F20003149086000BF3048006800F4003000908C
:100F30000198401C0190009818B90198B0F5A06F75
:100F4000F1D12948006800F4003010B10120009070
:100F500001E0002000900098012843D12348006858
:100F600040F01000214908600846006820F00300A6
:100F700008600846006840F0020008601A484068AF
:100F8000194948600846406848600846406840F48F
:100F9000806048600846406820F47C10486008463D
:100FA000406840F4881048600846006840F080704F
:100FB000086000BF0C48006800F000700028F9D0FD
:100FC0000948406820F00300074948600846406827
:100FD00040F00200486000BF0348406800F00C0089
:100FE0000828F9D10CBD000000100240002002408A
:100FF00004480068012804D103480068401E0249E3
:1010000008607047040000200000002030B514483C
:1010100000684FF47A72B0FBF2F1B1F1807F00D337
:101020001DE021F07F40401E4FF0E022506150173C
:101030000F22002807DA13071D0E0A4B00F00F04D9
:10104000241F1D5503E013071C0E074B1C5400BF43
:1010500000204FF0E02290610720106100BF30BDFA
:101060009C00002018ED00E000E400E010B51348FB
:10107000006840F0010011490860084640681049C6
:1010800008400E494860084600680E4908400B4970
:1010900008600846006820F4802008600846406820
:1010A00020F4FE0048604FF41F008860FFF72BFF1C
:1010B0004FF000600449086010BD000000100240BD
:1010C0000000FFF8FFFFF6FE08ED00E02DE9F04715
:1010D00086B004460D4616461F46DDE90F9ADDF838
:1010E000388004208DF81700194830F81400ADF846
:1010F0001400184951F8240005A9FFF76EFB1820C9
:101100008DF8130003208DF81200134830F81400F6
:10111000ADF810000F4951F8240004A9FFF75DFB5A
:1011200000960020ADF80C00ADF80890ADF806A0D0
:10113000ADF80470ADF80A806946284600F01AF848
:101140000121284600F00AF806B0BDE8F08700004B
:101150000E000020080000200C00002021B1828930
:1011600042F40052828104E082894DF6FF731A40F6
:10117000828170472DE9F04786B005460E4600246F
:10118000A24600BFA1460027B08900B100BF2F468C
:101190002C8A4CF6FF700440F08804432C82AC8902
:1011A0004EF6F3100440B088318908437189084332
:1011B0000443AC81AC8A4FF6FF400440B08904433D
:1011C000AC8201A8FFF7BAFD1F48874202D1DDF8C3
:1011D00010A001E0DDF80CA0A88900F4004040B1A7
:1011E0000AEBCA0000EB0A1031684900B0FBF1F8C5
:1011F00007E00AEBCA0000EB0A1031688900B0FB77
:10120000F1F86420B8FBF0F004012009642101FB2F
:101210001089A88900F4004040B1322000EBC900D9
:10122000B0FBF1F000F00700044308E0322000EBCF
:1012300009106421B0FBF1F000F00F0004432C8191
:1012400006B0BDE8F087000000380140490050EAD0
:10125000C12018BF04204A0D18BF40F0010040F221
:10126000FF72B2EB515F08BF40F00200012808BFD7
:10127000052070472DE9F74F144694B00021C4E9CA
:1012800002111599079121F00045C9498D4206DCEC
:101290001599C4E9000117B00020BDE8F08FC549D9
:1012A000DFF814A3A9423CDD0799C44E0029C44FBE
:1012B000C44A1599534619DDFEF7F7FF554506D088
:1012C000C14AC24BFEF7F1FFC4E900010AE04FF04A
:1012D000D352BE4BFEF7E9FF32463B46FEF7E5FF31
:1012E000C4E9000117B00120BDE8F08FFEF73CFF14
:1012F000554506D0B44AB54BFEF736FFC4E90001A8
:101300000AE04FF0D352B14BFEF72EFF32463B4678
:10131000FEF72AFFC4E9000117B04FF0FF30BDE827
:10132000F08FAB49A942159978DB21F00041834643
:101330008846A84AA84BFEF7BEFF0022A74BFEF73F
:1013400013FFFFF787F90990FFF773F906460F4679
:101350009C4A5346FEF7AFFF43465A46FEF7A8FFA6
:1013600080468A46984A994B30463946FEF7A3FF95
:101370002A0D01250B9242465346FEF799FF032D95
:10138000C4E9000139D00B98C1F30A51401A05EBAA
:1013900045111139814230DA9148C346784400EB57
:1013A0000510CDF80CA00C90D0E90023304639464A
:1013B000FEF781FF02460B460491069058460399BA
:1013C000FEF773FF80468A4602460B46584603994D
:1013D000FEF76BFF049B069AFEF767FF83460C98A7
:1013E00003913946D0E902233046FEF764FF5A469E
:1013F000039BFEF75AFF6D1CBDE707980028A2BFAC
:10140000099817B0BDE8F08F616881F00041616014
:10141000099817B04042BDE8F08FFFE78446159861
:10142000C1F31301C0F30A50A0F2F5304FEA60187F
:1014300000F01F06C6F120001390002006900790D0
:1014400041F4801E05206D4676B1664A08EB000126
:101450007A4452F8213002EB8101B3404A68139973
:1014600022FA01F1194305E05F4908EB00027944D3
:1014700051F82210A1FB0E27A1FB0C131A449A422B
:1014800034BF0123002303EB070A05EB8003D3E9F4
:1014900001B70F448F4234BF0121002193448B4494
:1014A00011B1934502D903E0934501D2012100E037
:1014B0000021C3E901B7514445F82010011EA0F1F5
:1014C0000100C1DC0298059F00F10050800F1290CE
:1014D0000298DDE903568000FFF7ABF88346284603
:1014E0000D91FEF75AFF6FF01D02FFF78BF8CDE963
:1014F0000E013046FEF751FF6FF03D02FFF782F814
:1015000080468A463846FEF748FF6FF05D02FFF7D7
:1015100079F80746424653461191FEF725FEDDE96C
:101520000E23FEF721FE5A460D9BFEF71DFE0025F9
:101530000E465A4628460D9BFEF7B7FEDDE90E2300
:10154000FEF7B3FE42465346FEF7AFFE3A46119B06
:10155000FEF7AEFEDFF898A0244A5346FEF7ABFE36
:1015600007468846234A244B31462846FEF7A3FE09
:101570003A464346FEF7F8FD074688464FF0A84234
:10158000534631462846FEF796FE3A464346FEF756
:10159000EBFD159A12F0004F04D0129A81F0004131
:1015A00052421292C4E90001129817B0BDE8F08FC0
:1015B000FB21E93F7CD90240FB21F93F7370032EE8
:1015C0008A19A33B000040543163621A61B4D03DD4
:1015D000FB21394183C8C96D305FE43F0000E03F23
:1015E000885F0200045F0200E65E0200182D44548A
:1015F000FB21F93D3326A611460B113C2DE9FF4D89
:1016000021F0004807460C46B8F1795F08DAFFF789
:1016100021F8002801BF0020324904B0BDE8F08D58
:101620003A46234610461946FEF745FE0546024651
:101630002D480E460B460621784400F05DF82A46F8
:101640003346FEF738FEDDE9022382468B463846F4
:101650002146FEF730FE04460F4652465B462846BA
:101660003146FEF728FE22463B46FEF71EFE0746A1
:101670008A464FF0FF3228463146FEF7C3FF1B4A29
:1016800090450ADA3A465346FEF70FFE04B00022B0
:10169000BDE8F04D134BFEF70BBE154A4245A8BFFF
:1016A000A8F500154FF00004B8BF124D22462B4696
:1016B000FEF7FBFD0646884622462B4600200949D8
:1016C000FEF7F3FD04460D463A4653463046414682
:1016D000FEF7EBFD04B022462B46BDE8F04DFEF7C9
:1016E000E7BD00000000F03FBC5C02003333D33F95
:1016F0000000E93F0000D23F2DE9F0414F1E00EB12
:10170000C7010446D1E9000115461E4637F006021E
:101710000DD02A463346FEF7CEFD7F1E04EBC703ED
:10172000D3E90023FEF720FD37F00602F1D1022FA6
:1017300025D0042F13D0062F18BFBDE8F0812A460C
:101740003346FEF7B8FDD4E90A23FEF70DFD2A461D
:101750003346FEF7B0FDD4E90823FEF705FD2A461F
:101760003346FEF7A8FDD4E90623FEF7FDFC2A4622
:101770003346FEF7A0FDD4E90423FEF7F5FC2A4624
:101780003346FEF798FDD4E90223FEF7EDFC2A4626
:101790003346FEF790FDD4E90023BDE8F041FEF7A3
:1017A000E3BC00002DE9FF4D054621F0004084B068
:1017B0000C46B0F1795F0BDA2846FFF747FD0428A5
:1017C00008BF00F06FF8284608B02146BDE8F08D4C
:1017D0002A460B461046FEF76EFD06460F462A4681
:1017E0002346FEF768FD804626488A4632463B4639
:1017F00005217844FFF780FF83461098029160B37B
:10180000214A224B40465146FEF755FDCDE90001E5
:101810005A4640465146029BFEF74DFD8246884699
:10182000DDE906014FF0FF32FEF7ECFE524643467B
:10183000FEF73BFD32463B46FEF73DFDDDE9062364
:10184000FEF733FDDDE90023FEF72FFD08B02A4641
:101850002346BDE8F04DFEF72BBD0B465A463046F9
:101860003946FEF728FD084A084BFEF77DFC424644
:101870005346FEF720FD08B02A462346BDE8F04D4A
:10188000FEF772BCFA5B0200495555555555C5BF68
:101890000122FEF7B7BE0022134610461146FEF79E
:1018A00030BE0000024A00201107FEF7ABBE000068
:1018B00001FDFFFF02E008C8121F08C1002AFAD18B
:1018C00070477047002001E001C1121F002AFBD1C0
:1018D000704700000149086070470000C400002004
:1018E00000B5244B21F0004287B09A42DCBF0022B1
:1018F000134629DD204B9A4208D140B94FF0010030
:10190000FFF7E8FFFFF7C7FF07B000BD03DBFFF7F6
:10191000BFFF07B000BD02AAFFF7ACFC10F0030147
:1019200004BF0DF1080C9CE80F000DD00120012927
:101930000ED0022914D00DF1080C00909CE80F0085
:10194000FFF730FF07B000BDFFF758FE07B000BD3E
:101950000DF1080C00909CE80F00FFF723FF05E055
:101960000DF1080C9CE80F00FFF748FE07B081F06E
:10197000004100BDFB21E93F0000F07F88B01F4916
:1019800003C9CDE9060101218803FFF7C7F9FFF775
:101990003DFB00200C22CDE9002003464FF41652F7
:1019A00017490290FFF792FBFFF74AF80120FEF774
:1019B00071FEFFF72DFA0120FEF76CFE03224FF4B3
:1019C000006106A8FFF793FA03224FF4006104A810
:1019D000FFF782FA10E000240CE004A830F814307D
:1019E00032227821A020FEF785FF4FF47A70FEF7AF
:1019F00051FE641C032CF0DBEDE70000EC720208E2
:101A00000038014000B5254B21F0004287B09A42D2
:101A100003DC0022134600922BE0214B9A4208D1AE
:101A200040B94FF00100FFF755FFFFF734FF07B053
:101A300000BD03DBFFF72CFF07B000BD02AAFFF7D4
:101A400019FC10F003014FF001000DD0012914D052
:101A500002291AD00DF1080C9CE80F00FFF7CEFD0B
:101A600007B081F0004100BD0DF1080C00909CE82A
:101A70000F00FFF797FE07B000BD0DF1080C9CE8C2
:101A80000F00FFF7BBFD07B000BD0DF1080C009083
:101A90009CE80F00FFF786FEE2E70000FB21E93F2C
:101AA0000000F07F424D4658020000000000460052
:101AB000000038000000F0000000C0FEFFFF010041
:101AC00010000300000000580200C40E0000C40E05
:101AD0000000000000000000000000F80000E00727
:101AE00000001F00000000000000DDEFDDEFBCEF94
:101AF000BCEFBCF7DDF7DDF7DDF7DDF7DDF7DDF790
:101B0000BCF7BCF7DDF7DDF7BCF7BDF7BCF7BDF7F9
:101B1000BDF7DDF7DDF7BDF7BCF7BCF79CEFBCF711
:101B2000BCF79CEF9CEF9BEF9BEF7BEF3AE7D9D69E
:101B300057CEB5B512A5908C0E7C6C6B0B63A95279
:101B400068424742073AE631E631E631E631E631AE
:101B5000E631C631A52985296421642164216421E7
:101B600064218529852985296421642164216421D2
:101B700064216421642164216421642185218529F3
:101B80008529852185298529852985216421642147
:101B900064216421642144214421442144214421BD
:101BA000442144214421442144212321442144212E
:101BB000442144214421242124214421442144213D
:101BC000442165216521442144212421241924191B
:101BD0002419031903190319E318E318E318031967
:101BE0000319031924192421442124212419031938
:101BF0000319031903190319031903190319E31826
:101C0000E318E318031903190319031923192319F6
:101C100023190319031903190319031903192319A4
:101C2000232124212421242124212421252125218B
:101C3000242124212421242124212421242124217C
:101C4000242124212421242124212421242124216C
:101C50002421242124212319031903190319031909
:101C60000319232144214421442144214421642196
:101C7000652985298529A529C531C531C531E531B4
:101C8000E631E631273A6842C9520B5B8D6B4F84CF
:101C9000F29494AD37BED9D63ADF5ADF7BE79BE7A3
:101CA0009BEF9BEF9BEF9CEFBCEF9CEF9CEF9BEFC0
:101CB0007BEF7BEF7BEF9BEF9BEF9BEF7BEF7BEF74
:101CC0007BEF7BEF7BEF9BEF9BEFDCEFDCEFBCEF81
:101CD000DCEFBCF7BCF7BCEFBCEFBCF7BDF7DDF742
:101CE000BDF7BDF7DDF7BDF7BCF7BCF7BCF7BCF738
:101CF000BDF7BDF7BDF7BCF7BCF7BCF7BCF7BCF749
:101D0000BCF79CEF7CEF7BEF5BE71ADFB9D637C6F9
:101D100094B5D194EE7B4B63EA5AA952684A2742A4
:101D2000073A063AE631C631A531C631C631C63169
:101D3000C631A5298529642964216421642164218F
:101D400064218529852985296421642164216421F0
:101D5000642164216421642164216421642185213A
:101D6000852164218521852185298521642164219E
:101D7000642144214421442144214421442144211B
:101D8000442144214421442124212321232144218D
:101D9000442144214421242124212421242144219B
:101DA000442144216521442144212421241903197B
:101DB00003190319E318E318E318031903190319A6
:101DC000031924192421242144212421241924190C
:101DD00024192419031903190319031903190319E1
:101DE00003190319031903190319031903192319F3
:101DF00023190319031903190319031923192319A3
:101E000023212421242124212421242124210419D3
:101E100004190419041904190419041904190419DA
:101E20000419041904190419041924212421242152
:101E30002421242124210319031903190319031947
:101E400003192319242144214421442144214421FC
:101E50006421642985298529A529A529A529A529DC
:101E6000A529A529C531063A4742894AEA5A8C6B09
:101E70002F7CD194B4AD77C6F9D63ADF7BE79BE7E8
:101E80009BE79BEF9BEF7BE79BE79BEF9BEF7BEF5A
:101E90007BEF7BEF7BEF7BEF7BEF7BEF7BEF7BEFF2
:101EA0007BEF7BEF7BEF9BEF9BEFBCEFBCEFDCEFBF
:101EB000DDF7DDF7DDF7BDF7BCF7BCF7BCF7BDF725
:101EC000BDF7BCF7BCF7BCF7BCF7BCF7BCF7BCF779
:101ED000BCF7BCF7BCF79CEF9CEF9CEF9CEF9CEF32
:101EE0009CEF9CEF7BEF5BE7FADE98CEF6BD53A547
:101EF000908CCD732B63A952884A2742073AE6316A
:101F0000C531C531A529A529A529A529A531A53101
:101F1000A52985296429642164216421642164211F
:101F20006421852985296421642144214421442197
:101F300044214421442144214421642164218521F8
:101F40008521642185218521852985298521642193
:101F5000442144194319442144214421442144216A
:101F60004421442144212421232123192319231905
:101F700023214421442124212421242124212421FA
:101F800044214421442144214421242124190319BA
:101F9000E318E318E318E318E31803190319031906
:101FA00024192419242144214421442124212421B9
:101FB0002421241924190319031903192419241994
:101FC00003190319031903190319231923192319D1
:101FD0002319231923192319231923192319231921
:101FE00023192421442144214421241924190419AA
:101FF000031903190319E318E31803190319031943
:10200000031903190319031903192419241924198D
:1020100024212421242123192319231923192319C5
:102020002319232124212421242124212421442172
:1020300044216421642184298529A52985298429AD
:10204000842985298529C631E631273A894AEA5209
:102050006C632F7C329D16BEB8CE19DF5BE79BE721
:102060009BE79BE79BE79BE77BE77BE77BE77BE7E0
:102070007BEF9BEF9BEF9BEF9BEF9BEF9BEF9BEF30
:102080009BEF7BEF7BEF9BEF9BEFBCEFBCEFBCEFDD
:10209000DCEFDDF7DDF7BDF7BCF7BCF7BCF7BCF74D
:1020A000BCF7DDF7BDF7BCF7BCF79CEFBCF7BCF79E
:1020B000BCF79CEF9CEF9CEF9CEF9CEF9CEF9CEFA0
:1020C0009CEF7BEF5BE71ADF98CED5B5129D4F846E
:1020D000AD730A5B884A474227422742E639C53139
:1020E000A531A529A529A529C631A531A531A5293F
:1020F000A52985296429642164216421642164213E
:10210000642164296421442144214421442144213F
:102110004421442144214421442164216421642137
:1021200064216421852185218529852185216421DA
:102130004421231923192319232123212321442155
:102140004421242123212321232123192319231965
:102150002319242144212421242124212421242140
:102160004421442144214421242124190319031921
:10217000E318E318E318E3180319031924192419C1
:10218000241924214421442144214421442144216F
:10219000242124212419241924192421242144210F
:1021A00024212419031903190319231923192319A5
:1021B000231923192319231923192319231923193F
:1021C000231923192421242144212421231903190B
:1021D000231903190319E318031103190319E31849
:1021E00003110319031903190319241924192419B4
:1021F0002421242124214421442144214421242137
:1022000024212421242124212421241924192421B6
:102210004421442164216421842984296421642186
:10222000842985298529A529C631E6394842894A64
:102230000B5BCD73B18C94AD36BEB8CE1ADF5ADFCE
:102240005ADF7BE77BE77BE77BE75BE77BE77BE7C7
:102250007BE79BEF9BEF9BEF9BEF9BEF9BEF9BEF56
:102260009BEF7BEF7AEF9BEF9BEFBCEFBCEFBCEFFC
:10227000BCEFBCEFBCEF9CEF9CEF7BEF7BEF7CEF08
:102280009CF7BDF7DDF7BDF7BDF7BCF7BCF7BCF7B2
:10229000BCF79CEF9CEF9CEF9CEF9CEF9CEF9CEFBE
:1022A0007BEF3AE7F9DE57C6B5B5D1940F846C6B76
:1022B000EA5A884A0742C639A531C631A531A53147
:1022C000A531A531A531A531A529C631A531A5294D
:1022D0008529852985296429642164216421642153
:1022E00064216421442144212319441944194419C7
:1022F00044214421642164216421642164216421F6
:1023000064216421642164218521642164214421A4
:1023100024212319231923192319231923192319D4
:1023200023192319231923192319231923192319CD
:1023300023212421442144214421442144214421B6
:102340004421442144212421241903190319E318A9
:10235000E318E318E318031903192419241924199D
:102360002421242144214421442144214421442185
:1023700044212421241924192419242144214421ED
:102380004421242123192319231924212421242120
:1023900023192319031903190319031903192319FD
:1023A00023192319231924212421441943192319FA
:1023B00023192319231903190311031103110311FD
:1023C00003110319031103190319231924192419DB
:1023D00023194419441944214421442144216421EE
:1023E0004421442144214421242123192319231960
:1023F00023192321442144216421442143214421E0
:102400006421642985298529A529C631E6394842F0
:10241000A94A4B630E7CD18C73A5F5B577C6F9D666
:1024200019D73AD75ADF7BE77BE77BE77BE77BE788
:102430007BE79BEF9BEF9BEF9BEF9BEF9BEF9BEF74
:102440009BEF9BEF7BE77BE79BEF7BE77BE77BE704
:102450007BE77BE77BE75BE75BE71ADF1ADF3BE7BE
:102460007BEF9CEFBCF7BCF79CF79CEFBCF7BCF78D
:102470009CEF9CEF9CEF9CEF9CEF7BEF7BEF5BE78F
:102480001ADFB9D657C694ADD194CD732B63A95238
:10249000684A2742E639C631A53185318531A529FB
:1024A000A531C631C631C631A531A529A529852951
:1024B0008529852985298529642964216421642148
:1024C0006421642144212319231923192319441950
:1024D0004419642164216421852185218521642199
:1024E0006421642164216421642144214421242144
:1024F00023192319231923192319231923192319FC
:1025000023192319231923192319231923192319EB
:1025100023192421442144214421442144214421DC
:1025200044214421242124190319E318E318E31852
:10253000E318E318E31803190319031903192419FD
:10254000241924212421242124214421442144210B
:102550002421241924192419241924212421442153
:102560004421442123192319231924212421231927
:10257000231903190319031903190319031903195B
:10258000031923192319231923194319431943192B
:1025900023192319231923192319031103112319AB
:1025A00023192319231903110311231903192319BB
:1025B000231923192319242144216421642164212E
:1025C0006421642144214421442124212319231915
:1025D0002319232123214321432144214321442141
:1025E00064216421852985298529A529C631073AD1
:1025F0004842C9526C630E749084329DB4AD56BE8D
:1026000097C6D8CE3ADF5ADF7BE79BE77BE77BE7CD
:102610009BE79BE79BE79BEF9BEF9BEF9BEF9BEF82
:102620009BEF9BEF7BE77BE77BE777C677C657C6D9
:1026300057C657C657C637C636C616BE36C657C65D
:1026400078CED9D63AE77CEF9CF79CEFBCF7BCF785
:102650009CEF9CEF9CEF9CEF7BEF5BE75BE71ADF67
:1026600098CE16BE73ADB094ED7B0A5BA95227429B
:10267000063AC639C631C531A531A531A631A631D4
:10268000A531A631A631C631C631A529A52985298E
:102690008529852985298529852964216429642935
:1026A0006421642144214421231923192319231966
:1026B00044214421642164216529852965296421F7
:1026C00064216421442144216421442124212319CB
:1026D000231923192421232123214421442143198F
:1026E000231923192319231923190319031923194A
:1026F0002319231944214421442144214421442104
:102700004421242124190319031903190319E31877
:10271000E318E318E318E31803190319031903195D
:102720002419242124212421242144214421442129
:102730002419241923192319231923192319441996
:102740004419441944194419441923192319231904
:102750002319031903190319031903190319031979
:102760000319031923192319231943194319431969
:102770002319231923192319231923192319431959
:102780004319231923192319231123110319031999
:10279000231923192319231943194421642164217E
:1027A00064216421642144214421442124212319EA
:1027B00023192319231923192321442144214421B6
:1027C000642164216529652985298529C631E63179
:1027D000273A6842CA524B5BAC6B4F7CD19473A5CD
:1027E000D4AD56BED8CE19D75ADF5ADF7AE77AE78A
:1027F0009BE77AE77AE79BE79BE79BEF9BEF9BEFF3
:102800009BEF9BEF9BE79AE79BE7329D129D129D02
:10281000F194D194D194D194B194B094D194F19C89
:1028200012A594B577CE1AE77CEF9CEF9CEF9CEF56
:102830009BEF9CEF9CEF7CEF7BEF3AE7F9DE78CEE5
:10284000D5B532A5708CAD730A5B884A4742063A0B
:10285000E639E639E639C639C531A631C631C63161
:10286000C631C631A531A529A529A529A529A5299E
:102870008529852985298529852964216429642953
:10288000642964214421442144212319231924214A
:102890004421442144216421642164216421642170
:1028A0006421442144214421442124212319231952
:1028B0002319442144214421442144214421442119
:1028C0004419431923192319231903190319031947
:1028D0000319231944214421442144214421442142
:1028E0004421242124190319031903190319031975
:1028F0000319E318E318E3180319E318E31803199D
:102900000319241924212421242144194421442178
:1029100024192319231923192319231923192319D6
:102920004419441944194419441923192319231922
:1029300003190319031903190319031903190319B7
:102940000319031903190319231923192319231927
:10295000231923192311231923192319431944195E
:102960004419441923192319231923192319231945
:10297000231923192319431944194421442164219B
:102980006421642164214421442144212421231908
:10299000231923192319231923192319231924214E
:1029A000442164216421652965298529A629C63128
:1029B000E631273A6842C94A0A5BAC6B2E7CB08C80
:1029C000329DD4AD56BED8CEF9D619D73ADF7AE7C4
:1029D0007AE77AE77AE77AE79BE79BEF9BEFBBEF33
:1029E000BBEF9BEF9BE79AE79BEF6F844F842F7CB5
:1029F0000E7C0E7C0E7CEE7BED7BCD73AD73CD73C8
:102A00002E84B19474AD36C698CED9D6F9DE1ADFCD
:102A10003AE73BE75BE75BE71ADFD9D657C6B5B5C0
:102A2000F29C2F846C6BCA5A684A073AE639C63161
:102A3000C639E639C639C631C631A631A631C631E6
:102A4000A631A531A529A529A52985298529A52945
:102A50008529852985298529852964216421642181
:102A600064216421642144214421442144214421DE
:102A7000442144216421642164216421642164216E
:102A80006421442144214421442123212321242160
:102A9000242144214421442144214421442144212E
:102AA000442143192319231923192319031903193D
:102AB0002319442144214421442144214421442117
:102AC00044212421242124192419241924192419E6
:102AD000031903190319E318E318E3180319031979
:102AE00003190319241924192421442144214421C0
:102AF0004421242124190319031903190319231943
:102B00002319231923192319231923190319031925
:102B100003190319031903190319031903190319D5
:102B20000319031903190319031923192319231965
:102B3000231923192311231123194419441964213A
:102B400064194419441944194319231923192319E1
:102B500023192319231923194419442164216421B9
:102B6000442144214421442144214421442144213D
:102B700023192319231903190319231923192421AC
:102B80004421442165216521652165216529852927
:102B9000A529E631073A473A88420A536B63ED7339
:102BA0008F841195B4AD36BEB8C6F9D63ADF5ADF78
:102BB0007AE77AE77AE79BE79BE7BBEFBBEFBBEFF0
:102BC0009BEF9BE79BE79BEF9BEF2E7C2E7C0E7C85
:102BD000ED73AD73AC6B8C6B8C6B6C6B8C6BAC7383
:102BE000AD73ED7B4F84F19C53A594ADF5BD36C616
:102BF00057C698CED9D6B9D698CE57C6D5B5129D58
:102C00004F848C6BEA5A684A2742E639C631A531AF
:102C1000A531C631C631A531A5318531853185292A
:102C20008529852985298529852985298529852934
:102C300085298529852985298529442144216421DF
:102C400064216421642144214421442144214421FC
:102C500044214421442164216421642164216421AC
:102C600044214421442124212421232123212421DE
:102C7000242144214421442164214421442144212C
:102C80004419431923192319231923192319231923
:102C9000442144214421442144214421442144210C
:102CA0004421442144214421242124212421241984
:102CB0002419031903190319031903190319031913
:102CC00003190319241924192421442144214421DE
:102CD00024212419031903190319031903190319CA
:102CE0000319031903190319031903190319031904
:102CF00003190319031903190319031903190319F4
:102D000003190319031903190319031103110311FB
:102D10002311231103112311231944194419642188
:102D200064194419441944194419441943192319BD
:102D30002319231923192319441944214421442117
:102D4000442144214421442144214421442144215B
:102D50002319231903190319031903192319241912
:102D600024214421442144214421652985298529A0
:102D7000A529C631E631073A473AA84AE9524B5BE2
:102D8000ED6B6F843295D4AD56BED8CE19D75ADFCD
:102D90007AE77BE79BE79BE79BE79BE79BE79BEF5C
:102DA0009BE79AE79BE79BEF9BEFED73ED73ED736A
:102DB000AC6B8C6B6B634B634B634B636B6B6C6B80
:102DC0006C6B6C6BAC73ED7B2F84908CF19C53A57A
:102DD00094ADD5B516BE16BEF5BD74ADF29C2F846C
:102DE0006C6BCA5A684A0742E639C531A52985295C
:102DF0008531A531A531A5318531852985296529FB
:102E00006529642164216429642964296429642969
:102E100064296429652964296429442144214421C1
:102E2000442164216421442144214421442144213A
:102E3000442144214421442144214421442144216A
:102E4000442124212321231923192321242124214E
:102E5000442144214421442144214421442144214A
:102E60002319231923192319231923214421442128
:102E7000442144214421242144212421242144218A
:102E8000442144214421442144212421242124217A
:102E90002421241903190319031903190319031908
:102EA0000319031924192419241924212421242164
:102EB00024212419031903190319031903190319E8
:102EC000031903190319E318E318E318E318E318C7
:102ED000E318031903190319031903190319031933
:102EE00003190319E318E318E310E31003110311A6
:102EF0000311031103110319241924194419441946
:102F00004419441944194419441924192419241939
:102F100024192319231923192319232124212421B6
:102F200024212421442144214421442144212421D9
:102F30002319231923190319031903190319241930
:102F400024214421442145214521652965298529DC
:102F50008529A529C631E631063A473AA84AE952F9
:102F60004B63CD6B9084529DF5B597C6D8CE19D7DB
:102F70005ADF7ADF9BE79BE79BE79BE79BE7BBE793
:102F80009BE79BE79AE79BE79BEFCD73CD73CD6BF8
:102F9000AC6B8C6B6B636B636B634B634B636B6B87
:102FA0006B6B8C6B8C6BAC73CD73EE7B2F84708CE6
:102FB000B094D194F29CD194B1944F84CE7B4B6366
:102FC000C952684A2742E639C631A529852985298B
:102FD0008531A531A531A631A631853185296529EF
:102FE0004429442144214421442164216421642151
:102FF0006421642964296429442144214421442111
:103000004421642164296421442164214421442110
:103010004421242124212421242144214421442108
:1030200044212421231903190319242124212421B3
:103030004421442144214421442144214421231991
:103040002319031923192319231923214421442166
:1030500044214421442124214421242124212421C8
:103060002421242124212421242124212421242138
:103070002421241924190319031903190319031905
:103080000319241924192419242124192421242161
:10309000241903190319031903190319031903192F
:1030A0000319031903190319E318E3180319031982
:1030B0000319031903190319031903190319031930
:1030C000E318E318E318E318E318E31003110311FE
:1030D00003110311031103110319041924192419ED
:1030E00024192419441924192419241924192319D9
:1030F0000319031903192319231923192319031970
:1031000003192419241924212421242123192319E2
:10311000231923192319031903190319241924192D
:103120002421442144214521452165216521642133
:1031300064218529A529C631E631073A6842A94AA2
:103140002A5B8C634E7CF194B4AD56BEB8CE19D7D1
:103150003ADF7BDF7BE77BE79BE79BE79BE7BBE710
:103160009BE79BE79AE79BE79BE7CC6BAC6BAC6B71
:10317000AC6B8B636B636B638B636B636B634B6376
:103180006B636C6B6C6B6C6B6B638C6BAC73CD73C8
:10319000CD73CE7BCD73AD738C6B4C63EA5AA95261
:1031A000484A2742E639C631A53185298529A5290E
:1031B000A5298531A631A631C631A63185316529CB
:1031C000442944214421442144214421642164218F
:1031D0006429642964296429442144212421242167
:1031E0004421442164214421442144214421442197
:1031F0002421242124212421242144214421442147
:1032000044212321031903190319242124212421F2
:103210004421442144214421442124212319031918
:103220000319E31803190319231923214421442105
:1032300044212421242144214421442124212421E6
:10324000241924192419242124212421242124216E
:1032500024212419241903190319241924192421B8
:10326000242124212421242124212421242104195E
:1032700004190319E318E318E318031903190319D0
:1032800003190319031903190319E318031903197F
:103290000319031903190319E3180319E318E318B1
:1032A000E318031903190319E318E318E310E318EB
:1032B000E310E310E310E310E310041904190419F8
:1032C00004190419241904190419031903190319F9
:1032D00003190319031903190319032103210319FE
:1032E00003190319031903190319031903190319FE
:1032F00003192419241924192419241924192421FF
:1033000024214421442144214421442144214421B5
:1033100044218529A529A531C631E631273A8842BD
:10332000E9524B5BED73B08C539DF5B557C6D9CEC2
:1033300019D75ADF5ADF5ADF7ADF7AE79BE79AE735
:103340009BE79AE79AE79AE79AEF8B638B638B6325
:103350008B636B636B636B636B636B636B636B63DD
:103360006B636B636B634B634B636B6B6C6B6C6B13
:103370006C6B6C6B4C6B2B630A5BA952684A4842BE
:103380002742E639E639C631A531A529A531A5314F
:10339000A52985318531A631A6318529652964297C
:1033A0004421442144214421442164216429642985
:1033B0006429652965296429442144214421442143
:1033C00044214421642144214421442144212421D5
:1033D0002321231923212421242144214421442170
:1033E0004421232103190319031924212421242111
:1033F0002421242124212421242123190319031900
:10340000E318E31803190319031923212421442184
:10341000242124212421442144212421242124194C
:103420000319031903192419242103190319241951
:10343000241924212421242124212421242144214C
:10344000442144212421242124210419041904198C
:103450000319E318E318E318E318E318E318031952
:1034600003190319031903190319E318031903199D
:103470000319031903190319E318E318E318E318F0
:10348000E318E3180319E318E318E310E310E3105B
:10349000E318E310E310E310E318E3180419041928
:1034A000E318041904190419041903190319E3187A
:1034B000E318031903190319031903210319031945
:1034C0000319E318E318E31803190319031903197F
:1034D00003192419241924192419242124214421ED
:1034E00044214421442144214421442144214421B4
:1034F0004421642185298529A529C531E631263A4B
:103500006842C94A6B632E7CD19473A5F5B577C622
:10351000D9CE19D73ADF3ADF5ADF7AE77AE79AE766
:103520009BE79BE79AE79AE79AEF8B638B636B6362
:103530006B636B636B634B636B634B636B636B635B
:103540006B634B634B634B634B632B632B632B634B
:103550002B632B630A5BCA5AA952684A4742274227
:10356000073AE639E639C639C631A531A531A5296C
:1035700085298529852985296529652945294421A4
:103580004421442144214421642164298529852939
:1035900085298529652964296429442944296429C0
:1035A00064296429642944294421242124212319DC
:1035B00003190319231923212421442144214421DF
:1035C0004421232103190319031923192321242139
:1035D00024212421242124212421232123190319F6
:1035E00003190319031923192321242144214421F8
:1035F000442144214421442144212419241903193C
:103600000319031903192419241903190319241977
:103610002421242124214421442124212421442122
:1036200044214421242124212421041904190419AA
:10363000E318E318C310C310C310E318E318E3182A
:103640000319E318E31803190319031903190319DC
:10365000E318E31804190319E318E318E310E3105F
:10366000E310E318E318E318E310E318E318E31892
:10367000E318E318E318E318E418E318E318E31871
:10368000E318E41804190419041904190419031996
:103690000319E3180319031903190319E318E318AD
:1036A000E318E318E310E310E318E3180319031910
:1036B00003192419241924192421442144214421C3
:1036C00044214421442144214421442144214421D2
:1036D00044216421652964298529A529A529C531A5
:1036E000063A273AA94A4B63ED73B08C329DF5B583
:1036F00057C6B8CEF9D63ADF7ADF7AE77AE79BE7A2
:103700009BE79BE79BE79AE79AE78B636A636A63A9
:103710006A636B636B634A634A636B634B634B63BC
:103720004B632B632A5B0A5BEA5AEA5A0A5B0A5B21
:10373000EA5AEA5AC952894A48422742073A073A9E
:10374000073AE639E639E639C631A531A529852992
:10375000652965296529652965294529442144216B
:10376000242144214421642164216529852985314E
:10377000852985298529642964296429642964297E
:10378000642964294429442144212421231903194B
:10379000031903190319232124214421442144211D
:1037A00024212319031903190319031923192321A8
:1037B00024212421242124212421242124212319EA
:1037C0002319231923212321442144214421442165
:1037D0004421442144214421242124212421242141
:1037E0002421242124212421242103190319242103
:1037F0002421442144214421442144212421242101
:103800002421242124212421242104190419041908
:10381000E318C310C310C310C310C310E318E31898
:10382000E318E318E318E318E3180319031903195D
:10383000E310E3180319031903190319E318E31834
:10384000E318E318E318E318E310E318E318E318A8
:10385000E318E318C310E318E318E318E318E318B8
:10386000E318E41804190419E418041904190319D5
:1038700003190319031903190319E318E318E318CB
:10388000E318E318E310E310E318E318031903192E
:10389000031903192419241924194421442144210A
:1038A0004421442144214421442124214421242130
:1038B00024214421642164216421642184298429F0
:1038C000A529C531273A884A0A5BAC6B6F84329DC3
:1038D000B4AD36BE98C6D9D63ADF5ADF7AE77AE772
:1038E0009AE79BE79BE79BEF9AEF8B638B636A6397
:1038F0006A5B6B5B4A5B4A5B4A5B4B5B4A5B2A5B7E
:103900000A5BEA5AEA52C952C952C952C952C9524B
:10391000A952A94A884A48422742073AE639E63975
:10392000E639C639C631C631C53185318529852983
:1039300065296529652965296529442144212421B2
:10394000442144214421442964298529852985313C
:10395000853185318529852964296429642964296B
:1039600064294421232123214421242123190319DB
:1039700023190319031903192421242124212421A3
:10398000232103190319031903190319032103211F
:10399000232124212421242124212321032103194B
:1039A000031903212421232103210321032123219E
:1039B00024212421442124212421242124212421BF
:1039C0002421242124212421042103212421242110
:1039D000442144212421242144212421242124215F
:1039E0002421242124212421242104190419E31849
:1039F000E318C310C210A210A210C210C310E31823
:103A0000E318E318E318E318E31803190319E3189C
:103A1000E318E318E318E3180319E318E318E318AD
:103A2000E318E318E318E318E318E318E318C310E6
:103A3000C310C310C310C310E318E318E318E3184E
:103A40000319E318E31803190319041904190421CD
:103A500004190319E31803210321E318E318E318F9
:103A6000E318E310E310E310E310E318E31803197D
:103A70000419241924192419241924212421442146
:103A8000442144214421442144212421442144212E
:103A900044214421442144214421442144216429D6
:103AA0008429A529C631273A68420A538C6B4F8472
:103AB000F19494AD36BE98CE19DF3ADF5AE77BE732
:103AC0009BE7BBEFBBE79BE79BE78B636B636A5BA3
:103AD0006A5B4A5B4A5B2A5B2A5B0A5B0A53E952D0
:103AE000C952C952C952C952C952A952A952A94A66
:103AF000884A884A68422742073AE639E639C63991
:103B0000C631C531A531A531A53185318529852934
:103B10006529652965296529652944294429442998
:103B2000442944214421442964298529852985295A
:103B300085318529852985296529642944214421E0
:103B40004421442123212321232124212319031942
:103B500023190319031903192321242124212421C2
:103B6000232103190319031903190319032103213D
:103B7000232124212421242123212321032103196A
:103B8000031903210321032103210319031903212D
:103B9000032124212421242124212421242124211E
:103BA000242124212421242103210321042124214F
:103BB00024212421242124212421242124212421DD
:103BC0002421242124212421242104190419031946
:103BD000E318C310C210A210A210A210C210C3108A
:103BE000C310C310C310C310E318E318E318E3189D
:103BF000E318C310C310C310E318E318E318E31865
:103C0000E318E318E318E318E318E318E318C31004
:103C1000C310C310C310C310C310E318E318E31894
:103C2000E318E318E318E318E318E318031903197A
:103C30000319E318E318E318E318E318E318E3188B
:103C4000E318E310E310E310E310E310E310E318CC
:103C50000319041924192419241924214421442165
:103C6000442144214421442144214421442144212C
:103C7000442144214421442144214421442144211C
:103C800044216429A529E631073A68420A538C6B1E
:103C90002F7CF19474A516BEB8CEF9D61ADF5ADF80
:103CA0007BE79BE79BE79AE79BE76A5B6A5B6A5B5C
:103CB0006A5B4A5B4A5B2A5B2A5B0953E952C95239
:103CC000C952C952C952C952E952C952A952884A65
:103CD000684A684247422742063AE639E639C63121
:103CE000A531A531A531A531A53185318529852994
:103CF0006529652965296529652945296529652974
:103D00006529442944296429642985298529852927
:103D10008529852985298529652964294421442106
:103D20004421432123212321032124212319031981
:103D30000319031903190319031923192319231943
:103D40000319031903190319031903210319032183
:103D500003212421242124212321232103210319A8
:103D600003190319031903190319E318E3180319B5
:103D70000319032124212421242124212421242165
:103D8000242124212421042103210321032124218E
:103D9000242124212421242124210421042124213B
:103DA000242124212421242124212421041904193B
:103DB000E318C310A210A21082088208A210C21039
:103DC000C210C210C210C310C310E318E318C3100E
:103DD000C310C310C310C310E318C310C310E318FB
:103DE000E318C310C310C310C310C310C310C31013
:103DF000C310C310C210C310C310E318E318E318B4
:103E0000E318E318E318E318E318E318E318E318DA
:103E10000319E318E318E318E318E318E318E318A9
:103E2000E318E310C210E210E310E310E318E31804
:103E30000319041924192419241924214421442183
:103E4000442144214421442144214421442144214A
:103E5000442144212421232123214421442143219D
:103E6000442164218429A531E631063A884AEA5280
:103E70008C6B2E7CB18C73A516BE97C6D8D619DF75
:103E80005AE77AE77AE77AE79AE74A5B4A5B4A5B5E
:103E90004A5B4A5B2A5B2A5B2A5B0A530953E95255
:103EA000E9520A5B2A5B0A5B0A5BE952C952884AFB
:103EB000684A47422742063AE639E639C631A53113
:103EC000A531853185298531853185298529852942
:103ED00065296529652945294529442945296429F4
:103EE0006529642964296429642985298529852906
:103EF00085298529652964296429442944212421A7
:103F0000442143212321232123212421231903197F
:103F100003190319031903190319031903190319C1
:103F200003190319031903190319031903190319B1
:103F30000321232124212321032103210321032100
:103F40000319E318E318E318E318E318E318E31878
:103F500003190321232124212421042104210421E4
:103F60000421242104210321031903210321032116
:103F700004212421242124210421031903190421CB
:103F80002421242124212421242124210419041959
:103F9000E318C310A210A21082088208A210C21057
:103FA000C210C210C210C310C310E318C310C31054
:103FB000C310C310C310C310E318C310C310C31041
:103FC000C310C310C310C310C310C310C310C31059
:103FD000C310C310C310C310C310C310C310E31821
:103FE000E318C310C310C310C310C310E318E318C1
:103FF000E3180319031903190319E318E318E31865
:10400000E318E310C210E210E210E318E318E3181B
:104010000319041904190419041924192421242149
:104020004421442144214521452144214421442166
:104030002421231903190319231923194421432186
:10404000642164218429A529C531E6314742884A83
:10405000EA528C6B2E7CD19473A516BE97C6F8D607
:1040600039DF5ADF7AE77AE77AE72A5B4A5B4A5B0D
:104070004A5B4A5B4A5B2A5B295B2A5B2A5B2A5BB9
:104080004A5B4B636B634B632A63E95AC952884AA4
:1040900047422742063AE639E639C531C531A531EE
:1040A00085298429642985298529852985298529C2
:1040B000652965294429442944214421442144296E
:1040C0004529642965296529652985298529652961
:1040D000652965296429442944294421242124216E
:1040E00024212421232123212321242123210319D5
:1040F00023192319031903190319031903190319A0
:1041000003190319031903190319032103190319C7
:10411000032123212421232103210321032103211E
:104120000319E318E318E318E318E318E318E31896
:104130000319031903212321242103190319031946
:104140000321032103210321032103190319031967
:104150000319032103210321031903190319031967
:104160000419041904210421042104190419031950
:10417000E318C310C210A210A210A210A210C21005
:10418000C210C310C310C310C310C310C210A210BA
:10419000C210C310C310C310E318E318E318C31010
:1041A000C310C210C210C310C310C310C210C2107B
:1041B000C310C310C310C310C310C310C310C31067
:1041C000C310C310C310C310C310C310C310E3182F
:1041D000E318E318E318E318E318E318E318E31807
:1041E000E310E310C210E210E210E310E310E31852
:1041F000E31803190419041904192419241924199A
:104200002421242124214421442124212319231958
:10421000231903190319031903192319232144210D
:104220006421642164218429A529C531063A273AED
:10423000884A0A5BAC6B4F84F19494AD35BEB7CE1F
:10424000F8D639DF5ADF7AE77AE729534A5B4A5BC7
:104250004A5B4A5B4A5B2A5B2A5B4A5B6B636B6324
:104260008B638B6B8B634B632A63E952C952684A39
:1042700047422642063AE639E639C531A531A5312D
:104280008529642964296429642984298429652964
:1042900064296429442944214421242144214421BE
:1042A0004429642965296529652985298529652980
:1042B00065296429442944214421242124212321DE
:1042C00024212321232123212321242124212321CB
:1042D00023212319031903190319031903190319B6
:1042E0000319E318E3180319031903210321032118
:1042F0000321242124212421232103210321031923
:104300000319E318E318E218E218E318E318031995
:1043100003190319032103210321031903190319A5
:104320000319031903190321032103190319E318BE
:10433000E318E318E318E318E318E318E318E318A5
:10434000E318E318E318E318E318E318E318E31895
:10435000E318C310C310A210A210A210A210C31021
:10436000C310C310C310C310C310C310C210C210B7
:10437000C210C310C310C310E318E318E318C3102E
:10438000C210A210A210A210C210A210A210A2105D
:10439000C210C310E318C310C310C210C310C3105F
:1043A000C310C310C310C310C310C310E318E31825
:1043B000E318E318C318C318C318E318E318E3108D
:1043C000E310C210C210E210E210E310E310E31891
:1043D0000319041904192419241924192419241956
:1043E0002419241924192419241903190319031948
:1043F00003190319E3180319231923214421642104
:10440000642164216421642164218429C531E5315A
:104410004742A84A2A5BCC736F84319DB4AD76C6FF
:10442000D8CE19D75ADF7ADF7AE729534A5B4A5B3D
:104430004A5B4A5B4A5B4A5B4A5B6A636B638B6BB2
:104440008B6B8B636B634A630A5BC952A852674AE2
:104450002642063AE539C531C531A531A531A53128
:1044600085296529642964296429642964296429C2
:10447000642944294429242124212421442944292C
:10448000442944296529852965298529852965299E
:1044900065296529452944294429242124212421E9
:1044A0002421242123210321232123212421242108
:1044B000242123212319231903190319031903198B
:1044C0000319E318E3180319031903210321032136
:1044D00023212421242124212421232103210321F8
:1044E00003190319E318E318E3180319032103213F
:1044F00003210321031903190319031903190319CC
:10450000E318E318E318E318E318E318E318E318D3
:10451000E318E218E218E318E318E318E318E318C5
:10452000E318E318E318E318C318C310C310C3104B
:10453000C310C310C310C210C210A210C210C31007
:10454000C310C310E318E318E318C310C310C3105B
:10455000C310C210C210C310E318C310C310C2109E
:10456000A210A210A210A210C210C210C210C2103B
:10457000C310C310C310C310C210A210A210A21007
:10458000A210A210A210C210C310C310C310C310F7
:10459000C310C218C218C210C210C218C218C2106A
:1045A000C210C210C210E210E210E310E310E318D0
:1045B0000319031924192421242124192419241945
:1045C0002419241924192419241903190319031966
:1045D0000319E318E210031903194421442164214B
:1045E000642144214421432143216421A429C5316C
:1045F000063A6742C9526B632E7CF19493AD35BE87
:10460000B7CEF8D639DF5ADF7ADF29534A5B4A5BE7
:104610004A5B4A5B4A5B4A5B4A5B6A636B638B63D8
:104620006B636B634A632A5B095BC952884A4742E2
:10463000063AE639C531A531A531A531A531853117
:104640008529642964294429442944294429642961
:104650004429442944212421242124214429442972
:10466000442944296529852985298529852985297C
:104670006529652965296429642944212421242187
:10468000242124212421232123210319232124212E
:10469000242124212321242124210319031903196E
:1046A0000319E218E2180319031903210321032156
:1046B00023212421242124212421242124212321D4
:1046C0000321032103190319E318032123212421C2
:1046D00024212321032103190319E318E318E31804
:1046E000E318E318C318C318C318E318E318E31852
:1046F000E218C218C218C318C318C218C318C318C6
:10470000C318C318C318C310C310C310C310C310F9
:10471000C310C310C310C310C310C210C310C31002
:10472000C310E318E318E318E318C310C210C21053
:10473000A210A210A210A210C310A210A210A210C8
:10474000A210A210A210C210C210C310C310C31036
:10475000C310C210A210A210A21082088208A210D8
:10476000A210A210A210A210C210A210A210C21079
:10477000C210C210C210C210C210C210C210C210A9
:10478000C210C210C210E210E210E310E310E318EE
:10479000031903192419241924192421242124215B
:1047A000242124212421242124212419031903193B
:1047B0000319E210E210E210031923192319231937
:1047C0002319231923194321432143218429A4298F
:1047D000C531263A884A4A630D7CF19493AD36BEC2
:1047E00097CEF8D639DF59DF59DF29534A5B4A5B48
:1047F0006A5B4A5B4A5B4A5B4A5B6B636A636B63F7
:104800006A634A5B295B095BC852A852884A4742DF
:10481000063AE539C531C531A531A531853184293F
:1048200064296429642944214421442144214429E0
:104830004429442944214421242124214421442180
:104840004529652965296529852985318531852988
:104850006529652985298529652945294429442112
:104860004421442124212421042103192319232133
:104870002421242124212421242123210319031963
:104880000319E318E218E318031903210321032194
:1048900003210321232124212421442144212421F3
:1048A0002421242123210321032103212321242145
:1048B0002321232103210319E318E318E318E31844
:1048C000E318E318C318C318C318E318E318E31870
:1048D000C218C318C218C218C218C218C318C31805
:1048E000C318C318C318C310C310C310C310C31018
:1048F000C310C310C210C310C310C310C310E318F9
:10490000E318E318E318E318C310A210A210A210D2
:10491000A210A210A210A210C210A210A210A210E7
:10492000A210A210A210C210C210C310C310C31054
:10493000C210A210A210A210A210A210A210A210C7
:10494000A210A210A210A210A210A210A210A210D7
:10495000A210A210C210C210C210C210C210C21007
:10496000C210C210C210C210C210C210C210E31096
:10497000E3180319031924192419241924192419D3
:104980002419241924192419241924190319031981
:104990000319E318E3180319031903190319031979
:1049A0002319231923194319432143216321632127
:1049B0008429C5314742E95AAC6B6F84329DD4B526
:1049C00056C6D8CEF8D639DF5ADF4A5B6A5B6B63CE
:1049D0006B636B636A636A636B636B636A634A638B
:1049E0004A632A5B095BE952A852884A674A274210
:1049F000063AE539C531C531A53185318429852986
:104A0000642964294421442144214321442144212F
:104A100044214421442124212421442144214429A6
:104A2000452965296529852985298531863185317D
:104A300085298529852985296529652945294421CF
:104A40004421242124212421242103190319231979
:104A50002321232124212421242124212319031962
:104A60000319E318E3180319031903210321032190
:104A70000321032123212421242124212421242151
:104A800024212321032103190319031903210321DD
:104A9000032103190319E318E318E318E318E318D3
:104AA000E318E318E318E318E3180319E318E3180D
:104AB000E318E318E318E318E318C318C318E3185E
:104AC000C318C318C318C318C318E318E318C310D6
:104AD000C310C210C210C310C310C310E318E318F0
:104AE000E318E318C310C210A210A210A210A21063
:104AF000A210A210A210C210C310C210A210A210C5
:104B0000A210A210A210A210A210C210C210A210D5
:104B1000A210A210C210C210C310C310C210A21063
:104B2000A210A210A210A210A210C210C210C21095
:104B3000A210C210C210C210C210A210C210C21025
:104B4000C210C210C210C210C210C210C210C210D5
:104B5000E310E3180319031903192419031904199D
:104B60000419041904190419041903190319031960
:104B70000319031903190319031903190319031955
:104B8000231943214321431943212319432143215D
:104B900063218429E531674A0A5BCC73908C52A566
:104BA000F5B597C6D8CE39DF5ADF6A5B6B5B6B63AE
:104BB0006B636B636B636B636B634A5B4A5B2A5B20
:104BC0002A5BE952C952A84A884A674A4742063ACC
:104BD000E639C531C531A531A531A531A5318531BC
:104BE000842964294421442144214421442144212D
:104BF0004421442144214421442144214421442985
:104C0000652965296529852985298631A631863159
:104C100085318529852985296529652945294421E5
:104C2000442124212421242124210319031924218E
:104C3000242124212421242124212421241903197D
:104C40000319E318E31803190319042104210321AC
:104C5000032104212421242124212421242124216D
:104C60002421042103190319E318E318031903216C
:104C700003190319E318E318E318E318E318E3181A
:104C8000031903190419041903210321032103192A
:104C9000E318E318E318C318C318C318C318C318DC
:104CA000C318C318C318C318E318E318E318C310D4
:104CB000C310A210C210C310C310E318E318E31806
:104CC000E318E318C310C210A210A210A210A21081
:104CD000A210A210A210C210C310A210A210A21003
:104CE000A210A210A210A210A210A210A210A21034
:104CF000A210A210A210C210C310C310C310C31080
:104D0000A210A210A210A210C210A210C210C210B3
:104D1000C210C210C210C218C218A210C210C2180B
:104D2000C210C210C210C210C210C210C210C210F3
:104D3000E310E318E31803190319031903190319FE
:104D40000319031903190319031903190319031983
:104D50000319031903190319031903190319031973
:104D6000231943194419431943212319432143218A
:104D700043216421A429063A884A2A5BED73B08C4A
:104D800073A535BE97CEF9D63ADF4A5B4A5B2A5BFC
:104D90002A5B2A5B2A5B2A5B2A5B0953E952E952A8
:104DA000C852A84A884A874A67422742063A063AC2
:104DB000E539C531C531A531A531A531A5318531DB
:104DC000842964296421442144214421442144212B
:104DD00044214421442144214421442144214429A3
:104DE000652965298529852985318631A631A63130
:104DF000863185318531852965294529442144211C
:104E0000442144212421242124210421242124215A
:104E100044212421242124212421241903190319A4
:104E20000319E318E318E3180319242104210321CB
:104E300003210421042124212421242124212421AB
:104E40000421032103190319E318E31803190421AA
:104E50000321031903190319E3180319031904198A
:104E60000421042104210421042104190419031933
:104E7000E318E318E318C318C318C310C318C31802
:104E8000C310C310C310C318C318C310C310C3107A
:104E9000C310C210C210C310C310E318E318E31804
:104EA000E318E318C310C310C210A210A210A2107E
:104EB000A210A210A210A210A210A210A210A21062
:104EC0008208A210A210A210A210A210A210A2107A
:104ED000A210A210A210A210A210C310C210A21001
:104EE000A210A210A210A210A210A210A210C21012
:104EF000C210C210C218C218C218C218C218C318F1
:104F0000C218C218E310E310C210E310E310E3105C
:104F1000E318E318031903190319031903190319F3
:104F200003190319031903190319031903190319A1
:104F30002419231923192319031903190319031910
:104F40002319231923192319431923194321432111
:104F500063218429A429E5394742C9526B6B2E7C11
:104F6000F194B4AD36BEB7CEF9D6095309530953FF
:104F7000095309530953E952E952C84AA84AA84AB1
:104F8000884A67426742474226422642063AE63945
:104F9000C639C531C531C531A53185318529842949
:104FA0008429642964214421242144214421442169
:104FB0002421242124214421442144294429442911
:104FC0006429652985298529853185318631863190
:104FD0008631863185316529652944292421452971
:104FE00045294529452924212421242124214421FE
:104FF00024212421242124212421042104210321EA
:105000000319E318E318E318031904210421032109
:105010000319032103210321032104210421042175
:10502000032103210319E318E318E31803190421EA
:105030000421042104210421042104210421042148
:1050400004212421042104210421E318E418E41894
:10505000E418E318E318E318E318C318C318C318D7
:10506000C318C318C318C318C318C318C318C31868
:10507000C318C318C318C318E318E318E318E318D8
:10508000C318C318C318C318C318C210C210A21083
:10509000A21082108210A210A210A210A210A210C0
:1050A0008210A210A210A210A210A210A210A21090
:1050B000A210A210A210A210A210A210A210A21060
:1050C000A210A210A210A210A210A210A210C21030
:1050D000C210C218C218C218C218A210A210C21858
:1050E000C210C318E318E318E318E318E310E31041
:1050F000E3180319031903190319031903190319F1
:1051000003190319031903190319E31803190319E0
:1051100003190319031903190319031903190311B7
:10512000031903192319231923192319431943199F
:10513000632163218429C531263A67420A5BAC6B3F
:105140004E84119DB4B556C6D8D6E94AE94AE94A13
:10515000E94AE94AC84AC84AA84A87428742674298
:105160006742474247422642263A063AE639C6395E
:10517000C531A531A531A5318531852985298429F8
:1051800064296429642144212421442144212421C7
:10519000242124212421442144214429452944292E
:1051A00064296529852985298531853186318631AE
:1051B000863186318631853165294429442945293E
:1051C00045296529452945292421242124214421D3
:1051D0002421242104210421042104212421042147
:1051E0000319E318E3180319031903210321031911
:1051F00003190319031903190319032103210321B7
:105200000321031903190319E318E31803190319F8
:105210000319032104210421042104210421042170
:1052200004212421242124212421041904210421DE
:105230000419E418E418E318E318C318E318E31892
:10524000E318C318C318C318C318E318E318E31806
:10525000E318E318E318E318E318E318E318E31876
:10526000C318C318C318C318C318C318C318C31866
:10527000C210A210A210A210A210A210A210A2107E
:10528000A210A210A210A210A210C210C210A2104E
:10529000A210A210A210A210A210A210A210A2107E
:1052A000A210A210A210A210A210A210C210C3102D
:1052B000C310C218C218A210A2108210A210A2100D
:1052C000A210C218E318E318E318C210C210C210EB
:1052D000E310031903190319031903190319031917
:1052E00003190319031903190319E318E318031920
:1052F000031903190319E318E310E210E210E21096
:10530000031903190319031903192319231923195D
:105310002319432143218429C531063A674A0A5B90
:10532000AC6B6F8452A515BEB7CEC84AC84AA84A0E
:10533000A84AA84AA84A8842884267426742674208
:1053400067424742273A263A063AE639C531C5311F
:10535000A531A53185318531842984298429842981
:1053600064296429642144214421442144214421A5
:1053700044214421442144214421652165216421A3
:10538000642965298529852985298531A631A63194
:10539000A631A631863186318531452945294529F1
:1053A00065296529452945292421242144214421B1
:1053B0002421242104210421042124212421242125
:1053C0000419031903190319031904190319E3181C
:1053D000E3180319031903190419041904210421FA
:1053E00004210421041904190319E3180319E3180B
:1053F000E3180319042104190319E318E318E41846
:10540000E41804210421042104210421042104219D
:1054100004210421E418E418E318E318E318E3185E
:10542000E318E318C318C318C318E318E318E31804
:10543000E318E318E318E318E318E318E318E31894
:10544000E318E318E318C318C318E318E318C318E4
:10545000C310A210A210A210A210A210A210A2109B
:10546000A210A210C210C310C318C310C310C210E0
:10547000A210A210A210A210A210A210A210A2109C
:10548000A210A210A210A210A210A210C210C3104B
:10549000C310C218C218A210A2108210A210A2102B
:1054A000A210C210E318E318E318C210C210C21011
:1054B000C210E31803190319031903190319E31898
:1054C000E318E318E318E318E318E318E318E31804
:1054D000E318E318E310E310E310E210E210E21027
:1054E0000311031903190319031923192219221986
:1054F00002192219231943216429A429063A884A4A
:10550000E95AAC73908C53A516BEA842A842A84293
:10551000874288428742674267424742473A47424A
:1055200047424742273A263A063AE639C531A5317D
:10553000A531842984298529642964296429642959
:1055400064296421442144214421442144214421EB
:1055500024212421442144214421652965216429F1
:1055600064296529852985298529A531A631A63192
:10557000A631A631A63186318631652965294529AE
:1055800065296529452945292421442145214521AD
:1055900044212421242124212421042124212421E3
:1055A00004190319031903190319E318E318E3187D
:1055B000E318E31803190319041904210421042131
:1055C0000421042104210421042103190319E318EF
:1055D000E31803190419E318E318E318E318C318D0
:1055E000E318E418E418E418E418E4180419042192
:1055F00004210421042104190419031903190319AE
:10560000E318E318E318E318E318E318E318E318C2
:10561000E318E318E318E318E318E318E318E318B2
:10562000E318E318C318C318C318C318C318C31862
:10563000C310C210A210A210A210A210A210A21099
:10564000A210A210C310C318C318C318C318C210E5
:10565000A210A210A210A210A210A210A210A210BA
:10566000A210A210A210A210A210A210A210C2108A
:10567000C210A210A210A210A210A210A210A2107A
:10568000A210C210C318C318C218C210C210C21090
:10569000C210E310E318E318E310E318E318E3186B
:1056A000E318E310E310E310E310C310C310C310BA
:1056B000C310E310E310E310E310E210E210E21075
:1056C00003110319031903192319021102110211FD
:1056D000021102192319232143216429A531263AF5
:1056E00067420A5BED73B08C73A5A84AA84AA84A22
:1056F000A84A884A8842874267426742473A4742F7
:1057000047424742273A273A063AE639C631A53199
:10571000A531A5318529842964296429642964294E
:105720006429442944214421242143214321442143
:105730004421442144214421442144214421652120
:1057400064216429652985298529A531A631A631D9
:10575000A631A631863186318631652965296529CC
:1057600045294529452945294529452945294529C9
:105770004521242124212421242124212421042100
:105780000419E318E318E318041904190319E318BA
:10579000E3180319041904210421042124212421DC
:1057A00004212421242124210421E318E318E418EE
:1057B000E418E418E418E418E418C318C318E3184C
:1057C000E318E318C318E318E318C318C318E31861
:1057D000E318E41804190421042104210421041904
:1057E000031903190319E318E318E318C318C318BE
:1057F000E318C318C318C318C318C310C310C318C1
:10580000C318C318C218C210C210C218C210C210E6
:10581000C210C210C210C210A210C210A210A21058
:10582000A210A210A210A210A210C210C210C21088
:10583000A210A210A210A210A210A210A210A210D8
:10584000A210A210A210A210A210A210A210A210C8
:10585000A210C218C218A210A210A210A210A21068
:10586000C218C218C218C318C318E310E310E3101B
:10587000E310E318E318E318E310E310E310E31870
:10588000E318E318E310C210C210C210C210C21015
:10589000E310E310E318E318E318E318E318031127
:1058A0002319231923192319431903190319021959
:1058B0000219231923194321432143218429C53186
:1058C000E639884A2A5BAC6B908CA84AA84AA84A59
:1058D000A84A884A8842884287426742673A4742D4
:1058E0004742273A273A073A063AE639C531A53101
:1058F00085318529842964296429642964296429D6
:1059000064294429442144214421232123212421A1
:10591000242144214421442144216521652965290C
:105920006529652965298529852985318531A6312E
:10593000853186318531853185316529652965292E
:1059400045294529452945294529452965296529A7
:10595000652945294521442144212421242104216C
:1059600004190319E318031904210421042104195B
:1059700004190419042104210421242124212521AE
:105980002521242144212421242104190319E41868
:10599000E418E418E418E418E418E318E318E3182A
:1059A000E318E318C318C318C310C310C318C318EF
:1059B000C318E318E418E418E418041903190319C8
:1059C000E3180319031903190319E318C318C318BB
:1059D000E318C318C318C318C318E318E318E3186F
:1059E000E318C318C318C210C210A210A210A2104C
:1059F000C210C210C210C210C210A210A210A21077
:105A0000A210A210A210C210C210C210C210C21066
:105A1000A210A210A210821082108210A210A21056
:105A2000A210A210A210A210A210A210A210A210E6
:105A3000A210C218C218A210A210A210A210C2185E
:105A4000C218C218C318E318E318C210C210C2105B
:105A5000C210E310E310E310E310E310E310E318C7
:105A6000E318E318E310C210C210C210C210C21033
:105A7000E310E310E318E318E318E310E318031945
:105A80002319231923194419441923192319021915
:105A90000219031923194321432123216429A53124
:105AA000A531263AA84A2A5BED7BC84AC84AC84AAB
:105AB000A84AA84AA84AA842884287426742474261
:105AC000473A263A263A063AE639C631A5318531B3
:105AD000852984296429642944294429642964295D
