:020000040800F2
:10000000600400202D0100083501000837010008B8
:10001000390100083B0100083D0100080000000014
:100020000000000000000000000000003F01000888
:10003000410100080000000043010008B905000864
:100040004701000847010008470100084701000870
:100050004701000847010008470100084701000860
:100060004701000847010008470100084701000850
:100070004701000847010008470100084701000840
:100080004701000847010008470100084701000830
:100090004701000847010008470100084701000820
:1000A0004701000847010008470100084701000810
:1000B0004701000847010008470100084701000800
:1000C00047010008470100084701000847010008F0
:1000D00047010008470100084701000847010008E0
:1000E000470100084701000847010008DFF80CD06D
:1000F00000F02EF800480047F109000860040020D5
:1001000030B50B46014600202022012409E021FAE7
:1001100002F59D4205D303FA02F5491B04FA02F5E4
:100120002844151EA2F10102F1DC30BD06488047CB
:1001300006480047FEE7FEE7FEE7FEE7FEE7FEE7CC
:10014000FEE7FEE7FEE7FEE735060008ED000008E3
:10015000064C074D06E0E06840F0010394E8070014
:1001600098471034AC42F6D3FFF7C4FF4C0C00089C
:100170006C0C000800214FF0E02291610121064A39
:1001800011600649086000BF044909680029FBD1D5
:10019000014A116070470000300000202C00002050
:1001A0002DE9F0410246002500260020002300240E
:1001B000002791F803C00CF00F0591F803C00CF074
:1001C000100CBCF1000F03D091F802C04CEA0505F9
:1001D00091F800C0BCF1000F31D0146800202BE072
:1001E0004FF0010C0CFA00F3B1F800C00CEA030662
:1001F0009E4220D183004FF00F0C0CFA03F7BC4352
:1002000005FA03FC4CEA040491F803C0BCF1280F82
:1002100006D14FF0010C0CFA00FCC2F814C00AE041
:1002200091F803C0BCF1480F05D14FF0010C0CFA56
:1002300000FCC2F810C0401C0828D1D31460B1F8EB
:1002400000C0BCF1FF0F34DD546800202EE000F147
:10025000080C4FF0010808FA0CF3B1F800C00CEAE2
:1002600003069E4221D183004FF00F0C0CFA03F7D6
:10027000BC4305FA03FC4CEA040491F803C0BCF14A
:10028000280F05D100F1080C08FA0CF8C2F8148008
:1002900091F803C0BCF1480F07D100F1080C4FF0F2
:1002A000010808FA0CF8C2F81080401C0828CED3C8
:1002B0005460BDE8F0814161704701617047000002
:1002C00029B1064A92690243044B9A6104E0034A49
:1002D00092698243014B9A6170470000001002400E
:1002E00030B500210022002400232D4D6D6805F05B
:1002F0000C0121B1042905D0082923D105E0294D9D
:10030000056022E0274D05601FE0254D6D6805F46E
:100310007012234D6D6805F48034022505EB92427E
:100320001CB9214D554305600BE01D4D6D6805F46A
:1003300000351DB11C4D5543056002E0194D554374
:10034000056002E0174D056000BF00BF144D6D68E9
:1003500005F0F0010909154D6B5C0568DD4045604D
:100360000F4D6D6805F4E061090A104D6B5C45683E
:10037000DD4085600A4D6D6805F46051C90A0B4D7A
:100380006B5C4568DD40C560054D6D6805F4404116
:10039000890B074D6B5CC568B5FBF3F5056130BD96
:1003A0000010024000127A0000093D0034000020D5
:1003B0004400002021B1028842F04002028004E0A3
:1003C00002884FF6BF731A40028070470246002031
:1003D00013890B400BB1012000E00020704701465B
:1003E000888970478181704710B50022028802F425
:1003F00041520B884C8823438C882343CC88234369
:100400000C8923434C8923438C892343CC89234380
:100410001A430280838B4FF2FF74234083830B8A3D
:10042000038210BD38B505460C464FF4FA600090C3
:1004300006E00098401E0090009808B9022038BDE0
:1004400080212846FFF7C2FF0028F2D02846FFF798
:10045000C6FF20704FF4FA60009006E00098401E3E
:100460000090009808B90120E9E701212846FFF72C
:10047000ADFF0128F2D00020E1E738B504460D4673
:100480004FF4FA60009006E00098401E009000983B
:1004900008B9022038BD80212046FFF797FF0128C8
:1004A000F2D029462046FFF79DFF4FF4FA600090F6
:1004B00006E00098401E0090009808B90120E9E786
:1004C00002212046FFF782FF0028F2D00020E1E75A
:1004D00010B500F001F810BD0CB50020019000909F
:1004E0003348006840F480303149086000BF30482C
:1004F000006800F4003000900198401C01900098C2
:1005000018B90198B0F5A06FF1D12948006800F43E
:10051000003010B10120009001E000200090009810
:10052000012843D12348006840F0100021490860A9
:100530000846006820F0030008600846006840F0A4
:10054000020008601A484068194948600846406837
:1005500048600846406840F480604860084640684B
:1005600020F47C1048600846406840F4E810486079
:100570000846006840F08070086000BF0C480068C2
:1005800000F000700028F9D00948406820F003000E
:10059000074948600846406840F00200486000BFD4
:1005A0000348406800F00C000828F9D10CBD000099
:1005B000001002400020024004480068012804D1D5
:1005C00003480068401E0249086070473000002060
:1005D0002C00002030B5144800684FF47A72B0FB4C
:1005E000F2F1B1F1807F00D31DE021F07F40401E89
:1005F0004FF0E022506150170F22002807DA13074E
:100600001D0E0A4B00F00F04241F1D5503E01307B5
:100610001C0E074B1C5400BF00204FF0E0229061DD
:100620000720106100BF30BD0000002018ED00E081
:1006300000E400E010B51348006840F001001149E3
:10064000086008464068104908400E49486008465E
:1006500000680E4908400B4908600846006820F40D
:10066000802008600846406820F4FE0048604FF48F
:100670001F008860FFF72CFF4FF0006004490860FE
:1006800010BD0000001002400000FFF8FFFFF6FE62
:1006900008ED00E02DE9F04786B004460D46164609
:1006A0001F46DDE90F9ADDF8388004208DF8170029
:1006B000194830F81400ADF81400184951F8240016
:1006C00005A9FFF76DFD18208DF8130003208DF8A4
:1006D0001200134830F81400ADF810000F4951F81B
:1006E000240004A9FFF75CFD00960020ADF80C0083
:1006F000ADF80890ADF806A0ADF80470ADF80A802A
:100700006946284600F028F80121284600F00AF83A
:1007100006B0BDE8F08700002A0000202400002079
:100720002800002021B1828942F40052828104E035
:1007300082894DF6FF731A4082817047024600207D
:10074000B1F5007F00D100BF13880B400BB1012031
:1007500000E00020704700002DE9F04786B0054614
:100760000E460024A24600BFA1460027B08900B172
:1007700000BF2F462C8A4CF6FF700440F0880443DB
:100780002C82AC894EF6F3100440B08831890843BE
:10079000718908430443AC81AC8A4FF6FF400440A2
:1007A000B0890443AC8201A8FFF79AFD1F48874235
:1007B00002D1DDF810A001E0DDF80CA0A88900F45A
:1007C000004040B10AEBCA0000EB0A103168490052
:1007D000B0FBF1F807E00AEBCA0000EB0A10316841
:1007E0008900B0FBF1F86420B8FBF0F004012009A7
:1007F000642101FB1089A88900F4004040B1322037
:1008000000EBC900B0FBF1F000F00700044308E082
:10081000322000EB09106421B0FBF1F000F00F0072
:1008200004432C8106B0BDE8F08700000038014089
:10083000C1F30802828070470FB4054B10B503A9BD
:10084000044A029800F018F810BC5DF814FB000090
:10085000CD0900084800002002E008C8121F08C1A6
:10086000002AFAD170477047002001E001C1121F31
:10087000002AFBD1704700002DE9FF4F89B09B464D
:100880000446002506E025280BD05A460B999047D0
:10089000641C6D1C20780028F5D10DB02846BDE8F9
:1008A000F08F0027B8460122474900E0074314F8BB
:1008B000013F203B02FA03F00842F7D120782E28AE
:1008C00019D114F8010F47F004072A280ED06FF051
:1008D0002F022078A0F1300109290CD808EB8801FB
:1008E00002EB410100EB0108641CF2E70A98641C6A
:1008F00050F8048B0A9020780028CED0642808D0C5
:10090000692806D075281ED05A460B9990476D1C51
:1009100058E00A994FF00A0901C90A91002802DA41
:1009200040422D2102E0390504D52B218DF82010FD
:10093000012103E0F90704D02021F7E78A4608AE39
:100940000DE00021FAE70A994FF00A0901C90A915E
:10095000F7E74946FFF7D4FB303106F8011D0028C0
:10096000F7D1ADEB060000F12009780701D44FF074
:100970000108C84502DDA8EB090000E00020804620
:10098000002706E008A85A46C05D0B9990476D1CE9
:100990007F1C5745F6DB04E030205A460B99904700
:1009A0006D1CB8F10001A8F10108F5DC05E016F8AE
:1009B000010B5A460B9990476D1CB9F10001A9F142
:1009C0000109F4DC641C65E70928010070B50446E0
:1009D0000D46E1B20548FFF72BFF00BF4021034859
:1009E000FFF7ACFE0028F9D0204670BD003801406A
:1009F0001FB50024302501210420FFF761FC0121EF
:100A00008803FFF75DFC01210803FFF759FC102064
:100A10005849C87003208870022008805648FFF7A4
:100A2000BFFB544801885448FFF747FC182053493E
:100A3000C87003208870E02008804F48FFF7B0FBA3
:100A40004FF482704E494880382088810020088009
:100A500088800881C880C8814A48FFF7C5FC012109
:100A60004848FFF7A7FC00200C22CDE900200346F0
:100A70004FF4165244490290FFF70CFEFFF7AAFD0F
:100A80003C4801883C48FFF718FC71E03948018870
:100A90003948FFF710FC06213A48FFF7EEFC0646FE
:100AA00031463AA0FFF7C8FE324801883248FFF7C6
:100AB00004FC304801883048FFF7FDFB0221314833
:100AC000FFF7DBFC0646314636A0FFF7B5FE2146B0
:100AD0002C48FFF7D2FC0646314639A0FFF7ACFEA2
:100AE00029462848FFF7C9FC064631462DA0FFF7E6
:100AF000A3FE204801882048FFF7DDFB36A0FFF762
:100B00009BFE4FF47A70FFF735FB1A4801881A48AC
:100B1000FFF7D1FB03211B48FFF7AFFC0646314628
:100B200032A0FFF789FE21461648FFF7A6FC0646CD
:100B3000314623A0FFF780FE00211248FFF79DFCFD
:100B40000646314630A0FFF777FE03A90D48FFF7B0
:100B500069FC0646314633A0FFF76EFE0548018862
:100B60000548FFF7AAFB9DF80C1034A0FFF764FEC0
:100B70008CE7000020000020000801401C0000203D
:100B80004C0000200030014000380140656E616279
:100B90006C653A206572726F72436F64653A202506
:100BA000640A00007772697465206D6F64653A208D
:100BB0006572726F72436F64653A2025640A0000A3
:100BC000576F72643A206572726F72436F64653A50
:100BD0002025640A0000000057726974652053558F
:100BE000434345535321210A0A00000072656164A2
:100BF000206D6F64653A206572726F72436F646531
:100C00003A2025640A00000064756D6D79207365D3
:100C10006E643A206572726F72436F64653A202584
:100C2000640A0000726561643A206572726F7243F3
:100C30006F64653A2025640A000000005265616413
:100C4000446174613A2025640A0A00006C0C0008B3
:100C5000000000204C00000058080008B80C0008F4
:100C60004C000020140400006808000800A24A0498
:100C7000000000000000000001020304060708094C
:100C80000000000000000000000000000000000064
:100C90000008014000020004000000000000000005
:100CA0000000000001020304010203040607080912
:080CB000020406080000000028
:04000005080000ED02
:00000001FF
