:020000040800F2
:1000000030040020010100086104000859040008C0
:100010005D040008490100085D06000800000000BA
:100020000000000000000000000000000D050008B6
:100030004D01000800000000E9040008F90500086F
:100040001B0100081B0100081B0100081B01000820
:100050001B0100081B0100084F0100089101000866
:100060001B0100081B0100081B0100081B01000800
:100070001B0100081B0100081B0100081B010008F0
:100080001B0100081B0100081B0100081B010008E0
:100090001B0100081B0100081B01000801020008E9
:1000A0001B0100081B0100081B0100081B010008C0
:1000B0001B0100081B0100081B0100081B010008B0
:1000C0001B0100081B0100081B0100081B010008A0
:1000D0001B0100081B0100081B0100081B01000890
:1000E000610100081B0100081B010008DFF80CD0AB
:1000F00000F018F80048004781060008300400208E
:100100000648804706480047FEE7FEE7FEE7FEE7B1
:10011000FEE7FEE7FEE7FEE7FEE7FEE7FD05000877
:10012000ED000008064C074D06E0E06840F00103D2
:1001300094E8070098471034AC42F6D3FFF7DAFF93
:100140007C0700089C07000800BFFEE7704710B559
:10015000012000F073F810B1012000F05DF810BD2F
:1001600010B54FF4005000F05DF8012805D10548A6
:1001700001880122044800F06AF90449086800F087
:100180004BF810BD000000200008014018000020BE
:1001900010B5164801880022154800F058F90020D3
:1001A0001449086013E000201349086004E0124875
:1001B0000068401C104908600F4800684EF6602136
:1001C0008842F4D30B480068401C0A49086009487B
:1001D00000686428E7D3054801880122044800F03C
:1001E00036F90649086800F017F810BD0000002035
:1001F0000008014024000020280000200C000020FE
:1002000010B54FF4007000F019F818B14FF40070F9
:1002100000F002F810BD00000149086070470000BE
:100220001404014001460020034A12680A400AB142
:10023000012000E000207047140401400146002026
:100240000022074B1B6803EA0102054B14331B68AD
:100250000B4013B10AB1012000E0002070470000FC
:1002600000040140002123498279002A3AD00A463D
:10027000126803689A430B461A600A1D12680368E5
:100280009A430B1D1A60027911440A6803681A43E5
:100290000A60184A0832126803689A43154B0833FB
:1002A0001A601A1D126803689A43124B0C331A60C5
:1002B0004279102A0ED11A1F126803681A430D4B97
:1002C00008331A601A1D126803681A43094B0C336D
:1002D0001A600DE00749427911440A6803681A431D
:1002E0000A6005E0027911440A6803689A430A60CB
:1002F000704700000004014030B500228B071C0F3E
:100300000F2303FA04F20B4B8C1053F82430934361
:10031000084C8D1044F8253023468C1053F82430B7
:100320008C07240F00FA04F42343024C8D1044F888
:10033000253030BD080001402DE9F041024600257E
:100340000026002000230024002791F803C00CF0B1
:100350000F0591F803C00CF0100CBCF1000F03D096
:1003600091F802C04CEA050591F800C0BCF1000FFD
:1003700031D0146800202BE04FF0010C0CFA00F390
:10038000B1F800C00CEA03069E4220D183004FF072
:100390000F0C0CFA03F7BC4305FA03FC4CEA040407
:1003A00091F803C0BCF1280F06D14FF0010C0CFAF4
:1003B00000FCC2F814C00AE091F803C0BCF1480F79
:1003C00005D14FF0010C0CFA00FCC2F810C0401C23
:1003D0000828D1D31460B1F800C0BCF1FF0F34DDA0
:1003E000546800202EE000F1080C4FF0010808FAD4
:1003F0000CF3B1F800C00CEA03069E4221D1830041
:100400004FF00F0C0CFA03F7BC4305FA03FC4CEA5F
:10041000040491F803C0BCF1280F05D100F1080CC9
:1004200008FA0CF8C2F8148091F803C0BCF1480F28
:1004300007D100F1080C4FF0010808FA0CF8C2F8D7
:100440001080401C0828CED35460BDE8F0810AB16A
:10045000016100E04161704700BFFEE700BFFEE7B9
:100460007047000070B5002100230F22C47804B348
:10047000154C246804F4E064C4F5E064210AC1F179
:100480000403CA40447804FA03F1847814402143F9
:1004900009010E4C0678A155047804F01F050124CB
:1004A000AC4005786D11AD0005F1E025C5F80041BF
:1004B00009E0047804F01F050124AC40044D0678DF
:1004C000761145F8264070BD0CED00E000E400E038
:1004D00080E100E002490143024A116070470000D8
:1004E0000000FA050CED00E07047000029B1064A53
:1004F00092690243044B9A6104E0034A9269824381
:10050000014B9A617047000000100240704710B51F
:1005100000F002F810BD00000CB500200190009022
:100520003348006840F480303149086000BF3048EB
:10053000006800F4003000900198401C0190009881
:1005400018B90198B0F5A06FF1D12948006800F4FE
:10055000003010B10120009001E0002000900098D0
:10056000012843D12348006840F010002149086069
:100570000846006820F0030008600846006840F064
:10058000020008601A4840681949486008464068F7
:1005900048600846406840F480604860084640680B
:1005A00020F47C1048600846406840F4E810486039
:1005B0000846006840F08070086000BF0C48006882
:1005C00000F000700028F9D00948406820F00300CE
:1005D000074948600846406840F00200486000BF94
:1005E0000348406800F00C000828F9D10CBD000059
:1005F00000100240002002407047000010B5134870
:10060000006840F001001149086008464068104940
:1006100008400E494860084600680E4908400B49EA
:1006200008600846006820F480200860084640689A
:1006300020F4FE0048604FF41F008860FFF767FF5A
:100640004FF000600449086010BD00000010024037
:100650000000FFF8FFFFF6FE08ED00E000BFFEE738
:1006600002E008C8121F08C1002AFAD1704770477B
:10067000002001E001C1121F002AFBD170470000D9
:1006800001210420FFF732FF01211020FFF72EFF88
:1006900001210846FFF72AFF4FF480702E49088099
:1006A0001020C870032088702C48FFF745FE0220F8
:1006B0002B4908804820C8702A48FFF73DFE4FF4B8
:1006C0000050294908804820C8702648FFF734FEAA
:1006D00001210220FFF710FE0220244908600020BB
:1006E00008710C204871012088710846FFF7BAFD97
:1006F0000D210220FFF700FE4FF400501C49086056
:10070000002008710C204871012088710846FFF70D
:10071000A9FD4FF4A060FFF7DDFE07201549087022
:1007200001204870002088700120C8700846FFF73B
:1007300099FE282010490870002048708870012018
:10074000C8700846FFF78EFE03480188012203485F
:10075000FFF77DFE00BFFEE700000020000801401B
:100760000400002000100140080000200C000020C0
:100770001800002014000020200000209C07000822
:10078000000000202C00000060060008C8070008D8
:100790002C00002004040000700600080000000087
:1007A0000000000000000000000000000000000049
:1007B0000000000000000000000000000000000039
:0807C000000000000000000031
:04000005080000ED02
:00000001FF
