:020000040800F2
:1000000078040020890100088D0100088F01000894
:10001000910100089301000895010008000000000C
:100020000000000000000000000000009701000830
:1000300099010008000000009B0100089D010008D4
:100040009F0100089F0100089F0100089F01000810
:100050009F0100089F0100089F0100089F01000800
:100060009F0100089F0100089F0100089F010008F0
:100070009F0100089F0100089F0100089F010008E0
:100080009F0100089F0100089F0100089F010008D0
:100090009F0100089F0100089F0100089F010008C0
:1000A0009F010008F10500089F010008670600088D
:1000B0001F0600089F0100089F0100089F0100081B
:1000C0009F0100089F0100089F0100089F01000890
:1000D0009F0100089F0100089F0100089F01000880
:1000E0009F0100089F0100089F01000800F002F82E
:1000F00000F03AF80AA090E8000C82448344AAF188
:100100000107DA4501D100F02FF8AFF2090EBAE885
:100110000F0013F0010F18BFFB1A43F0010318473B
:100120000806000028060000103A24BF78C878C1ED
:10013000FAD8520724BF30C830C144BF04680C60ED
:10014000704700000023002400250026103A28BF35
:1001500078C1FBD8520728BF30C148BF0B60704739
:100160001FB51FBD10B510BD00F0A3FA1146FFF773
:10017000F7FF00F035FA00F0C1FA03B4FFF7F2FF21
:1001800003BC00F0C9FA000008480047FEE7FEE79C
:10019000FEE7FEE7FEE7FEE7FEE7FEE7FEE7FEE737
:1001A00003480449024A044B70470000ED00000870
:1001B0007800002078040020780000201220AE494A
:1001C00008607047AD48AE494860AE48086000BF5F
:1001D000AB48006800F400300028F9D000BFA84800
:1001E000006800F000700028F9D000BFA448406803
:1001F00000F00C000828F9D17047704745F25550BF
:10020000A14908600220486040F69F7088604AF665
:10021000AA2008604CF6CC400860704770479848A8
:10022000C06940F080509649C8619848006840F421
:100230008070964908609248006A40F00100904939
:10024000086200BF8E48006A00F002000028F9D062
:100250008B48006A40F40140894908628C48008854
:1002600040F010008A4908800020091D088047F6E8
:10027000FF70091D08800020854914310880091D80
:100280000880091D08803C20091D08800120804944
:10029000091F08807F48006840F008004FF0E02107
:1002A000C1F800017A48008820F0100078490880E1
:1002B00000BF7748008800F020000028F9D073487C
:1002C000006820F480707149086070476C4880694C
:1002D00040F400606A49886140F21B206E49088042
:1002E0004CF24F30091D08800220091D08800020B3
:1002F000694928390880091D0880012066491C3990
:1003000008806448006840F000704FF0E021C1F8B8
:10031000000161482838008840F001005E49283912
:10032000088070475648806940F00400544988614D
:100330005A485B4908600020091D086050488069E0
:1003400040F008004E4988614FF44010554908605C
:100350005548091D08604A48806940F01000484926
:1003600088610020514908604FF480004860704760
:100370004F48406820F004004D494860404880697B
:1003800040F004003E4988614548001D006820F4A3
:100390007F604349091D08600846006840F0B000CE
:1003A00008600846006840F480600860344880694E
:1003B00040F48040324988614EF21B603D4908801C
:1003C0000020091D0880091D0880081F0088091FDA
:1003D0000880002037490C3108803648001D00880D
:1003E00040F00C003349091D08800846008840F49D
:1003F000005008807047704770472148C06940F03E
:1004000000601F49C8610846C06940F08050C8615B
:100410001E48006840F480701C490860002026498E
:100420000880091D08800846008840F00300088005
:100430001648006820F48070144908601E48001DAA
:10044000008800F0040038B11248006840F0040051
:100450004FF0E021C1F80001704700B5FFF7AEFE94
:10046000FFF7B0FEFFF732FFFFF75CFFFFF780FFFB
:1004700000BD1248704700000020024002841D00A9
:100480000010024082000101003000400070004076
:100490000428004000E100E0282C0140040BB3BB1D
:1004A00000080140000C014000404444001001409D
:1004B0000000014008380140306C004080F93703EB
:1004C0000020744988610846806940F00400886112
:1004D0000846806940F02000886100206E4908606D
:1004E0006E4908606C48006840F003006A49086083
:1004F0006A48006840F44070684908607047654881
:10050000806940F400606349886140F6096064498D
:1005100008606320091D086061482838006840F0C1
:1005200001005F49283908605D481C38006840F0C8
:1005300001005B491C3908605A48006840F00070AF
:100540004FF0E021C1F8000155480838006840F03C
:100550000100534908390860514810380068504973
:10056000103908600846006840F0600008603220DA
:100570004B490C3108604A481C38006840F00200C2
:1005800047491C3908604FF0E020D0F8000140F0E6
:1005900000604449086000203E49C8610846C069BF
:1005A00040F00100C86141F61F4089048862632061
:1005B000C8620846006840F0010008600120C86079
:1005C0004FF0E020D0F8000140F08050354908603D
:1005D00000203349083108604FF0804108637047BC
:1005E000FFF73BFFFFF76CFFFFF789FF00BFFEE758
:1005F0002B481838008800F0010078B126480830F0
:10060000006840F480702449083108602448183894
:10061000008820F0010022491839088070474FF007
:100620008040008A00F00100E0B11D480C300068F5
:10063000622803D81A480C30006820B91A480068AC
:1006400040421949086016480C300068164909688C
:10065000084413490C3108600807008A20F00100A3
:100660000907088270470E481838008800F0020019
:1006700078B109480830006820F4807006490831D4
:10068000086007481838008820F00200044918392B
:100690000880704700100240040801400014014027
:1006A000282C014000E100E0100000207047704756
:1006B0007047754600F02CF8AE4605006946534673
:1006C00020F00700854618B020B5FFF769FDBDE8AA
:1006D00020404FF000064FF000074FF000084FF0A9
:1006E000000B21F00701AC46ACE8C009ACE8C0093A
:1006F000ACE8C009ACE8C0098D46704710B50446A7
:10070000AFF300802046BDE81040FFF736BD000083
:10071000004870471400002001491820ABBEFEE7D6
:100720002600020070470000480700080000002073
:1007300014000000280100085C07000814000020D5
:1007400064040000440100080000000000000000F4
:0C0750000000000000000000010000009C
:04000005080000ED02
:00000001FF
