:020000040800F2
:100000004004002001010008090100080B0100085C
:100010000D0100080F010008110100080000000098
:1000200000000000000000000000000013010008B4
:100030001501000800000000170100081901000860
:100040001B0100081B0100081B0100081B01000820
:100050001B0100081B0100081B0100081B01000810
:100060001B0100081B0100081B0100081B01000800
:100070001B0100081B0100081B0100081B010008F0
:100080001B0100081B0100081B0100081B010008E0
:100090001B0100081B0100081B0100081B010008D0
:1000A0001B010008090400081B010008E503000803
:1000B0001B0100081B0100081B0100081B010008B0
:1000C0001B0100081B0100081B0100081B010008A0
:1000D0001B0100081B0100081B0100081B01000890
:1000E0001B0100081B0100081B010008DFF80CD0F1
:1000F00000F018F8004800471D06000840040020E2
:100100000648804706480047FEE7FEE7FEE7FEE7B1
:10011000FEE7FEE7FEE7FEE7FEE7FEE785030008F1
:10012000ED000008064C074D06E0E06840F00103D2
:1001300094E8070098471034AC42F6D3FFF7DAFF93
:10014000E0060008000700082DE9F04102460025FE
:100150000026002000230024002791F803C00CF0A3
:100160000F0591F803C00CF0100CBCF1000F03D088
:1001700091F802C04CEA050591F800C0BCF1000FEF
:1001800031D0146800202BE04FF0010C0CFA00F382
:10019000B1F800C00CEA03069E4220D183004FF064
:1001A0000F0C0CFA03F7BC4305FA03FC4CEA0404F9
:1001B00091F803C0BCF1280F06D14FF0010C0CFAE6
:1001C00000FCC2F814C00AE091F803C0BCF1480F6B
:1001D00005D14FF0010C0CFA00FCC2F810C0401C15
:1001E0000828D1D31460B1F800C0BCF1FF0F34DD92
:1001F000546800202EE000F1080C4FF0010808FAC6
:100200000CF3B1F800C00CEA03069E4221D1830032
:100210004FF00F0C0CFA03F7BC4305FA03FC4CEA51
:10022000040491F803C0BCF1280F05D100F1080CBB
:1002300008FA0CF8C2F8148091F803C0BCF1480F1A
:1002400007D100F1080C4FF0010808FA0CF8C2F8C9
:100250001080401C0828CED35460BDE8F081416175
:1002600070470161704700F01F020121914042096F
:10027000920002F1E022C2F80011704729B1064A4B
:1002800092690243044B9A6104E0034A92698243F3
:10029000014B9A61704700000010024010B500F059
:1002A00001F810BD0CB500200190009033480068A3
:1002B00040F480303149086000BF3048006800F4E5
:1002C000003000900198401C0190009818B90198E6
:1002D000B0F5A06FF1D12948006800F4003010B1EA
:1002E0000120009001E0002000900098012843D1F7
:1002F0002348006840F01000214908600846006863
:1003000020F0030008600846006840F00200086022
:100310001A484068194948600846406848600846DD
:10032000406840F4806048600846406820F47C10D3
:1003300048600846406840F4E81048600846006895
:1003400040F08070086000BF0C48006800F000704A
:100350000028F9D00948406820F0030007494860A8
:100360000846406840F00200486000BF034840680B
:1003700000F00C000828F9D10CBD0000001002406C
:100380000020024010B51348006840F001001149F8
:10039000086008464068104908400E494860084611
:1003A00000680E4908400B4908600846006820F4C0
:1003B000802008600846406820F4FE0048604FF442
:1003C0001F008860FFF76AFF4FF000600449086073
:1003D00010BD0000001002400000FFF8FFFFF6FE15
:1003E00008ED00E010B5054801880548FFF737FF24
:1003F0000221044800F040F810BD00001400002065
:1004000000080140002C014010B51648018816482C
:10041000FFF727FF15480068E52803DA134800684E
:100420004F2804DC124800684042114908600F4818
:1004300000680F49096808440C49086008460068CC
:100440004F2809DD08460068E52805DC08460068F5
:1004500081B2084800F07DF80121064800F00CF850
:1004600010BD000014000020000801401C00002006
:1004700020000020002C0140CA430282704721B1B5
:10048000028842F00102028004E002884FF6FE7307
:100490001A40028070471AB183890B43838102E0BE
:1004A00083898B438381704770B500240022002329
:1004B000058C4FF6FE7635400584028C8388048BCC
:1004C0004FF68F752C40B51E2C400D882C43751EA1
:1004D0002A400D892A434D882A43144DA8420BD047
:1004E000134DA84208D0134DA84205D0124DA84282
:1004F00002D0124DA84213D14FF6F7752A404D890C
:100500002A434FF6FB752A408D882A434FF6FF6534
:100510002B404FF6FF552B408D892B43CD892B4324
:1005200083800483CD888586028470BD002C0140C1
:1005300000340140004001400044014000480140B7
:100540000A460021018B4FF6F773194011430183CE
:100550007047818670470000002202881D4B984238
:100560000ED01D4B98420BD0B0F1804F08D01B4BE2
:10057000984205D01A4B984202D01A4B984204D1A7
:100580004FF68F731A404B881A43174B984207D087
:10059000164B984204D04FF6FF431A40CB881A43BB
:1005A00002808B8883850B8803850A4B98420BD089
:1005B000094B984208D00E4B984205D00D4B9842FB
:1005C00002D00D4B984201D10B7A0386012383821E
:1005D00070470000002C014000340140000400403E
:1005E00000080040000C00400010004000140040D3
:1005F00000400140004401400048014002E008C8BA
:10060000121F08C1002AFAD170477047002001E08C
:1006100001C1121F002AFBD1704700001920FFF70B
:1006200022FE1B20FFF71FFE01210420FFF726FEFC
:100630000121C802FFF722FE00202149C88048801E
:10064000204800682049B0FBF1F0401E1C4908809A
:1006500040F2CF7088801D48FFF77EFF60201C4964
:10066000088000200881012048801A480068C8805E
:100670001648FFF719FF01211448FFF700FF082172
:100680001248FFF75DFF012202211048FFF703FF28
:10069000012211460D48FFF7FEFE4FF480700E490F
:1006A00008801020C870032088700C48FFF74CFDAC
:1006B000094801880948FFF7D2FD00BFFEE70000A6
:1006C0002400002000000020A0860100002C014032
:1006D0002E0000201C000020140000200008014013
:1006E000000700080000002024000000FC050008AE
:1006F00024070008240000201C0400000C06000849
:1007000000A24A04000000000000000001020304EF
:10071000060708090000000000000000500000006B
:040720000A000000CB
:04000005080000ED02
:00000001FF
