:020000040800F2
:1000000078040020450100084D0100084F01000858
:1000100051010008530100085501000800000000CC
:100020000000000000000000000000005701000870
:1000300059010008000000005B0100083D0A0008AB
:100040005F0100085F0100085F0100085F01000810
:100050005F0100085F0100085D0200085F01000801
:100060005F010008810200085F0100085F010008CD
:100070005F0100085F0100085F0100085F010008E0
:100080005F0100085F0100085F0100085F010008D0
:100090005F0100085F0100085F0100085F010008C0
:1000A0005F0100085F0100085F0100085F010008B0
:1000B0005F0100085F0100085F0100085F010008A0
:1000C0005F0100085F0100085F0100085F01000890
:1000D0005F0100085F0100085F0100085F01000880
:1000E0005F0100085F0100085F0100085F01000870
:1000F0005F0100085F0100085F0100085F01000860
:100100005F0100085F0100085F0100085F0100084F
:100110005F0100085F0100085F0100085F0100083F
:100120005F0100085F0100085F0100085F0100082F
:10013000DFF80CD000F04AF80048004761110008D1
:10014000780400200648804706480047FEE7FEE79F
:10015000FEE7FEE7FEE7FEE7FEE7FEE7FEE7FEE777
:10016000B90A0008310100082DE9F05F05460020BA
:1001700092469B4688460646814640241BE0284618
:1001800041464746224600F042F853465A46C01AB6
:10019000914110D311461846224600F029F82D1A35
:1001A00067EB01084F4622460120002100F020F8AD
:1001B00017EB00094E41201EA4F10104DFDC484684
:1001C00031462A464346BDE8F09F0000064C074DE5
:1001D00006E0E06840F0010394E807009847103417
:1001E000AC42F6D3FFF7A8FF80140008A014000863
:1001F000202A04DB203A00FA02F1002070479140E7
:10020000C2F1200320FA03F3194390407047202ADB
:1002100004DB203A21FA02F00021704721FA02F3B0
:10022000D040C2F1200291400843194670470000B7
:1002300000214FF0E02291610121064A1160064938
:10024000086000BF044909680029FBD1014A116018
:1002500070470000040000200000002010B5064890
:100260000078012804D105480068401C0349086053
:10027000012000F031F810BD2000002018000020FF
:1002800010B508210E4800F022F918B901200D49D7
:10029000087010E008210A4800F019F901280AD175
:1002A0000020084908700848016808A000F0C6FD51
:1002B000002005490860082000F00EF810BD00007D
:1002C00000080140200000201800002070636C6FBF
:1002D000636B3A2025640A000149086070470000FA
:1002E00014040140002123498279002A3AD00A46A9
:1002F000126803689A430B461A600A1D1268036865
:100300009A430B1D1A60027911440A6803681A4364
:100310000A60184A0832126803689A43154B08337A
:100320001A601A1D126803689A43124B0C331A6044
:100330004279102A0ED11A1F126803681A430D4B16
:1003400008331A601A1D126803681A43094B0C33EC
:100350001A600DE00749427911440A6803681A439C
:100360000A6005E0027911440A6803689A430A604A
:10037000704700000004014030B500228B071C0FBD
:100380000F2303FA04F20B4B8C1053F824309343E1
:10039000084C8D1044F8253023468C1053F8243037
:1003A0008C07240F00FA04F42343024C8D1044F808
:1003B000253030BD080001402DE9F04102460025FE
:1003C0000026002000230024002791F803C00CF031
:1003D0000F0591F803C00CF0100CBCF1000F03D016
:1003E00091F802C04CEA050591F800C0BCF1000F7D
:1003F00031D0146800202BE04FF0010C0CFA00F310
:10040000B1F800C00CEA03069E4220D183004FF0F1
:100410000F0C0CFA03F7BC4305FA03FC4CEA040486
:1004200091F803C0BCF1280F06D14FF0010C0CFA73
:1004300000FCC2F814C00AE091F803C0BCF1480FF8
:1004400005D14FF0010C0CFA00FCC2F810C0401CA2
:100450000828D1D31460B1F800C0BCF1FF0F34DD1F
:10046000546800202EE000F1080C4FF0010808FA53
:100470000CF3B1F800C00CEA03069E4221D18300C0
:100480004FF00F0C0CFA03F7BC4305FA03FC4CEADF
:10049000040491F803C0BCF1280F05D100F1080C49
:1004A00008FA0CF8C2F8148091F803C0BCF1480FA8
:1004B00007D100F1080C4FF0010808FA0CF8C2F857
:1004C0001080401C0828CED35460BDE8F08102465D
:1004D000002093680B400BB1012000E00020704722
:1004E000416170470161704708B500F0B5FA01211C
:1004F000082000F0B5F914208DF8030002208DF8D3
:1005000002000C480088ADF8000069460A480068FF
:10051000FFF752FF0748018807480068FFF7E0FF30
:1005200006480088ADF80000694605480068FFF7F6
:1005300043FF08BD2C000020240000202E000020D6
:100540002800002010B50848018808480068FFF717
:10055000C9FF0120FFF76CFE0348018803480068CB
:10056000FFF7BEFF10BD00002C000020240000207B
:1005700038B50024FFF7E6FF04208DF803000220C1
:100580008DF8020019480088ADF800006946184847
:100590000068FFF711FF00251BE016480188164888
:1005A0000068FFF79FFF0120FFF742FE1148018816
:1005B00011480068FFF794FF0120FFF739FE60063D
:1005C000040E0A4801880A480068FFF780FF0443C8
:1005D0006D1C082DE1DB14208DF8030069460448EA
:1005E0000068FFF7E9FE204638BD00002E0000201D
:1005F000280000202C0000202400002010B5044614
:10060000012C06D10E4801880E480068FFF76AFFEA
:1006100005E00B4801880B480068FFF761FF0A48B6
:1006200001880A480068FFF75DFF0120FFF700FE20
:100630000548018805480068FFF752FF10BD00001B
:100640002E000020280000202C0000202400002084
:1006500070B504460D461848018818480068FFF731
:1006600041FF0120FFF7E4FD1548018815480068A7
:10067000FFF738FF0120FFF7DBFD0F4801880F4827
:100680000068FFF72DFF0120FFF7D2FD0C4801881D
:100690000C480068FFF724FF0120FFF7C9FD012D7A
:1006A00004D144F0010000F03DF802E0204600F0E3
:1006B00039F8FFF747FF70BD2E000020280000200A
:1006C0002C0000202400002010B512480188124898
:1006D0000068FFF705FF0120FFF7AAFD0F4801881A
:1006E0000F480068FFF7FCFE0120FFF7A1FD094855
:1006F000018809480068FFF7F5FE0120FFF798FD23
:100700000648018806480068FFF7ECFE0120FFF765
:100710008FFD10BD2C000020240000202E000020A2
:100720002800002070B506468024002530E006EA47
:10073000040078B11948018819480068FFF7D2FE13
:100740000120FFF775FD1748018817480068FFF77B
:10075000C9FE0EE01148018811480068FFF7C0FE8D
:100760000120FFF765FD0F4801880F480068FFF77B
:10077000B9FE0120FFF75CFD64100A4801880A48B1
:100780000068FFF7ADFE0120FFF752FD681CC5B2FF
:10079000082DCCDBFFF7D6FE70BD00002E00002038
:1007A000280000202C0000202400002000F01F0260
:1007B000012191404209920002F1E022C2F80011A9
:1007C0007047000010B5002409E0064A02EB44021D
:1007D0005178044A12F8140000F022F8641CA72C87
:1007E000F3DB10BD3013000870B505460C46002140
:1007F0004220FFF72DFF2846FFF794FFFFF764FF25
:100800000520FFF715FD01214220FFF721FFFFF72B
:10081000AFFE20700020FFF7F1FEFFF755FF70BD1F
:1008200070B505460C4600214220FFF711FF28460F
:10083000FFF778FF2046FFF775FFFFF745FF70BD14
:1008400029B1064AD2690243044BDA6104E0034A43
:10085000D2698243014BDA61704700000010024008
:1008600029B1064A92690243044B9A6104E0034AA3
:1008700092698243014B9A61704700000010024068
:1008800030B500210022002400232D4D6D6805F0B5
:100890000C0121B1042905D0082923D105E0294DF7
:1008A000056022E0274D05601FE0254D6D6805F4C9
:1008B0007012234D6D6805F48034022505EB9242D9
:1008C0001CB9214D554305600BE01D4D6D6805F4C5
:1008D00000351DB11C4D5543056002E0194D5543CF
:1008E000056002E0174D056000BF00BF144D6D6844
:1008F00005F0F0010909154D6B5C0568DD404560A8
:100900000F4D6D6805F4E061090A104D6B5C456898
:10091000DD4085600A4D6D6805F46051C90A0B4DD4
:100920006B5C4568DD40C560054D6D6805F4404170
:10093000890B074D6B5CC568B5FBF3F5056130BDF0
:100940000010024000127A0000093D00440000201F
:100950005400002010B500F001F810BD0CB50020C7
:10096000019000903348006840F4803031490860BD
:1009700000BF3048006800F4003000900198401C2F
:100980000190009818B90198B0F5A06FF1D12948ED
:10099000006800F4003010B10120009001E0002058
:1009A00000900098012843D12348006840F01000CF
:1009B000214908600846006820F0030008600846E6
:1009C000006840F0020008601A4840681949486011
:1009D0000846406848600846406840F480604860C7
:1009E0000846406820F47C1048600846406840F49F
:1009F000881048600846006840F08070086000BFBA
:100A00000C48006800F000700028F9D009484068E0
:100A100020F00300074948600846406840F00200A3
:100A2000486000BF0348406800F00C000828F9D176
:100A30000CBD000000100240002002400448006885
:100A4000012804D103480068401E0249086070472D
:100A5000040000200000002030B5144800684FF466
:100A60007A72B0FBF2F1B1F1807F00D31DE021F08A
:100A70007F40401E4FF0E022506150170F220028A7
:100A800007DA13071D0E0A4B00F00F04241F1D5533
:100A900003E013071C0E074B1C5400BF00204FF04F
:100AA000E02290610720106100BF30BD30000020BF
:100AB00018ED00E000E400E010B51348006840F0D5
:100AC00001001149086008464068104908400E4975
:100AD0004860084600680E4908400B49086008460F
:100AE000006820F4802008600846406820F4FE007A
:100AF00048604FF41F008860FFF72CFF4FF0006044
:100B00000449086010BD0000001002400000FFF81A
:100B1000FFFFF6FE08ED00E021B1028842F001027D
:100B2000028004E002884FF6FE731A40028070478C
:100B300070B5002400220023058C4FF6EF76354077
:100B40000584028C8388048B48F6FF752C404FF691
:100B5000FF452C400D884FF6FF7606EA05252C430D
:100B60004FF6DF752A400D8906EA05152A434D88A0
:100B700006EA05152A43154DA84202D0144DA84295
:100B80001DD14FF67F752A404D894FF6FF7606EA54
:100B900005152A434FF6BF752A408D8806EA0515CC
:100BA0002A434FF6FF352B404FF2FF752B408D89BE
:100BB00006EA85052B43CD8906EA85052B4383800C
:100BC0000483CD880587028470BD0000002C01409D
:100BD000003401400A460021018B4FF2FF73194097
:100BE0004FF6FF7303EA022319430183704701851F
:100BF00082827047002202881D4B98420ED01D4B06
:100C000098420BD0B0F1804F08D01B4B984205D0D2
:100C10001A4B984202D01A4B984204D14FF68F7368
:100C20001A404B881A43174B984207D0164B9842EC
:100C300004D04FF6FF431A40CB881A4302808B88BA
:100C400083850B8803850A4B98420BD0094B984249
:100C500008D00E4B984205D00D4B984202D00D4B58
:100C6000984201D10B7A03860123838270470000EA
:100C7000002C014000340140000400400008004006
:100C8000000C0040001000400014004000400140F3
:100C900000440140004801402DE9F04786B0044679
:100CA0000D4616461F46DDE90F9ADDF83880042010
:100CB0008DF81700194830F81400ADF814001849E1
:100CC00051F8240005A9FFF777FB18208DF81300D1
:100CD00003208DF81200134830F81400ADF810000E
:100CE0000F4951F8240004A9FFF766FB0096002085
:100CF000ADF80C00ADF80890ADF806A0ADF80470A2
:100D0000ADF80A806946284600F028F801212846F7
:100D100000F00AF806B0BDE8F08700000E000020E1
:100D2000080000200C00002021B1828942F400520A
:100D3000828104E082894DF6FF731A4082817047F8
:100D400002460020B1F5007F00D100BF13880B40A0
:100D50000BB1012000E00020704700002DE9F047B2
:100D600086B005460E460024A24600BFA1460027D5
:100D7000B08900B100BF2F462C8A4CF6FF700440AA
:100D8000F08804432C82AC894EF6F3100440B088FE
:100D900031890843718908430443AC81AC8A4FF61A
:100DA000FF400440B0890443AC8201A8FFF768FD0E
:100DB0001F48874202D1DDF810A001E0DDF80CA049
:100DC000A88900F4004040B10AEBCA0000EB0A1009
:100DD00031684900B0FBF1F807E00AEBCA0000EB0C
:100DE0000A1031688900B0FBF1F86420B8FBF0F01C
:100DF00004012009642101FB1089A88900F4004046
:100E000040B1322000EBC900B0FBF1F000F0070068
:100E1000044308E0322000EB09106421B0FBF1F03C
:100E200000F00F0004432C8106B0BDE8F0870000FD
:100E300000380140C1F30802828070470FB4054BAF
:100E400010B503A9044A029800F018F810BC5DF828
:100E500014FB00003D1100085800002002E008C803
:100E6000121F08C1002AFAD170477047002001E024
:100E700001C1121F002AFBD1704700002DE9FF4F6E
:100E80008DB09B460F460446002606E025280BD071
:100E90005A460F999047641C761C20780028F5D19B
:100EA00011B03046BDE8F08F0025A84601229849D0
:100EB00000E0054314F8013F203B02FA03F008422A
:100EC000F7D120782E2817D114F8010F45F004052A
:100ED0002A280ED06FF02F022078A0F130010929C6
:100EE0000AD808EB880102EB410100EB0108641C01
:100EF000F2E757F8048B641C20786C280DD004DCD2
:100F00004C2812D06A2811D104E074280DD07A2818
:100F10000CD10AE045F4001507E0617845F480152E
:100F2000814202D1641C05F58015641C2278692A6F
:100F300045D008DC002AB3D0582A69D0632A10D0E3
:100F4000642A08D13BE0702A67D0732A13D0752A2F
:100F50005CD0782A5CD010465A460F999047761C90
:100F6000D3E017F8040B8DF8000000208DF8010085
:100F7000E946012003E057F8049B4FF0FF30690772
:100F80004FF0000501D40AE06D1C45450DDA85429D
:100F9000FADB19F805100029F6D106E06D1C854230
:100FA000FCDB19F805100029F8D12E4404E019F8EB
:100FB000010B5A460F9990476D1EF8D2A5E00A2002
:100FC0000021CDE90801C5F3025002280DD001CF60
:100FD000C117031E71F100030DDA4FF0000CD0EBC6
:100FE0000C006CEB01012D2308E0FF1D27F0070723
:100FF000F7E80201EDE72B0504D52B238DF8283007
:1010000001233BE0EB0739D02023F7E70A2000E07B
:1010100010200021CDE9080107E01020002145F053
:101020000405CDE908014FF00808C5F30250022875
:101030000FD001CF00214FF0000A2B071FD5702AD7
:101040000DD0DDE908C38CF0100C5CEA030C0CD069
:1010500015E0FF1D27F00707F7E80201EBE7402244
:101060008DF828204FF0010A0BE050EA010306D06A
:1010700030238DF828308DF8292002239A46582AEB
:1010800004D024A20DF120090B9209E026A2F9E771
:10109000DDE90823FFF768F80B9B9B5C09F8013D2D
:1010A00050EA0102F4D1ADEB090020300890680746
:1010B00001D44FF001080899884502DDA8EB010032
:1010C00000E000208046002506E00AA85A46405D60
:1010D0000F9990476D1C761C5545F6DB04E03020D7
:1010E0005A460F999047761CB8F10001A8F1010803
:1010F000F5DC05E019F8010B5A460F999047761C6C
:101100000899481E08900029F4DC641CC5E600001C
:1011100009280100303132333435363738396162CD
:101120006364656600000000303132333435363791
:1011300038394142434445460000000070B504463A
:101140000D46E1B20548FFF775FE00BF4021034898
:10115000FFF7F6FD0028F9D0204670BD00380140A9
:1011600088B00020039001218803FFF779FB01215B
:101170000420FFF775FB01210846FFF761FB012101
:101180000846FFF76DFBFFF7AFF948208DF81B000D
:101190000120ADF8180003208DF81A0006A94A486E
:1011A000FFF70AF90120049000208DF814000C20AC
:1011B0008DF8150001208DF8160004A8FFF792F8AD
:1011C00000210846FFF7D8F80820ADF8180006A956
:1011D0003D48FFF7F1F80820049010208DF8150025
:1011E00004A8FFF77FF803210020FFF7C5F81820B7
:1011F0008DF81F0035480088ADF81C0003208DF8DD
:101200001E0007A932480068FFF7D6F800203149D0
:10121000C8804880032088800020088008724FF032
:101220008040FFF7E7FC002240F267114FF080405A
:10123000FFF7DDFC6020284908800120488000205D
:101240008880088148810220C8804007FFF770FC31
:101250000821C806FFF7BEFC01218807FFF75CFCE8
:10126000FFF7FAFB00200822CDE9002003464FF4E7
:1012700016421A490290FFF70FFD19A0FFF7DEFD95
:10128000FFF7A0FA1CA0FFF7D9FD03A90A20FFF77A
:10129000ABFA9DF80C101DA0FFF7D0FD03A90B20A1
:1012A000FFF7A2FA9DF80C101CA0FFF7C7FD4FF442
:1012B000FA70FEF7BDFF0620FFF778FA0920FFF766
:1012C00075FA00BFFEE7000000080140140000208E
:1012D000100000205C000020660000200038014063
:1012E0004F56203736373020496E6974616C697A01
:1012F000696E672E2E2E0A00496E6974616C697AD8
:10130000696E672066696E6973680A007265616458
:10131000446174613A2025780A00000072656164B6
:1013200044617461323A2025780A0A0A00000000FC
:101330003A0440D0121432801716180419021A7B8E
:1013400003060C003E007000710172117300A202CE
:1013500011817A207B1C7C287D3C7E557F688076BD
:1013600081808288838F849685A386AF87C488D73F
:1013700089E813E0000010000D001428A505AB0754
:101380002475256326A59F78A068A103A6DFA7DFA3
:10139000A8F0A990AA9413E50E610F4B16021E0740
:1013A000210222912907330B350B371D3871392A59
:1013B0003C784D404E2069556B4074198D4F8E001E
:1013C0008F0090009100920096009A80B084B10C3A
:1013D000B20EB382B80A431444F045344658472845
:1013E000483A59885A885B445C675D495E0E6404DC
:1013F00065206605940495086C0A6D556E116F9F03
:101400006A400140024013E715004F8050805100B0
:101410005222535E5480550A564A589E41083F0551
:10142000750576E14C0F770A3DC24B09C96041381A
:10143000564034113B02A489960097309820993089
:101440009A849B299C039D4C9E3F78047901C8F0A7
:10145000790FC8007910C87E790AC880790BC80155
:10146000790CC80F790DC8207909C8807902C8C0E5
:101470007903C8407905C830792609023B4200004B
:10148000A0140008000000205C0000005C0E0008B2
:10149000FC1400085C0000201C0400006C0E000816
:1014A00000000000000000000008014000020004ED
:1014B00000080140020000000000000000000000E1
:1014C00000000000000C0140000C014040008000C2
:1014D00000A24A0400000000000000000102030412
:1014E00006070809000000000102030401020304CA
:0C14F000060708090204060800000000BE
:0400000508000131BD
:00000001FF
